{
  "_format": "hh-sol-artifact-1",
  "contractName": "ERC20Token",
  "sourceName": "contracts/ERC20Token.sol",
  "abi": [
    {
      "inputs": [
        {
          "internalType": "string",
          "name": "_name",
          "type": "string"
        },
        {
          "internalType": "string",
          "name": "_symbol",
          "type": "string"
        },
        {
          "internalType": "uint256",
          "name": "_totalSupply",
          "type": "uint256"
        }
      ],
      "stateMutability": "nonpayable",
      "type": "constructor"
    },
    {
      "anonymous": false,
      "inputs": [
        {
          "indexed": true,
          "internalType": "address",
          "name": "from",
          "type": "address"
        },
        {
          "indexed": true,
          "internalType": "address",
          "name": "to",
          "type": "address"
        },
        {
          "indexed": false,
          "internalType": "uint256",
          "name": "value",
          "type": "uint256"
        }
      ],
      "name": "Transfer",
      "type": "event"
    },
    {
      "inputs": [
        {
          "internalType": "address",
          "name": "_wallet",
          "type": "address"
        }
      ],
      "name": "balance",
      "outputs": [
        {
          "internalType": "uint256",
          "name": "",
          "type": "uint256"
        }
      ],
      "stateMutability": "view",
      "type": "function"
    },
    {
      "inputs": [
        {
          "internalType": "address",
          "name": "",
          "type": "address"
        }
      ],
      "name": "balanceOf",
      "outputs": [
        {
          "internalType": "uint256",
          "name": "",
          "type": "uint256"
        }
      ],
      "stateMutability": "view",
      "type": "function"
    },
    {
      "inputs": [],
      "name": "i_owner",
      "outputs": [
        {
          "internalType": "address",
          "name": "",
          "type": "address"
        }
      ],
      "stateMutability": "view",
      "type": "function"
    },
    {
      "inputs": [],
      "name": "name",
      "outputs": [
        {
          "internalType": "string",
          "name": "",
          "type": "string"
        }
      ],
      "stateMutability": "view",
      "type": "function"
    },
    {
      "inputs": [],
      "name": "symbol",
      "outputs": [
        {
          "internalType": "string",
          "name": "",
          "type": "string"
        }
      ],
      "stateMutability": "view",
      "type": "function"
    },
    {
      "inputs": [],
      "name": "totalSupply",
      "outputs": [
        {
          "internalType": "uint256",
          "name": "",
          "type": "uint256"
        }
      ],
      "stateMutability": "view",
      "type": "function"
    },
    {
      "inputs": [
        {
          "internalType": "address",
          "name": "_from",
          "type": "address"
        },
        {
          "internalType": "address",
          "name": "_to",
          "type": "address"
        },
        {
          "internalType": "uint256",
          "name": "_value",
          "type": "uint256"
        }
      ],
      "name": "transfer",
      "outputs": [
        {
          "internalType": "bool",
          "name": "",
          "type": "bool"
        }
      ],
      "stateMutability": "nonpayable",
      "type": "function"
    },
    {
      "inputs": [
        {
          "internalType": "address",
          "name": "_to",
          "type": "address"
        },
        {
          "internalType": "uint256",
          "name": "_value",
          "type": "uint256"
        }
      ],
      "name": "transferFromOwner",
      "outputs": [
        {
          "internalType": "bool",
          "name": "success",
          "type": "bool"
        }
      ],
      "stateMutability": "nonpayable",
      "type": "function"
    }
  ],
  "bytecode": "0x60806040523480156200001157600080fd5b5060405162001516380380620015168339818101604052810190620000379190620002e2565b33600460006101000a81548173ffffffffffffffffffffffffffffffffffffffff021916908373ffffffffffffffffffffffffffffffffffffffff1602179055508260009081620000899190620005bd565b5081600190816200009b9190620005bd565b508060028190555060025460036000600460009054906101000a900473ffffffffffffffffffffffffffffffffffffffff1673ffffffffffffffffffffffffffffffffffffffff1673ffffffffffffffffffffffffffffffffffffffff16815260200190815260200160002081905550505050620006a4565b6000604051905090565b600080fd5b600080fd5b600080fd5b600080fd5b6000601f19601f8301169050919050565b7f4e487b7100000000000000000000000000000000000000000000000000000000600052604160045260246000fd5b6200017d8262000132565b810181811067ffffffffffffffff821117156200019f576200019e62000143565b5b80604052505050565b6000620001b462000114565b9050620001c2828262000172565b919050565b600067ffffffffffffffff821115620001e557620001e462000143565b5b620001f08262000132565b9050602081019050919050565b60005b838110156200021d57808201518184015260208101905062000200565b60008484015250505050565b6000620002406200023a84620001c7565b620001a8565b9050828152602081018484840111156200025f576200025e6200012d565b5b6200026c848285620001fd565b509392505050565b600082601f8301126200028c576200028b62000128565b5b81516200029e84826020860162000229565b91505092915050565b6000819050919050565b620002bc81620002a7565b8114620002c857600080fd5b50565b600081519050620002dc81620002b1565b92915050565b600080600060608486031215620002fe57620002fd6200011e565b5b600084015167ffffffffffffffff8111156200031f576200031e62000123565b5b6200032d8682870162000274565b935050602084015167ffffffffffffffff81111562000351576200035062000123565b5b6200035f8682870162000274565b92505060406200037286828701620002cb565b9150509250925092565b600081519050919050565b7f4e487b7100000000000000000000000000000000000000000000000000000000600052602260045260246000fd5b60006002820490506001821680620003cf57607f821691505b602082108103620003e557620003e462000387565b5b50919050565b60008190508160005260206000209050919050565b60006020601f8301049050919050565b600082821b905092915050565b6000600883026200044f7fffffffffffffffffffffffffffffffffffffffffffffffffffffffffffffffff8262000410565b6200045b868362000410565b95508019841693508086168417925050509392505050565b6000819050919050565b60006200049e620004986200049284620002a7565b62000473565b620002a7565b9050919050565b6000819050919050565b620004ba836200047d565b620004d2620004c982620004a5565b8484546200041d565b825550505050565b600090565b620004e9620004da565b620004f6818484620004af565b505050565b5b818110156200051e5762000512600082620004df565b600181019050620004fc565b5050565b601f8211156200056d576200053781620003eb565b620005428462000400565b8101602085101562000552578190505b6200056a620005618562000400565b830182620004fb565b50505b505050565b600082821c905092915050565b6000620005926000198460080262000572565b1980831691505092915050565b6000620005ad83836200057f565b9150826002028217905092915050565b620005c8826200037c565b67ffffffffffffffff811115620005e457620005e362000143565b5b620005f08254620003b6565b620005fd82828562000522565b600060209050601f83116001811462000635576000841562000620578287015190505b6200062c85826200059f565b8655506200069c565b601f1984166200064586620003eb565b60005b828110156200066f5784890151825560018201915060208501945060208101905062000648565b868310156200068f57848901516200068b601f8916826200057f565b8355505b6001600288020188555050505b505050505050565b610e6280620006b46000396000f3fe608060405234801561001057600080fd5b50600436106100885760003560e01c806395d89b411161005b57806395d89b4114610129578063beabacc814610147578063dba6335f14610177578063e3d670d71461019557610088565b806306fdde031461008d5780630f18ac07146100ab57806318160ddd146100db57806370a08231146100f9575b600080fd5b6100956101c5565b6040516100a291906108ee565b60405180910390f35b6100c560048036038101906100c091906109a9565b610253565b6040516100d29190610a04565b60405180910390f35b6100e36104c6565b6040516100f09190610a2e565b60405180910390f35b610113600480360381019061010e9190610a49565b6104cc565b6040516101209190610a2e565b60405180910390f35b6101316104e4565b60405161013e91906108ee565b60405180910390f35b610161600480360381019061015c9190610a76565b610572565b60405161016e9190610a04565b60405180910390f35b61017f6107ef565b60405161018c9190610ad8565b60405180910390f35b6101af60048036038101906101aa9190610a49565b610815565b6040516101bc9190610a2e565b60405180910390f35b600080546101d290610b22565b80601f01602080910402602001604051908101604052809291908181526020018280546101fe90610b22565b801561024b5780601f106102205761010080835404028352916020019161024b565b820191906000526020600020905b81548152906001019060200180831161022e57829003601f168201915b505050505081565b60008073ffffffffffffffffffffffffffffffffffffffff168373ffffffffffffffffffffffffffffffffffffffff16036102c3576040517f08c379a00000000000000000000000000000000000000000000000000000000081526004016102ba90610bc5565b60405180910390fd5b8160036000600460009054906101000a900473ffffffffffffffffffffffffffffffffffffffff1673ffffffffffffffffffffffffffffffffffffffff1673ffffffffffffffffffffffffffffffffffffffff168152602001908152602001600020541015610367576040517f08c379a000000000000000000000000000000000000000000000000000000000815260040161035e90610c31565b60405180910390fd5b8160036000600460009054906101000a900473ffffffffffffffffffffffffffffffffffffffff1673ffffffffffffffffffffffffffffffffffffffff1673ffffffffffffffffffffffffffffffffffffffff16815260200190815260200160002060008282546103d89190610c80565b9250508190555081600360008573ffffffffffffffffffffffffffffffffffffffff1673ffffffffffffffffffffffffffffffffffffffff168152602001908152602001600020600082825461042e9190610cb4565b925050819055508273ffffffffffffffffffffffffffffffffffffffff16600460009054906101000a900473ffffffffffffffffffffffffffffffffffffffff1673ffffffffffffffffffffffffffffffffffffffff167fddf252ad1be2c89b69c2b068fc378daa952ba7f163c4a11628f55a4df523b3ef846040516104b49190610a2e565b60405180910390a36001905092915050565b60025481565b60036020528060005260406000206000915090505481565b600180546104f190610b22565b80601f016020809104026020016040519081016040528092919081815260200182805461051d90610b22565b801561056a5780601f1061053f5761010080835404028352916020019161056a565b820191906000526020600020905b81548152906001019060200180831161054d57829003601f168201915b505050505081565b60008073ffffffffffffffffffffffffffffffffffffffff168473ffffffffffffffffffffffffffffffffffffffff16036105e2576040517f08c379a00000000000000000000000000000000000000000000000000000000081526004016105d990610d34565b60405180910390fd5b600073ffffffffffffffffffffffffffffffffffffffff168373ffffffffffffffffffffffffffffffffffffffff1603610651576040517f08c379a000000000000000000000000000000000000000000000000000000000815260040161064890610da0565b60405180910390fd5b600360008573ffffffffffffffffffffffffffffffffffffffff1673ffffffffffffffffffffffffffffffffffffffff168152602001908152602001600020548211156106d3576040517f08c379a00000000000000000000000000000000000000000000000000000000081526004016106ca90610e0c565b60405180910390fd5b81600360008673ffffffffffffffffffffffffffffffffffffffff1673ffffffffffffffffffffffffffffffffffffffff16815260200190815260200160002060008282546107229190610c80565b9250508190555081600360008573ffffffffffffffffffffffffffffffffffffffff1673ffffffffffffffffffffffffffffffffffffffff16815260200190815260200160002060008282546107789190610cb4565b925050819055508273ffffffffffffffffffffffffffffffffffffffff168473ffffffffffffffffffffffffffffffffffffffff167fddf252ad1be2c89b69c2b068fc378daa952ba7f163c4a11628f55a4df523b3ef846040516107dc9190610a2e565b60405180910390a3600190509392505050565b600460009054906101000a900473ffffffffffffffffffffffffffffffffffffffff1681565b6000600360008373ffffffffffffffffffffffffffffffffffffffff1673ffffffffffffffffffffffffffffffffffffffff168152602001908152602001600020549050919050565b600081519050919050565b600082825260208201905092915050565b60005b8381101561089857808201518184015260208101905061087d565b60008484015250505050565b6000601f19601f8301169050919050565b60006108c08261085e565b6108ca8185610869565b93506108da81856020860161087a565b6108e3816108a4565b840191505092915050565b6000602082019050818103600083015261090881846108b5565b905092915050565b600080fd5b600073ffffffffffffffffffffffffffffffffffffffff82169050919050565b600061094082610915565b9050919050565b61095081610935565b811461095b57600080fd5b50565b60008135905061096d81610947565b92915050565b6000819050919050565b61098681610973565b811461099157600080fd5b50565b6000813590506109a38161097d565b92915050565b600080604083850312156109c0576109bf610910565b5b60006109ce8582860161095e565b92505060206109df85828601610994565b9150509250929050565b60008115159050919050565b6109fe816109e9565b82525050565b6000602082019050610a1960008301846109f5565b92915050565b610a2881610973565b82525050565b6000602082019050610a436000830184610a1f565b92915050565b600060208284031215610a5f57610a5e610910565b5b6000610a6d8482850161095e565b91505092915050565b600080600060608486031215610a8f57610a8e610910565b5b6000610a9d8682870161095e565b9350506020610aae8682870161095e565b9250506040610abf86828701610994565b9150509250925092565b610ad281610935565b82525050565b6000602082019050610aed6000830184610ac9565b92915050565b7f4e487b7100000000000000000000000000000000000000000000000000000000600052602260045260246000fd5b60006002820490506001821680610b3a57607f821691505b602082108103610b4d57610b4c610af3565b5b50919050565b7f45524332303a207472616e7366657220746f20746865207a65726f206164647260008201527f6573730000000000000000000000000000000000000000000000000000000000602082015250565b6000610baf602383610869565b9150610bba82610b53565b604082019050919050565b60006020820190508181036000830152610bde81610ba2565b9050919050565b7f45524332303a20696e73756666696369656e742062616c616e63650000000000600082015250565b6000610c1b601b83610869565b9150610c2682610be5565b602082019050919050565b60006020820190508181036000830152610c4a81610c0e565b9050919050565b7f4e487b7100000000000000000000000000000000000000000000000000000000600052601160045260246000fd5b6000610c8b82610973565b9150610c9683610973565b9250828203905081811115610cae57610cad610c51565b5b92915050565b6000610cbf82610973565b9150610cca83610973565b9250828201905080821115610ce257610ce1610c51565b5b92915050565b7f5472616e736665722066726f6d20746865207a65726f20616464726573730000600082015250565b6000610d1e601e83610869565b9150610d2982610ce8565b602082019050919050565b60006020820190508181036000830152610d4d81610d11565b9050919050565b7f5472616e7366657220746f20746865207a65726f206164647265737300000000600082015250565b6000610d8a601c83610869565b9150610d9582610d54565b602082019050919050565b60006020820190508181036000830152610db981610d7d565b9050919050565b7f496e73756666696369656e742062616c616e6365000000000000000000000000600082015250565b6000610df6601483610869565b9150610e0182610dc0565b602082019050919050565b60006020820190508181036000830152610e2581610de9565b905091905056fea264697066735822122015566a5e225e377a4918c4cae3f17c81edaeb21c2faefa9aefaa75d3106054cb64736f6c63430008180033",
  "linkReferences": {},
  "deployedLinkReferences": {}
}