{
  "_format": "hh-sol-artifact-1",
  "contractName": "Maintenance",
  "sourceName": "contracts/Maintenance.sol",
  "abi": [
    {
      "inputs": [],
      "stateMutability": "nonpayable",
      "type": "constructor"
    },
    {
      "inputs": [],
      "name": "NotOwner",
      "type": "error"
    },
    {
      "stateMutability": "payable",
      "type": "fallback"
    },
    {
      "inputs": [
        {
          "internalType": "string",
          "name": "_name",
          "type": "string"
        },
        {
          "internalType": "uint256",
          "name": "_apartment",
          "type": "uint256"
        },
        {
          "internalType": "address",
          "name": "_residentWallet",
          "type": "address"
        },
        {
          "internalType": "string",
          "name": "_description",
          "type": "string"
        },
        {
          "internalType": "uint256",
          "name": "_costInUsd",
          "type": "uint256"
        }
      ],
      "name": "addRequest",
      "outputs": [],
      "stateMutability": "nonpayable",
      "type": "function"
    },
    {
      "inputs": [
        {
          "internalType": "address",
          "name": "",
          "type": "address"
        }
      ],
      "name": "addressToAmountPayed",
      "outputs": [
        {
          "internalType": "uint256",
          "name": "",
          "type": "uint256"
        }
      ],
      "stateMutability": "view",
      "type": "function"
    },
    {
      "inputs": [
        {
          "internalType": "address",
          "name": "_wallet",
          "type": "address"
        }
      ],
      "name": "getMaintenanceCostByAddress",
      "outputs": [
        {
          "internalType": "uint256",
          "name": "",
          "type": "uint256"
        }
      ],
      "stateMutability": "view",
      "type": "function"
    },
    {
      "inputs": [
        {
          "internalType": "address",
          "name": "",
          "type": "address"
        }
      ],
      "name": "hasPaid",
      "outputs": [
        {
          "internalType": "bool",
          "name": "",
          "type": "bool"
        }
      ],
      "stateMutability": "view",
      "type": "function"
    },
    {
      "inputs": [],
      "name": "i_owner",
      "outputs": [
        {
          "internalType": "address",
          "name": "",
          "type": "address"
        }
      ],
      "stateMutability": "view",
      "type": "function"
    },
    {
      "inputs": [
        {
          "internalType": "uint256",
          "name": "",
          "type": "uint256"
        }
      ],
      "name": "maintenanceRequest",
      "outputs": [
        {
          "internalType": "string",
          "name": "name",
          "type": "string"
        },
        {
          "internalType": "uint256",
          "name": "apartment",
          "type": "uint256"
        },
        {
          "internalType": "address",
          "name": "residentWallet",
          "type": "address"
        },
        {
          "internalType": "string",
          "name": "description",
          "type": "string"
        },
        {
          "internalType": "uint256",
          "name": "costInUsd",
          "type": "uint256"
        },
        {
          "internalType": "bool",
          "name": "paid",
          "type": "bool"
        }
      ],
      "stateMutability": "view",
      "type": "function"
    },
    {
      "inputs": [],
      "name": "pay",
      "outputs": [],
      "stateMutability": "payable",
      "type": "function"
    },
    {
      "inputs": [],
      "name": "withdraw",
      "outputs": [],
      "stateMutability": "nonpayable",
      "type": "function"
    },
    {
      "stateMutability": "payable",
      "type": "receive"
    }
  ],
  "bytecode": "0x60a060405234801561001057600080fd5b503373ffffffffffffffffffffffffffffffffffffffff1660808173ffffffffffffffffffffffffffffffffffffffff1681525050608051611efa61006e60003960008181610835015281816108c30152610c0d0152611efa6000f3fe60806040526004361061007f5760003560e01c806371c18fd81161004e57806371c18fd814610124578063c3b753ed14610161578063dba6335f1461019e578063fbf47a9a146101c95761008e565b806317315266146100985780631b9265b8146100da578063204d398e146100e45780633ccfd60b1461010d5761008e565b3661008e5761008c610206565b005b610096610206565b005b3480156100a457600080fd5b506100bf60048036038101906100ba919061100a565b6103d6565b6040516100d196959493929190611132565b60405180910390f35b6100e2610206565b005b3480156100f057600080fd5b5061010b60048036038101906101069190611302565b61055f565b005b34801561011957600080fd5b50610122610833565b005b34801561013057600080fd5b5061014b600480360381019061014691906113b5565b610aea565b60405161015891906113e2565b60405180910390f35b34801561016d57600080fd5b50610188600480360381019061018391906113b5565b610bf3565b60405161019591906113e2565b60405180910390f35b3480156101aa57600080fd5b506101b3610c0b565b6040516101c091906113fd565b60405180910390f35b3480156101d557600080fd5b506101f060048036038101906101eb91906113b5565b610c2f565b6040516101fd9190611418565b60405180910390f35b600061021133610aea565b90508061021d34610c4f565b101561025e576040517f08c379a00000000000000000000000000000000000000000000000000000000081526004016102559061147f565b60405180910390fd5b34600160003373ffffffffffffffffffffffffffffffffffffffff1673ffffffffffffffffffffffffffffffffffffffff168152602001908152602001600020819055506000600260003373ffffffffffffffffffffffffffffffffffffffff1673ffffffffffffffffffffffffffffffffffffffff16815260200190815260200160002060006101000a81548160ff02191690831515021790555060005b6000805490508110156103d2573373ffffffffffffffffffffffffffffffffffffffff16600082815481106103355761033461149f565b5b906000526020600020906006020160020160009054906101000a900473ffffffffffffffffffffffffffffffffffffffff1673ffffffffffffffffffffffffffffffffffffffff16036103c5576001600082815481106103985761039761149f565b5b906000526020600020906006020160050160006101000a81548160ff0219169083151502179055506103d2565b80806001019150506102fd565b5050565b600081815481106103e657600080fd5b9060005260206000209060060201600091509050806000018054610409906114fd565b80601f0160208091040260200160405190810160405280929190818152602001828054610435906114fd565b80156104825780601f1061045757610100808354040283529160200191610482565b820191906000526020600020905b81548152906001019060200180831161046557829003601f168201915b5050505050908060010154908060020160009054906101000a900473ffffffffffffffffffffffffffffffffffffffff16908060030180546104c3906114fd565b80601f01602080910402602001604051908101604052809291908181526020018280546104ef906114fd565b801561053c5780601f106105115761010080835404028352916020019161053c565b820191906000526020600020905b81548152906001019060200180831161051f57829003601f168201915b5050505050908060040154908060050160009054906101000a900460ff16905086565b6000805b6000805490508110156106b2578473ffffffffffffffffffffffffffffffffffffffff166000828154811061059b5761059a61149f565b5b906000526020600020906006020160020160009054906101000a900473ffffffffffffffffffffffffffffffffffffffff1673ffffffffffffffffffffffffffffffffffffffff16036106a55782600082815481106105fd576105fc61149f565b5b9060005260206000209060060201600401600082825461061d919061155d565b92505081905550600081815481106106385761063761149f565b5b90600052602060002090600602016003018460405160200161065b9291906116b1565b6040516020818303038152906040526000828154811061067e5761067d61149f565b5b9060005260206000209060060201600301908161069b9190611877565b50600191506106b2565b8080600101915050610563565b508061082b5760006040518060c001604052808881526020018781526020018673ffffffffffffffffffffffffffffffffffffffff168152602001858152602001848152602001600015158152509080600181540180825580915050600190039060005260206000209060060201600090919091909150600082015181600001908161073e9190611877565b506020820151816001015560408201518160020160006101000a81548173ffffffffffffffffffffffffffffffffffffffff021916908373ffffffffffffffffffffffffffffffffffffffff16021790555060608201518160030190816107a59190611877565b506080820151816004015560a08201518160050160006101000a81548160ff02191690831515021790555050506000600260008673ffffffffffffffffffffffffffffffffffffffff1673ffffffffffffffffffffffffffffffffffffffff16815260200190815260200160002060006101000a81548160ff0219169083151502179055505b505050505050565b7f000000000000000000000000000000000000000000000000000000000000000073ffffffffffffffffffffffffffffffffffffffff163373ffffffffffffffffffffffffffffffffffffffff16146108c1576040517f08c379a00000000000000000000000000000000000000000000000000000000081526004016108b890611995565b60405180910390fd5b7f000000000000000000000000000000000000000000000000000000000000000073ffffffffffffffffffffffffffffffffffffffff163373ffffffffffffffffffffffffffffffffffffffff1614610946576040517f30cd747100000000000000000000000000000000000000000000000000000000815260040160405180910390fd5b60005b600080549050811015610a3257600115156000828154811061096e5761096d61149f565b5b906000526020600020906006020160050160009054906101000a900460ff16151503610a2557600081815481106109a8576109a761149f565b5b9060005260206000209060060201600080820160006109c79190610f63565b60018201600090556002820160006101000a81549073ffffffffffffffffffffffffffffffffffffffff0219169055600382016000610a069190610f63565b60048201600090556005820160006101000a81549060ff021916905550505b8080600101915050610949565b50610a3b610c89565b60003373ffffffffffffffffffffffffffffffffffffffff1647604051610a61906119e6565b60006040518083038185875af1925050503d8060008114610a9e576040519150601f19603f3d011682016040523d82523d6000602084013e610aa3565b606091505b5050905080610ae7576040517f08c379a0000000000000000000000000000000000000000000000000000000008152600401610ade90611a47565b60405180910390fd5b50565b600080600090505b600080549050811015610bb2578273ffffffffffffffffffffffffffffffffffffffff1660008281548110610b2a57610b2961149f565b5b906000526020600020906006020160020160009054906101000a900473ffffffffffffffffffffffffffffffffffffffff1673ffffffffffffffffffffffffffffffffffffffff1603610ba55760008181548110610b8b57610b8a61149f565b5b906000526020600020906006020160040154915050610bee565b8080600101915050610af2565b506040517f08c379a0000000000000000000000000000000000000000000000000000000008152600401610be590611ad9565b60405180910390fd5b919050565b60016020528060005260406000206000915090505481565b7f000000000000000000000000000000000000000000000000000000000000000081565b60026020528060005260406000206000915054906101000a900460ff1681565b600080610c5a610eba565b90506000670de0b6b3a76400008483610c739190611af9565b610c7d9190611b6a565b90508092505050919050565b60005b600080549050811015610eb7576000808281548110610cae57610cad61149f565b5b90600052602060002090600602016004015403610ea3576001600080549050610cd79190611b9b565b8114610e085760006001600080549050610cf19190611b9b565b81548110610d0257610d0161149f565b5b906000526020600020906006020160008281548110610d2457610d2361149f565b5b906000526020600020906006020160008201816000019081610d469190611be5565b50600182015481600101556002820160009054906101000a900473ffffffffffffffffffffffffffffffffffffffff168160020160006101000a81548173ffffffffffffffffffffffffffffffffffffffff021916908373ffffffffffffffffffffffffffffffffffffffff16021790555060038201816003019081610dcc9190611be5565b50600482015481600401556005820160009054906101000a900460ff168160050160006101000a81548160ff0219169083151502179055509050505b6000805480610e1a57610e19611ccd565b5b600190038181906000526020600020906006020160008082016000610e3f9190610f63565b60018201600090556002820160006101000a81549073ffffffffffffffffffffffffffffffffffffffff0219169055600382016000610e7e9190610f63565b60048201600090556005820160006101000a81549060ff021916905550509055610eb2565b8080610eae90611cfc565b9150505b610c8c565b50565b60008073ec852b2a009f49e4ee4ffeddedcf81a1ad1bbd6d905060008173ffffffffffffffffffffffffffffffffffffffff1663feaf968c6040518163ffffffff1660e01b815260040160a060405180830381865afa158015610f21573d6000803e3d6000fd5b505050506040513d601f19601f82011682018060405250810190610f459190611dd1565b5050509150506402540be40081610f5c9190611e4c565b9250505090565b508054610f6f906114fd565b6000825580601f10610f815750610fa0565b601f016020900490600052602060002090810190610f9f9190610fa3565b5b50565b5b80821115610fbc576000816000905550600101610fa4565b5090565b6000604051905090565b600080fd5b600080fd5b6000819050919050565b610fe781610fd4565b8114610ff257600080fd5b50565b60008135905061100481610fde565b92915050565b6000602082840312156110205761101f610fca565b5b600061102e84828501610ff5565b91505092915050565b600081519050919050565b600082825260208201905092915050565b60005b83811015611071578082015181840152602081019050611056565b60008484015250505050565b6000601f19601f8301169050919050565b600061109982611037565b6110a38185611042565b93506110b3818560208601611053565b6110bc8161107d565b840191505092915050565b6110d081610fd4565b82525050565b600073ffffffffffffffffffffffffffffffffffffffff82169050919050565b6000611101826110d6565b9050919050565b611111816110f6565b82525050565b60008115159050919050565b61112c81611117565b82525050565b600060c082019050818103600083015261114c818961108e565b905061115b60208301886110c7565b6111686040830187611108565b818103606083015261117a818661108e565b905061118960808301856110c7565b61119660a0830184611123565b979650505050505050565b600080fd5b600080fd5b7f4e487b7100000000000000000000000000000000000000000000000000000000600052604160045260246000fd5b6111e38261107d565b810181811067ffffffffffffffff82111715611202576112016111ab565b5b80604052505050565b6000611215610fc0565b905061122182826111da565b919050565b600067ffffffffffffffff821115611241576112406111ab565b5b61124a8261107d565b9050602081019050919050565b82818337600083830152505050565b600061127961127484611226565b61120b565b905082815260208101848484011115611295576112946111a6565b5b6112a0848285611257565b509392505050565b600082601f8301126112bd576112bc6111a1565b5b81356112cd848260208601611266565b91505092915050565b6112df816110f6565b81146112ea57600080fd5b50565b6000813590506112fc816112d6565b92915050565b600080600080600060a0868803121561131e5761131d610fca565b5b600086013567ffffffffffffffff81111561133c5761133b610fcf565b5b611348888289016112a8565b955050602061135988828901610ff5565b945050604061136a888289016112ed565b935050606086013567ffffffffffffffff81111561138b5761138a610fcf565b5b611397888289016112a8565b92505060806113a888828901610ff5565b9150509295509295909350565b6000602082840312156113cb576113ca610fca565b5b60006113d9848285016112ed565b91505092915050565b60006020820190506113f760008301846110c7565b92915050565b60006020820190506114126000830184611108565b92915050565b600060208201905061142d6000830184611123565b92915050565b7f4469646e27742073656e6420656e6f7567682100000000000000000000000000600082015250565b6000611469601383611042565b915061147482611433565b602082019050919050565b600060208201905081810360008301526114988161145c565b9050919050565b7f4e487b7100000000000000000000000000000000000000000000000000000000600052603260045260246000fd5b7f4e487b7100000000000000000000000000000000000000000000000000000000600052602260045260246000fd5b6000600282049050600182168061151557607f821691505b602082108103611528576115276114ce565b5b50919050565b7f4e487b7100000000000000000000000000000000000000000000000000000000600052601160045260246000fd5b600061156882610fd4565b915061157383610fd4565b925082820190508082111561158b5761158a61152e565b5b92915050565b600081905092915050565b60008190508160005260206000209050919050565b600081546115be816114fd565b6115c88186611591565b945060018216600081146115e357600181146115f85761162b565b60ff198316865281151582028601935061162b565b6116018561159c565b60005b8381101561162357815481890152600182019150602081019050611604565b838801955050505b50505092915050565b7f2c20000000000000000000000000000000000000000000000000000000000000600082015250565b600061166a600283611591565b915061167582611634565b600282019050919050565b600061168b82611037565b6116958185611591565b93506116a5818560208601611053565b80840191505092915050565b60006116bd82856115b1565b91506116c88261165d565b91506116d48284611680565b91508190509392505050565b60006020601f8301049050919050565b600082821b905092915050565b60006008830261172d7fffffffffffffffffffffffffffffffffffffffffffffffffffffffffffffffff826116f0565b61173786836116f0565b95508019841693508086168417925050509392505050565b6000819050919050565b600061177461176f61176a84610fd4565b61174f565b610fd4565b9050919050565b6000819050919050565b61178e83611759565b6117a261179a8261177b565b8484546116fd565b825550505050565b600090565b6117b76117aa565b6117c2818484611785565b505050565b5b818110156117e6576117db6000826117af565b6001810190506117c8565b5050565b601f82111561182b576117fc8161159c565b611805846116e0565b81016020851015611814578190505b611828611820856116e0565b8301826117c7565b50505b505050565b600082821c905092915050565b600061184e60001984600802611830565b1980831691505092915050565b6000611867838361183d565b9150826002028217905092915050565b61188082611037565b67ffffffffffffffff811115611899576118986111ab565b5b6118a382546114fd565b6118ae8282856117ea565b600060209050601f8311600181146118e157600084156118cf578287015190505b6118d9858261185b565b865550611941565b601f1984166118ef8661159c565b60005b82811015611917578489015182556001820191506020850194506020810190506118f2565b868310156119345784890151611930601f89168261183d565b8355505b6001600288020188555050505b505050505050565b7f53656e646572206973206e6f74206f776e657221000000000000000000000000600082015250565b600061197f601483611042565b915061198a82611949565b602082019050919050565b600060208201905081810360008301526119ae81611972565b9050919050565b600081905092915050565b50565b60006119d06000836119b5565b91506119db826119c0565b600082019050919050565b60006119f1826119c3565b9150819050919050565b7f43616c6c206661696c6564210000000000000000000000000000000000000000600082015250565b6000611a31600c83611042565b9150611a3c826119fb565b602082019050919050565b60006020820190508181036000830152611a6081611a24565b9050919050565b7f4d61696e74656e616e63652072657175657374206e6f7420726567697374657260008201527f6564210000000000000000000000000000000000000000000000000000000000602082015250565b6000611ac3602383611042565b9150611ace82611a67565b604082019050919050565b60006020820190508181036000830152611af281611ab6565b9050919050565b6000611b0482610fd4565b9150611b0f83610fd4565b9250828202611b1d81610fd4565b91508282048414831517611b3457611b3361152e565b5b5092915050565b7f4e487b7100000000000000000000000000000000000000000000000000000000600052601260045260246000fd5b6000611b7582610fd4565b9150611b8083610fd4565b925082611b9057611b8f611b3b565b5b828204905092915050565b6000611ba682610fd4565b9150611bb183610fd4565b9250828203905081811115611bc957611bc861152e565b5b92915050565b600081549050611bde816114fd565b9050919050565b818103611bf3575050611ccb565b611bfc82611bcf565b67ffffffffffffffff811115611c1557611c146111ab565b5b611c1f82546114fd565b611c2a8282856117ea565b6000601f831160018114611c595760008415611c47578287015490505b611c51858261185b565b865550611cc4565b601f198416611c678761159c565b9650611c728661159c565b60005b82811015611c9a57848901548255600182019150600185019450602081019050611c75565b86831015611cb75784890154611cb3601f89168261183d565b8355505b6001600288020188555050505b5050505050505b565b7f4e487b7100000000000000000000000000000000000000000000000000000000600052603160045260246000fd5b6000611d0782610fd4565b91507fffffffffffffffffffffffffffffffffffffffffffffffffffffffffffffffff8203611d3957611d3861152e565b5b600182019050919050565b600069ffffffffffffffffffff82169050919050565b611d6381611d44565b8114611d6e57600080fd5b50565b600081519050611d8081611d5a565b92915050565b6000819050919050565b611d9981611d86565b8114611da457600080fd5b50565b600081519050611db681611d90565b92915050565b600081519050611dcb81610fde565b92915050565b600080600080600060a08688031215611ded57611dec610fca565b5b6000611dfb88828901611d71565b9550506020611e0c88828901611da7565b9450506040611e1d88828901611dbc565b9350506060611e2e88828901611dbc565b9250506080611e3f88828901611d71565b9150509295509295909350565b6000611e5782611d86565b9150611e6283611d86565b9250828202611e7081611d86565b91507f80000000000000000000000000000000000000000000000000000000000000008414600084121615611ea857611ea761152e565b5b8282058414831517611ebd57611ebc61152e565b5b509291505056fea2646970667358221220d39db3a19d7db8caf7a28b20fa7775fc836a883d22bd76083951e5725336340964736f6c63430008180033",
  "linkReferences": {},
  "deployedLinkReferences": {}
}