{
  "_format": "hh-sol-artifact-1",
  "contractName": "Maintenance",
  "sourceName": "contracts/Maintenance.sol",
  "abi": [
    {
      "inputs": [],
      "stateMutability": "nonpayable",
      "type": "constructor"
    },
    {
      "inputs": [],
      "name": "NotOwner",
      "type": "error"
    },
    {
      "stateMutability": "payable",
      "type": "fallback"
    },
    {
      "inputs": [
        {
          "internalType": "string",
          "name": "_name",
          "type": "string"
        },
        {
          "internalType": "uint256",
          "name": "_apartment",
          "type": "uint256"
        },
        {
          "internalType": "address",
          "name": "_residentWallet",
          "type": "address"
        },
        {
          "internalType": "string",
          "name": "_description",
          "type": "string"
        },
        {
          "internalType": "uint256",
          "name": "_costInUsd",
          "type": "uint256"
        },
        {
          "internalType": "uint256",
          "name": "_priorityOrder",
          "type": "uint256"
        }
      ],
      "name": "addRequest",
      "outputs": [],
      "stateMutability": "nonpayable",
      "type": "function"
    },
    {
      "inputs": [
        {
          "internalType": "address",
          "name": "",
          "type": "address"
        }
      ],
      "name": "addressToAmountPayed",
      "outputs": [
        {
          "internalType": "uint256",
          "name": "",
          "type": "uint256"
        }
      ],
      "stateMutability": "view",
      "type": "function"
    },
    {
      "inputs": [],
      "name": "amountPaid",
      "outputs": [
        {
          "internalType": "uint256",
          "name": "",
          "type": "uint256"
        }
      ],
      "stateMutability": "view",
      "type": "function"
    },
    {
      "inputs": [],
      "name": "checkInDebt",
      "outputs": [
        {
          "internalType": "bool",
          "name": "",
          "type": "bool"
        }
      ],
      "stateMutability": "view",
      "type": "function"
    },
    {
      "inputs": [
        {
          "internalType": "address",
          "name": "_wallet",
          "type": "address"
        }
      ],
      "name": "getMaintenanceCostByAddress",
      "outputs": [
        {
          "internalType": "uint256",
          "name": "",
          "type": "uint256"
        }
      ],
      "stateMutability": "view",
      "type": "function"
    },
    {
      "inputs": [],
      "name": "getMaxPriority",
      "outputs": [
        {
          "internalType": "address",
          "name": "",
          "type": "address"
        }
      ],
      "stateMutability": "view",
      "type": "function"
    },
    {
      "inputs": [],
      "name": "i_owner",
      "outputs": [
        {
          "internalType": "address",
          "name": "",
          "type": "address"
        }
      ],
      "stateMutability": "view",
      "type": "function"
    },
    {
      "inputs": [
        {
          "internalType": "address",
          "name": "",
          "type": "address"
        }
      ],
      "name": "inDebt",
      "outputs": [
        {
          "internalType": "bool",
          "name": "",
          "type": "bool"
        }
      ],
      "stateMutability": "view",
      "type": "function"
    },
    {
      "inputs": [
        {
          "internalType": "uint256",
          "name": "",
          "type": "uint256"
        }
      ],
      "name": "maintenanceRequest",
      "outputs": [
        {
          "internalType": "string",
          "name": "name",
          "type": "string"
        },
        {
          "internalType": "uint256",
          "name": "apartment",
          "type": "uint256"
        },
        {
          "internalType": "address",
          "name": "residentWallet",
          "type": "address"
        },
        {
          "internalType": "string",
          "name": "description",
          "type": "string"
        },
        {
          "internalType": "uint256",
          "name": "costInUsd",
          "type": "uint256"
        },
        {
          "internalType": "uint256",
          "name": "priorityOrder",
          "type": "uint256"
        },
        {
          "internalType": "bool",
          "name": "paid",
          "type": "bool"
        }
      ],
      "stateMutability": "view",
      "type": "function"
    },
    {
      "inputs": [],
      "name": "pay",
      "outputs": [],
      "stateMutability": "payable",
      "type": "function"
    },
    {
      "inputs": [],
      "name": "withdraw",
      "outputs": [],
      "stateMutability": "nonpayable",
      "type": "function"
    },
    {
      "stateMutability": "payable",
      "type": "receive"
    }
  ],
  "bytecode": "0x60a060405234801561001057600080fd5b503373ffffffffffffffffffffffffffffffffffffffff1660808173ffffffffffffffffffffffffffffffffffffffff16815250506080516123ce61006e60003960008181610840015281816108ce0152610fae01526123ce6000f3fe6080604052600436106100a05760003560e01c80633ccfd60b116100645780633ccfd60b146101875780634e1aa9841461019e57806371c18fd8146101c7578063c3b753ed14610204578063dba6335f14610241578063ff1d239b1461026c576100af565b80630d20d986146100b957806317315266146100e45780631b9265b814610127578063216340c3146101315780632e4e1de71461015c576100af565b366100af576100ad6102a9565b005b6100b76102a9565b005b3480156100c557600080fd5b506100ce61048c565b6040516100db919061138e565b60405180910390f35b3480156100f057600080fd5b5061010b600480360381019061010691906113f3565b6104e0565b60405161011e9796959493929190611500565b60405180910390f35b61012f6102a9565b005b34801561013d57600080fd5b5061014661066f565b604051610153919061157d565b60405180910390f35b34801561016857600080fd5b506101716106b6565b60405161017e9190611598565b60405180910390f35b34801561019357600080fd5b5061019c61083e565b005b3480156101aa57600080fd5b506101c560048036038101906101c09190611714565b610afd565b005b3480156101d357600080fd5b506101ee60048036038101906101e991906117d9565b610e8b565b6040516101fb919061157d565b60405180910390f35b34801561021057600080fd5b5061022b600480360381019061022691906117d9565b610f94565b604051610238919061157d565b60405180910390f35b34801561024d57600080fd5b50610256610fac565b6040516102639190611598565b60405180910390f35b34801561027857600080fd5b50610293600480360381019061028e91906117d9565b610fd0565b6040516102a0919061138e565b60405180910390f35b60006102b433610e8b565b9050670de0b6b3a7640000816102ca9190611835565b6102d334610ff0565b1015610314576040517f08c379a000000000000000000000000000000000000000000000000000000000815260040161030b906118c3565b60405180910390fd5b34600160003373ffffffffffffffffffffffffffffffffffffffff1673ffffffffffffffffffffffffffffffffffffffff168152602001908152602001600020819055506000600260003373ffffffffffffffffffffffffffffffffffffffff1673ffffffffffffffffffffffffffffffffffffffff16815260200190815260200160002060006101000a81548160ff02191690831515021790555060005b600080549050811015610488573373ffffffffffffffffffffffffffffffffffffffff16600082815481106103eb576103ea6118e3565b5b906000526020600020906007020160020160009054906101000a900473ffffffffffffffffffffffffffffffffffffffff1673ffffffffffffffffffffffffffffffffffffffff160361047b5760016000828154811061044e5761044d6118e3565b5b906000526020600020906007020160060160006101000a81548160ff021916908315150217905550610488565b80806001019150506103b3565b5050565b6000600260003373ffffffffffffffffffffffffffffffffffffffff1673ffffffffffffffffffffffffffffffffffffffff16815260200190815260200160002060009054906101000a900460ff16905090565b600081815481106104f057600080fd5b906000526020600020906007020160009150905080600001805461051390611941565b80601f016020809104026020016040519081016040528092919081815260200182805461053f90611941565b801561058c5780601f106105615761010080835404028352916020019161058c565b820191906000526020600020905b81548152906001019060200180831161056f57829003601f168201915b5050505050908060010154908060020160009054906101000a900473ffffffffffffffffffffffffffffffffffffffff16908060030180546105cd90611941565b80601f01602080910402602001604051908101604052809291908181526020018280546105f990611941565b80156106465780601f1061061b57610100808354040283529160200191610646565b820191906000526020600020905b81548152906001019060200180831161062957829003601f168201915b5050505050908060040154908060050154908060060160009054906101000a900460ff16905087565b6000600160003373ffffffffffffffffffffffffffffffffffffffff1673ffffffffffffffffffffffffffffffffffffffff16815260200190815260200160002054905090565b600080600090506000808054905011610704576040517f08c379a00000000000000000000000000000000000000000000000000000000081526004016106fb906119be565b60405180910390fd5b60008060008154811061071a576107196118e3565b5b906000526020600020906007020160020160009054906101000a900473ffffffffffffffffffffffffffffffffffffffff1690506000808054905090505b600081111561083557600060018261077091906119de565b81548110610781576107806118e3565b5b90600052602060002090600702016005015483116108225760006001826107a891906119de565b815481106107b9576107b86118e3565b5b906000526020600020906007020160050154925060006001826107dc91906119de565b815481106107ed576107ec6118e3565b5b906000526020600020906007020160020160009054906101000a900473ffffffffffffffffffffffffffffffffffffffff1691505b808061082d90611a12565b915050610758565b50809250505090565b7f000000000000000000000000000000000000000000000000000000000000000073ffffffffffffffffffffffffffffffffffffffff163373ffffffffffffffffffffffffffffffffffffffff16146108cc576040517f08c379a00000000000000000000000000000000000000000000000000000000081526004016108c390611a87565b60405180910390fd5b7f000000000000000000000000000000000000000000000000000000000000000073ffffffffffffffffffffffffffffffffffffffff163373ffffffffffffffffffffffffffffffffffffffff1614610951576040517f30cd747100000000000000000000000000000000000000000000000000000000815260040160405180910390fd5b60005b600080549050811015610a45576001151560008281548110610979576109786118e3565b5b906000526020600020906007020160060160009054906101000a900460ff16151503610a3857600081815481106109b3576109b26118e3565b5b9060005260206000209060070201600080820160006109d29190611316565b60018201600090556002820160006101000a81549073ffffffffffffffffffffffffffffffffffffffff0219169055600382016000610a119190611316565b600482016000905560058201600090556006820160006101000a81549060ff021916905550505b8080600101915050610954565b50610a4e61102a565b60003373ffffffffffffffffffffffffffffffffffffffff1647604051610a7490611ad8565b60006040518083038185875af1925050503d8060008114610ab1576040519150601f19603f3d011682016040523d82523d6000602084013e610ab6565b606091505b5050905080610afa576040517f08c379a0000000000000000000000000000000000000000000000000000000008152600401610af190611b39565b60405180910390fd5b50565b60008110158015610b0f575060028111155b610b4e576040517f08c379a0000000000000000000000000000000000000000000000000000000008152600401610b4590611ba5565b60405180910390fd5b6000805b600080549050811015610cf9578573ffffffffffffffffffffffffffffffffffffffff1660008281548110610b8a57610b896118e3565b5b906000526020600020906007020160020160009054906101000a900473ffffffffffffffffffffffffffffffffffffffff1673ffffffffffffffffffffffffffffffffffffffff1603610cec578360008281548110610bec57610beb6118e3565b5b90600052602060002090600702016004016000828254610c0c9190611bc5565b9250508190555060008181548110610c2757610c266118e3565b5b906000526020600020906007020160030185604051602001610c4a929190611d19565b60405160208183030381529060405260008281548110610c6d57610c6c6118e3565b5b90600052602060002090600702016003019081610c8a9190611edf565b5060008181548110610c9f57610c9e6118e3565b5b906000526020600020906007020160050154831115610ce3578260008281548110610ccd57610ccc6118e3565b5b9060005260206000209060070201600501819055505b60019150610cf9565b8080600101915050610b52565b5080610e825760006040518060e001604052808981526020018881526020018773ffffffffffffffffffffffffffffffffffffffff1681526020018681526020018581526020018481526020016000151581525090806001815401808255809150506001900390600052602060002090600702016000909190919091506000820151816000019081610d8b9190611edf565b506020820151816001015560408201518160020160006101000a81548173ffffffffffffffffffffffffffffffffffffffff021916908373ffffffffffffffffffffffffffffffffffffffff1602179055506060820151816003019081610df29190611edf565b506080820151816004015560a0820151816005015560c08201518160060160006101000a81548160ff02191690831515021790555050506001600260008773ffffffffffffffffffffffffffffffffffffffff1673ffffffffffffffffffffffffffffffffffffffff16815260200190815260200160002060006101000a81548160ff0219169083151502179055505b50505050505050565b600080600090505b600080549050811015610f53578273ffffffffffffffffffffffffffffffffffffffff1660008281548110610ecb57610eca6118e3565b5b906000526020600020906007020160020160009054906101000a900473ffffffffffffffffffffffffffffffffffffffff1673ffffffffffffffffffffffffffffffffffffffff1603610f465760008181548110610f2c57610f2b6118e3565b5b906000526020600020906007020160040154915050610f8f565b8080600101915050610e93565b506040517f08c379a0000000000000000000000000000000000000000000000000000000008152600401610f8690612023565b60405180910390fd5b919050565b60016020528060005260406000206000915090505481565b7f000000000000000000000000000000000000000000000000000000000000000081565b60026020528060005260406000206000915054906101000a900460ff1681565b600080610ffb61126d565b90506000670de0b6b3a764000084836110149190611835565b61101e9190612072565b90508092505050919050565b60005b60008054905081101561126a57600080828154811061104f5761104e6118e3565b5b9060005260206000209060070201600401540361125657600160008054905061107891906119de565b81146111b3576000600160008054905061109291906119de565b815481106110a3576110a26118e3565b5b9060005260206000209060070201600082815481106110c5576110c46118e3565b5b9060005260206000209060070201600082018160000190816110e791906120b9565b50600182015481600101556002820160009054906101000a900473ffffffffffffffffffffffffffffffffffffffff168160020160006101000a81548173ffffffffffffffffffffffffffffffffffffffff021916908373ffffffffffffffffffffffffffffffffffffffff1602179055506003820181600301908161116d91906120b9565b5060048201548160040155600582015481600501556006820160009054906101000a900460ff168160060160006101000a81548160ff0219169083151502179055509050505b60008054806111c5576111c46121a1565b5b6001900381819060005260206000209060070201600080820160006111ea9190611316565b60018201600090556002820160006101000a81549073ffffffffffffffffffffffffffffffffffffffff02191690556003820160006112299190611316565b600482016000905560058201600090556006820160006101000a81549060ff021916905550509055611265565b8080611261906121d0565b9150505b61102d565b50565b60008073ec852b2a009f49e4ee4ffeddedcf81a1ad1bbd6d905060008173ffffffffffffffffffffffffffffffffffffffff1663feaf968c6040518163ffffffff1660e01b815260040160a060405180830381865afa1580156112d4573d6000803e3d6000fd5b505050506040513d601f19601f820116820180604052508101906112f891906122a5565b5050509150506402540be4008161130f9190612320565b9250505090565b50805461132290611941565b6000825580601f106113345750611353565b601f0160209004906000526020600020908101906113529190611356565b5b50565b5b8082111561136f576000816000905550600101611357565b5090565b60008115159050919050565b61138881611373565b82525050565b60006020820190506113a3600083018461137f565b92915050565b6000604051905090565b600080fd5b600080fd5b6000819050919050565b6113d0816113bd565b81146113db57600080fd5b50565b6000813590506113ed816113c7565b92915050565b600060208284031215611409576114086113b3565b5b6000611417848285016113de565b91505092915050565b600081519050919050565b600082825260208201905092915050565b60005b8381101561145a57808201518184015260208101905061143f565b60008484015250505050565b6000601f19601f8301169050919050565b600061148282611420565b61148c818561142b565b935061149c81856020860161143c565b6114a581611466565b840191505092915050565b6114b9816113bd565b82525050565b600073ffffffffffffffffffffffffffffffffffffffff82169050919050565b60006114ea826114bf565b9050919050565b6114fa816114df565b82525050565b600060e082019050818103600083015261151a818a611477565b905061152960208301896114b0565b61153660408301886114f1565b81810360608301526115488187611477565b905061155760808301866114b0565b61156460a08301856114b0565b61157160c083018461137f565b98975050505050505050565b600060208201905061159260008301846114b0565b92915050565b60006020820190506115ad60008301846114f1565b92915050565b600080fd5b600080fd5b7f4e487b7100000000000000000000000000000000000000000000000000000000600052604160045260246000fd5b6115f582611466565b810181811067ffffffffffffffff82111715611614576116136115bd565b5b80604052505050565b60006116276113a9565b905061163382826115ec565b919050565b600067ffffffffffffffff821115611653576116526115bd565b5b61165c82611466565b9050602081019050919050565b82818337600083830152505050565b600061168b61168684611638565b61161d565b9050828152602081018484840111156116a7576116a66115b8565b5b6116b2848285611669565b509392505050565b600082601f8301126116cf576116ce6115b3565b5b81356116df848260208601611678565b91505092915050565b6116f1816114df565b81146116fc57600080fd5b50565b60008135905061170e816116e8565b92915050565b60008060008060008060c08789031215611731576117306113b3565b5b600087013567ffffffffffffffff81111561174f5761174e6113b8565b5b61175b89828a016116ba565b965050602061176c89828a016113de565b955050604061177d89828a016116ff565b945050606087013567ffffffffffffffff81111561179e5761179d6113b8565b5b6117aa89828a016116ba565b93505060806117bb89828a016113de565b92505060a06117cc89828a016113de565b9150509295509295509295565b6000602082840312156117ef576117ee6113b3565b5b60006117fd848285016116ff565b91505092915050565b7f4e487b7100000000000000000000000000000000000000000000000000000000600052601160045260246000fd5b6000611840826113bd565b915061184b836113bd565b9250828202611859816113bd565b915082820484148315176118705761186f611806565b5b5092915050565b7f4469646e27742073656e6420656e6f7567682100000000000000000000000000600082015250565b60006118ad60138361142b565b91506118b882611877565b602082019050919050565b600060208201905081810360008301526118dc816118a0565b9050919050565b7f4e487b7100000000000000000000000000000000000000000000000000000000600052603260045260246000fd5b7f4e487b7100000000000000000000000000000000000000000000000000000000600052602260045260246000fd5b6000600282049050600182168061195957607f821691505b60208210810361196c5761196b611912565b5b50919050565b7f4e6f207265717565737473000000000000000000000000000000000000000000600082015250565b60006119a8600b8361142b565b91506119b382611972565b602082019050919050565b600060208201905081810360008301526119d78161199b565b9050919050565b60006119e9826113bd565b91506119f4836113bd565b9250828203905081811115611a0c57611a0b611806565b5b92915050565b6000611a1d826113bd565b915060008203611a3057611a2f611806565b5b600182039050919050565b7f53656e646572206973206e6f74206f776e657221000000000000000000000000600082015250565b6000611a7160148361142b565b9150611a7c82611a3b565b602082019050919050565b60006020820190508181036000830152611aa081611a64565b9050919050565b600081905092915050565b50565b6000611ac2600083611aa7565b9150611acd82611ab2565b600082019050919050565b6000611ae382611ab5565b9150819050919050565b7f43616c6c206661696c6564210000000000000000000000000000000000000000600082015250565b6000611b23600c8361142b565b9150611b2e82611aed565b602082019050919050565b60006020820190508181036000830152611b5281611b16565b9050919050565b7f5072696f72697479206d757374206265206265747765656e203020616e642032600082015250565b6000611b8f60208361142b565b9150611b9a82611b59565b602082019050919050565b60006020820190508181036000830152611bbe81611b82565b9050919050565b6000611bd0826113bd565b9150611bdb836113bd565b9250828201905080821115611bf357611bf2611806565b5b92915050565b600081905092915050565b60008190508160005260206000209050919050565b60008154611c2681611941565b611c308186611bf9565b94506001821660008114611c4b5760018114611c6057611c93565b60ff1983168652811515820286019350611c93565b611c6985611c04565b60005b83811015611c8b57815481890152600182019150602081019050611c6c565b838801955050505b50505092915050565b7f2c20000000000000000000000000000000000000000000000000000000000000600082015250565b6000611cd2600283611bf9565b9150611cdd82611c9c565b600282019050919050565b6000611cf382611420565b611cfd8185611bf9565b9350611d0d81856020860161143c565b80840191505092915050565b6000611d258285611c19565b9150611d3082611cc5565b9150611d3c8284611ce8565b91508190509392505050565b60006020601f8301049050919050565b600082821b905092915050565b600060088302611d957fffffffffffffffffffffffffffffffffffffffffffffffffffffffffffffffff82611d58565b611d9f8683611d58565b95508019841693508086168417925050509392505050565b6000819050919050565b6000611ddc611dd7611dd2846113bd565b611db7565b6113bd565b9050919050565b6000819050919050565b611df683611dc1565b611e0a611e0282611de3565b848454611d65565b825550505050565b600090565b611e1f611e12565b611e2a818484611ded565b505050565b5b81811015611e4e57611e43600082611e17565b600181019050611e30565b5050565b601f821115611e9357611e6481611c04565b611e6d84611d48565b81016020851015611e7c578190505b611e90611e8885611d48565b830182611e2f565b50505b505050565b600082821c905092915050565b6000611eb660001984600802611e98565b1980831691505092915050565b6000611ecf8383611ea5565b9150826002028217905092915050565b611ee882611420565b67ffffffffffffffff811115611f0157611f006115bd565b5b611f0b8254611941565b611f16828285611e52565b600060209050601f831160018114611f495760008415611f37578287015190505b611f418582611ec3565b865550611fa9565b601f198416611f5786611c04565b60005b82811015611f7f57848901518255600182019150602085019450602081019050611f5a565b86831015611f9c5784890151611f98601f891682611ea5565b8355505b6001600288020188555050505b505050505050565b7f4d61696e74656e616e63652072657175657374206e6f7420726567697374657260008201527f6564210000000000000000000000000000000000000000000000000000000000602082015250565b600061200d60238361142b565b915061201882611fb1565b604082019050919050565b6000602082019050818103600083015261203c81612000565b9050919050565b7f4e487b7100000000000000000000000000000000000000000000000000000000600052601260045260246000fd5b600061207d826113bd565b9150612088836113bd565b92508261209857612097612043565b5b828204905092915050565b6000815490506120b281611941565b9050919050565b8181036120c757505061219f565b6120d0826120a3565b67ffffffffffffffff8111156120e9576120e86115bd565b5b6120f38254611941565b6120fe828285611e52565b6000601f83116001811461212d576000841561211b578287015490505b6121258582611ec3565b865550612198565b601f19841661213b87611c04565b965061214686611c04565b60005b8281101561216e57848901548255600182019150600185019450602081019050612149565b8683101561218b5784890154612187601f891682611ea5565b8355505b6001600288020188555050505b5050505050505b565b7f4e487b7100000000000000000000000000000000000000000000000000000000600052603160045260246000fd5b60006121db826113bd565b91507fffffffffffffffffffffffffffffffffffffffffffffffffffffffffffffffff820361220d5761220c611806565b5b600182019050919050565b600069ffffffffffffffffffff82169050919050565b61223781612218565b811461224257600080fd5b50565b6000815190506122548161222e565b92915050565b6000819050919050565b61226d8161225a565b811461227857600080fd5b50565b60008151905061228a81612264565b92915050565b60008151905061229f816113c7565b92915050565b600080600080600060a086880312156122c1576122c06113b3565b5b60006122cf88828901612245565b95505060206122e08882890161227b565b94505060406122f188828901612290565b935050606061230288828901612290565b925050608061231388828901612245565b9150509295509295909350565b600061232b8261225a565b91506123368361225a565b92508282026123448161225a565b91507f8000000000000000000000000000000000000000000000000000000000000000841460008412161561237c5761237b611806565b5b828205841483151761239157612390611806565b5b509291505056fea26469706673582212202b3f0ceb495b6b796e1774a9cf94383311da9936af7b817b958480002177f11064736f6c63430008180033",
  "linkReferences": {},
  "deployedLinkReferences": {}
}