{
  "_format": "hh-sol-artifact-1",
  "contractName": "Bills",
  "sourceName": "contracts/Bills.sol",
  "abi": [
    {
      "inputs": [],
      "stateMutability": "nonpayable",
      "type": "constructor"
    },
    {
      "anonymous": false,
      "inputs": [
        {
          "indexed": true,
          "internalType": "address",
          "name": "sender",
          "type": "address"
        },
        {
          "indexed": false,
          "internalType": "uint256",
          "name": "value",
          "type": "uint256"
        }
      ],
      "name": "DepositReceived",
      "type": "event"
    },
    {
      "anonymous": false,
      "inputs": [
        {
          "indexed": true,
          "internalType": "address",
          "name": "recipient",
          "type": "address"
        },
        {
          "indexed": false,
          "internalType": "uint256",
          "name": "value",
          "type": "uint256"
        }
      ],
      "name": "PaymentSent",
      "type": "event"
    },
    {
      "inputs": [],
      "name": "contractBalance",
      "outputs": [
        {
          "internalType": "uint256",
          "name": "",
          "type": "uint256"
        }
      ],
      "stateMutability": "view",
      "type": "function"
    },
    {
      "inputs": [],
      "name": "depositForBills",
      "outputs": [],
      "stateMutability": "payable",
      "type": "function"
    },
    {
      "inputs": [],
      "name": "i_owner",
      "outputs": [
        {
          "internalType": "address payable",
          "name": "",
          "type": "address"
        }
      ],
      "stateMutability": "view",
      "type": "function"
    },
    {
      "inputs": [
        {
          "internalType": "address payable",
          "name": "_recipient",
          "type": "address"
        },
        {
          "internalType": "uint256",
          "name": "_value",
          "type": "uint256"
        }
      ],
      "name": "payBills",
      "outputs": [],
      "stateMutability": "nonpayable",
      "type": "function"
    },
    {
      "inputs": [
        {
          "internalType": "address",
          "name": "",
          "type": "address"
        }
      ],
      "name": "paymentsSent",
      "outputs": [
        {
          "internalType": "uint256",
          "name": "",
          "type": "uint256"
        }
      ],
      "stateMutability": "view",
      "type": "function"
    }
  ],
  "bytecode": "0x60a060405234801561001057600080fd5b503373ffffffffffffffffffffffffffffffffffffffff1660808173ffffffffffffffffffffffffffffffffffffffff16815250506080516107eb61006e6000396000818161011f01528181610365015261038901526107eb6000f3fe60806040526004361061004a5760003560e01c80638b7afe2e1461004f578063ce12b0461461007a578063d0fefcd6146100a3578063dba6335f146100e0578063e3aaf48e1461010b575b600080fd5b34801561005b57600080fd5b50610064610115565b604051610071919061047e565b60405180910390f35b34801561008657600080fd5b506100a1600480360381019061009c9190610528565b61011d565b005b3480156100af57600080fd5b506100ca60048036038101906100c591906105a6565b61034b565b6040516100d7919061047e565b60405180910390f35b3480156100ec57600080fd5b506100f5610363565b60405161010291906105e2565b60405180910390f35b610113610387565b005b600047905090565b7f000000000000000000000000000000000000000000000000000000000000000073ffffffffffffffffffffffffffffffffffffffff163373ffffffffffffffffffffffffffffffffffffffff16146101ab576040517f08c379a00000000000000000000000000000000000000000000000000000000081526004016101a29061065a565b60405180910390fd5b600073ffffffffffffffffffffffffffffffffffffffff168273ffffffffffffffffffffffffffffffffffffffff160361021a576040517f08c379a0000000000000000000000000000000000000000000000000000000008152600401610211906106c6565b60405180910390fd5b8047101561025d576040517f08c379a000000000000000000000000000000000000000000000000000000000815260040161025490610732565b60405180910390fd5b8173ffffffffffffffffffffffffffffffffffffffff166108fc829081150290604051600060405180830381858888f193505050501580156102a3573d6000803e3d6000fd5b50806000808473ffffffffffffffffffffffffffffffffffffffff1673ffffffffffffffffffffffffffffffffffffffff16815260200190815260200160002060008282546102f29190610781565b925050819055508173ffffffffffffffffffffffffffffffffffffffff167f47db2abce6d5fbcd80ffd9b4ba74dcde804a746ef732bc7f8a70fabfc912c5908260405161033f919061047e565b60405180910390a25050565b60006020528060005260406000206000915090505481565b7f000000000000000000000000000000000000000000000000000000000000000081565b7f000000000000000000000000000000000000000000000000000000000000000073ffffffffffffffffffffffffffffffffffffffff163373ffffffffffffffffffffffffffffffffffffffff1614610415576040517f08c379a000000000000000000000000000000000000000000000000000000000815260040161040c9061065a565b60405180910390fd5b3373ffffffffffffffffffffffffffffffffffffffff167f9936746a4565f9766fa768f88f56a7487c78780ac179562773d1c75c5269537e3460405161045b919061047e565b60405180910390a2565b6000819050919050565b61047881610465565b82525050565b6000602082019050610493600083018461046f565b92915050565b600080fd5b600073ffffffffffffffffffffffffffffffffffffffff82169050919050565b60006104c98261049e565b9050919050565b6104d9816104be565b81146104e457600080fd5b50565b6000813590506104f6816104d0565b92915050565b61050581610465565b811461051057600080fd5b50565b600081359050610522816104fc565b92915050565b6000806040838503121561053f5761053e610499565b5b600061054d858286016104e7565b925050602061055e85828601610513565b9150509250929050565b60006105738261049e565b9050919050565b61058381610568565b811461058e57600080fd5b50565b6000813590506105a08161057a565b92915050565b6000602082840312156105bc576105bb610499565b5b60006105ca84828501610591565b91505092915050565b6105dc816104be565b82525050565b60006020820190506105f760008301846105d3565b92915050565b600082825260208201905092915050565b7f53656e646572206973206e6f74206f776e657200000000000000000000000000600082015250565b60006106446013836105fd565b915061064f8261060e565b602082019050919050565b6000602082019050818103600083015261067381610637565b9050919050565b7f496e76616c69642077616c6c6574206164647265737300000000000000000000600082015250565b60006106b06016836105fd565b91506106bb8261067a565b602082019050919050565b600060208201905081810360008301526106df816106a3565b9050919050565b7f496e73756666696369656e742062616c616e6365000000000000000000000000600082015250565b600061071c6014836105fd565b9150610727826106e6565b602082019050919050565b6000602082019050818103600083015261074b8161070f565b9050919050565b7f4e487b7100000000000000000000000000000000000000000000000000000000600052601160045260246000fd5b600061078c82610465565b915061079783610465565b92508282019050808211156107af576107ae610752565b5b9291505056fea2646970667358221220f343e9a22d8b49182e61d52c855a8b850c7588a4d68865fa477334223c711c5964736f6c63430008180033",
  "linkReferences": {},
  "deployedLinkReferences": {}
}