{
  "_format": "hh-sol-artifact-1",
  "contractName": "Events",
  "sourceName": "contracts/Events.sol",
  "abi": [
    {
      "inputs": [
        {
          "internalType": "address",
          "name": "_tokenContractAddress",
          "type": "address"
        },
        {
          "internalType": "address",
          "name": "_rentContractAddress",
          "type": "address"
        }
      ],
      "stateMutability": "nonpayable",
      "type": "constructor"
    },
    {
      "inputs": [],
      "name": "NotOwner",
      "type": "error"
    },
    {
      "anonymous": false,
      "inputs": [
        {
          "indexed": true,
          "internalType": "address",
          "name": "sender",
          "type": "address"
        },
        {
          "indexed": false,
          "internalType": "uint256",
          "name": "value",
          "type": "uint256"
        }
      ],
      "name": "DepositReceived",
      "type": "event"
    },
    {
      "anonymous": false,
      "inputs": [
        {
          "indexed": true,
          "internalType": "address",
          "name": "recipient",
          "type": "address"
        },
        {
          "indexed": false,
          "internalType": "uint256",
          "name": "value",
          "type": "uint256"
        }
      ],
      "name": "PaymentSent",
      "type": "event"
    },
    {
      "inputs": [],
      "name": "contractBalance",
      "outputs": [
        {
          "internalType": "uint256",
          "name": "",
          "type": "uint256"
        }
      ],
      "stateMutability": "view",
      "type": "function"
    },
    {
      "inputs": [],
      "name": "depositForEvents",
      "outputs": [],
      "stateMutability": "payable",
      "type": "function"
    },
    {
      "inputs": [],
      "name": "getTotalResidents",
      "outputs": [
        {
          "internalType": "uint256",
          "name": "",
          "type": "uint256"
        }
      ],
      "stateMutability": "view",
      "type": "function"
    },
    {
      "inputs": [
        {
          "internalType": "address",
          "name": "",
          "type": "address"
        }
      ],
      "name": "hasVoted",
      "outputs": [
        {
          "internalType": "bool",
          "name": "",
          "type": "bool"
        }
      ],
      "stateMutability": "view",
      "type": "function"
    },
    {
      "inputs": [],
      "name": "i_owner",
      "outputs": [
        {
          "internalType": "address",
          "name": "",
          "type": "address"
        }
      ],
      "stateMutability": "view",
      "type": "function"
    },
    {
      "inputs": [],
      "name": "isApproved",
      "outputs": [
        {
          "internalType": "bool",
          "name": "",
          "type": "bool"
        }
      ],
      "stateMutability": "view",
      "type": "function"
    },
    {
      "inputs": [
        {
          "internalType": "address",
          "name": "",
          "type": "address"
        }
      ],
      "name": "paymentsSent",
      "outputs": [
        {
          "internalType": "uint256",
          "name": "",
          "type": "uint256"
        }
      ],
      "stateMutability": "view",
      "type": "function"
    },
    {
      "inputs": [],
      "name": "rentContract",
      "outputs": [
        {
          "internalType": "contract RentInterface",
          "name": "",
          "type": "address"
        }
      ],
      "stateMutability": "view",
      "type": "function"
    },
    {
      "inputs": [],
      "name": "tokenContract",
      "outputs": [
        {
          "internalType": "contract ERC20Token",
          "name": "",
          "type": "address"
        }
      ],
      "stateMutability": "view",
      "type": "function"
    },
    {
      "inputs": [],
      "name": "totalVoters",
      "outputs": [
        {
          "internalType": "uint256",
          "name": "",
          "type": "uint256"
        }
      ],
      "stateMutability": "view",
      "type": "function"
    },
    {
      "inputs": [
        {
          "internalType": "address payable",
          "name": "_recipient",
          "type": "address"
        },
        {
          "internalType": "uint256",
          "name": "_value",
          "type": "uint256"
        }
      ],
      "name": "transferForEventFunds",
      "outputs": [],
      "stateMutability": "nonpayable",
      "type": "function"
    },
    {
      "inputs": [],
      "name": "voteCount",
      "outputs": [
        {
          "internalType": "uint256",
          "name": "totalVoters",
          "type": "uint256"
        },
        {
          "internalType": "uint256",
          "name": "votedYes",
          "type": "uint256"
        },
        {
          "internalType": "uint256",
          "name": "votedNo",
          "type": "uint256"
        }
      ],
      "stateMutability": "view",
      "type": "function"
    },
    {
      "inputs": [],
      "name": "voteNo",
      "outputs": [],
      "stateMutability": "nonpayable",
      "type": "function"
    },
    {
      "inputs": [],
      "name": "voteYes",
      "outputs": [],
      "stateMutability": "nonpayable",
      "type": "function"
    }
  ],
  "bytecode": "0x60a06040523480156200001157600080fd5b506040516200189d3803806200189d83398181016040528101906200003791906200015e565b80600160006101000a81548173ffffffffffffffffffffffffffffffffffffffff021916908373ffffffffffffffffffffffffffffffffffffffff160217905550816000806101000a81548173ffffffffffffffffffffffffffffffffffffffff021916908373ffffffffffffffffffffffffffffffffffffffff1602179055503373ffffffffffffffffffffffffffffffffffffffff1660808173ffffffffffffffffffffffffffffffffffffffff16815250505050620001a5565b600080fd5b600073ffffffffffffffffffffffffffffffffffffffff82169050919050565b60006200012682620000f9565b9050919050565b620001388162000119565b81146200014457600080fd5b50565b60008151905062000158816200012d565b92915050565b60008060408385031215620001785762000177620000f4565b5b6000620001888582860162000147565b92505060206200019b8582860162000147565b9150509250929050565b6080516116c0620001dd600039600081816103ba0152818161044801528181610d0e01528181610d9c0152610e8901526116c06000f3fe6080604052600436106100dd5760003560e01c80638b7afe2e1161007f578063c638407111610059578063c638407114610278578063c9dc70dd146102a5578063d0fefcd6146102af578063dba6335f146102ec576100dd565b80638b7afe2e1461020b57806390cf581c14610236578063b6df18b71461024d576100dd565b80633a488eaa116100bb5780633a488eaa1461017357806341c12a701461019e57806355a373d6146101b55780635f5300ff146101e0576100dd565b806309eef43e146100e257806328f371aa1461011f57806337d5d81d1461014a575b600080fd5b3480156100ee57600080fd5b5061010960048036038101906101049190610f0e565b610317565b6040516101169190610f56565b60405180910390f35b34801561012b57600080fd5b50610134610337565b6040516101419190610f56565b60405180910390f35b34801561015657600080fd5b50610171600480360381019061016c9190610fe5565b6103b8565b005b34801561017f57600080fd5b506101886106b3565b6040516101959190611084565b60405180910390f35b3480156101aa57600080fd5b506101b36106d9565b005b3480156101c157600080fd5b506101ca61097a565b6040516101d791906110c0565b60405180910390f35b3480156101ec57600080fd5b506101f561099e565b60405161020291906110ea565b60405180910390f35b34801561021757600080fd5b506102206109ab565b60405161022d91906110ea565b60405180910390f35b34801561024257600080fd5b5061024b6109b3565b005b34801561025957600080fd5b50610262610c5c565b60405161026f91906110ea565b60405180910390f35b34801561028457600080fd5b5061028d610cf4565b60405161029c93929190611105565b60405180910390f35b6102ad610d0c565b005b3480156102bb57600080fd5b506102d660048036038101906102d19190610f0e565b610e6f565b6040516102e391906110ea565b60405180910390f35b3480156102f857600080fd5b50610301610e87565b60405161030e919061114b565b60405180910390f35b60026020528060005260406000206000915054906101000a900460ff1681565b600080610342610c5c565b61034a61099e565b1461038a576040517f08c379a0000000000000000000000000000000000000000000000000000000008152600401610381906111c3565b60405180910390fd5b60046000015460646004600101546103a29190611212565b6103ac9190611283565b90506032811191505090565b7f000000000000000000000000000000000000000000000000000000000000000073ffffffffffffffffffffffffffffffffffffffff163373ffffffffffffffffffffffffffffffffffffffff1614610446576040517f08c379a000000000000000000000000000000000000000000000000000000000815260040161043d90611300565b60405180910390fd5b7f000000000000000000000000000000000000000000000000000000000000000073ffffffffffffffffffffffffffffffffffffffff163373ffffffffffffffffffffffffffffffffffffffff16146104cb576040517f30cd747100000000000000000000000000000000000000000000000000000000815260040160405180910390fd5b6104d3610337565b610512576040517f08c379a00000000000000000000000000000000000000000000000000000000081526004016105099061136c565b60405180910390fd5b600073ffffffffffffffffffffffffffffffffffffffff168273ffffffffffffffffffffffffffffffffffffffff1603610581576040517f08c379a0000000000000000000000000000000000000000000000000000000008152600401610578906113d8565b60405180910390fd5b804710156105c4576040517f08c379a00000000000000000000000000000000000000000000000000000000081526004016105bb90611444565b60405180910390fd5b8173ffffffffffffffffffffffffffffffffffffffff166108fc829081150290604051600060405180830381858888f1935050505015801561060a573d6000803e3d6000fd5b5080600360008473ffffffffffffffffffffffffffffffffffffffff1673ffffffffffffffffffffffffffffffffffffffff168152602001908152602001600020600082825461065a9190611464565b925050819055508173ffffffffffffffffffffffffffffffffffffffff167f47db2abce6d5fbcd80ffd9b4ba74dcde804a746ef732bc7f8a70fabfc912c590826040516106a791906110ea565b60405180910390a25050565b600160009054906101000a900473ffffffffffffffffffffffffffffffffffffffff1681565b600260003373ffffffffffffffffffffffffffffffffffffffff1673ffffffffffffffffffffffffffffffffffffffff16815260200190815260200160002060009054906101000a900460ff1615610766576040517f08c379a000000000000000000000000000000000000000000000000000000000815260040161075d906114e4565b60405180910390fd5b6000600190508060008054906101000a900473ffffffffffffffffffffffffffffffffffffffff1673ffffffffffffffffffffffffffffffffffffffff166370a08231336040518263ffffffff1660e01b81526004016107c6919061114b565b602060405180830381865afa1580156107e3573d6000803e3d6000fd5b505050506040513d601f19601f820116820180604052508101906108079190611519565b1015610848576040517f08c379a000000000000000000000000000000000000000000000000000000000815260040161083f90611592565b60405180910390fd5b60008054906101000a900473ffffffffffffffffffffffffffffffffffffffff1673ffffffffffffffffffffffffffffffffffffffff1663beabacc83330846040518463ffffffff1660e01b81526004016108a5939291906115b2565b6020604051808303816000875af11580156108c4573d6000803e3d6000fd5b505050506040513d601f19601f820116820180604052508101906108e89190611615565b506001600260003373ffffffffffffffffffffffffffffffffffffffff1673ffffffffffffffffffffffffffffffffffffffff16815260200190815260200160002060006101000a81548160ff0219169083151502179055506004600001600081548092919061095790611642565b91905055506004600201600081548092919061097290611642565b919050555050565b60008054906101000a900473ffffffffffffffffffffffffffffffffffffffff1681565b6000600460000154905090565b600047905090565b600260003373ffffffffffffffffffffffffffffffffffffffff1673ffffffffffffffffffffffffffffffffffffffff16815260200190815260200160002060009054906101000a900460ff1615610a40576040517f08c379a0000000000000000000000000000000000000000000000000000000008152600401610a37906114e4565b60405180910390fd5b6000600190508060008054906101000a900473ffffffffffffffffffffffffffffffffffffffff1673ffffffffffffffffffffffffffffffffffffffff166370a08231336040518263ffffffff1660e01b8152600401610aa0919061114b565b602060405180830381865afa158015610abd573d6000803e3d6000fd5b505050506040513d601f19601f82011682018060405250810190610ae19190611519565b1015610b22576040517f08c379a0000000000000000000000000000000000000000000000000000000008152600401610b1990611592565b60405180910390fd5b60008054906101000a900473ffffffffffffffffffffffffffffffffffffffff1673ffffffffffffffffffffffffffffffffffffffff1663beabacc83330846040518463ffffffff1660e01b8152600401610b7f939291906115b2565b6020604051808303816000875af1158015610b9e573d6000803e3d6000fd5b505050506040513d601f19601f82011682018060405250810190610bc29190611615565b610bcb57600080fd5b6001600260003373ffffffffffffffffffffffffffffffffffffffff1673ffffffffffffffffffffffffffffffffffffffff16815260200190815260200160002060006101000a81548160ff02191690831515021790555060046000016000815480929190610c3990611642565b919050555060046001016000815480929190610c5490611642565b919050555050565b6000600160009054906101000a900473ffffffffffffffffffffffffffffffffffffffff1673ffffffffffffffffffffffffffffffffffffffff1663b6df18b76040518163ffffffff1660e01b8152600401602060405180830381865afa158015610ccb573d6000803e3d6000fd5b505050506040513d601f19601f82011682018060405250810190610cef9190611519565b905090565b60048060000154908060010154908060020154905083565b7f000000000000000000000000000000000000000000000000000000000000000073ffffffffffffffffffffffffffffffffffffffff163373ffffffffffffffffffffffffffffffffffffffff1614610d9a576040517f08c379a0000000000000000000000000000000000000000000000000000000008152600401610d9190611300565b60405180910390fd5b7f000000000000000000000000000000000000000000000000000000000000000073ffffffffffffffffffffffffffffffffffffffff163373ffffffffffffffffffffffffffffffffffffffff1614610e1f576040517f30cd747100000000000000000000000000000000000000000000000000000000815260040160405180910390fd5b3373ffffffffffffffffffffffffffffffffffffffff167f9936746a4565f9766fa768f88f56a7487c78780ac179562773d1c75c5269537e34604051610e6591906110ea565b60405180910390a2565b60036020528060005260406000206000915090505481565b7f000000000000000000000000000000000000000000000000000000000000000081565b600080fd5b600073ffffffffffffffffffffffffffffffffffffffff82169050919050565b6000610edb82610eb0565b9050919050565b610eeb81610ed0565b8114610ef657600080fd5b50565b600081359050610f0881610ee2565b92915050565b600060208284031215610f2457610f23610eab565b5b6000610f3284828501610ef9565b91505092915050565b60008115159050919050565b610f5081610f3b565b82525050565b6000602082019050610f6b6000830184610f47565b92915050565b6000610f7c82610eb0565b9050919050565b610f8c81610f71565b8114610f9757600080fd5b50565b600081359050610fa981610f83565b92915050565b6000819050919050565b610fc281610faf565b8114610fcd57600080fd5b50565b600081359050610fdf81610fb9565b92915050565b60008060408385031215610ffc57610ffb610eab565b5b600061100a85828601610f9a565b925050602061101b85828601610fd0565b9150509250929050565b6000819050919050565b600061104a61104561104084610eb0565b611025565b610eb0565b9050919050565b600061105c8261102f565b9050919050565b600061106e82611051565b9050919050565b61107e81611063565b82525050565b60006020820190506110996000830184611075565b92915050565b60006110aa82611051565b9050919050565b6110ba8161109f565b82525050565b60006020820190506110d560008301846110b1565b92915050565b6110e481610faf565b82525050565b60006020820190506110ff60008301846110db565b92915050565b600060608201905061111a60008301866110db565b61112760208301856110db565b61113460408301846110db565b949350505050565b61114581610ed0565b82525050565b6000602082019050611160600083018461113c565b92915050565b600082825260208201905092915050565b7f4e6f742065766572796f6e652068617320766f74656400000000000000000000600082015250565b60006111ad601683611166565b91506111b882611177565b602082019050919050565b600060208201905081810360008301526111dc816111a0565b9050919050565b7f4e487b7100000000000000000000000000000000000000000000000000000000600052601160045260246000fd5b600061121d82610faf565b915061122883610faf565b925082820261123681610faf565b9150828204841483151761124d5761124c6111e3565b5b5092915050565b7f4e487b7100000000000000000000000000000000000000000000000000000000600052601260045260246000fd5b600061128e82610faf565b915061129983610faf565b9250826112a9576112a8611254565b5b828204905092915050565b7f53656e646572206973206e6f74206f776e657221000000000000000000000000600082015250565b60006112ea601483611166565b91506112f5826112b4565b602082019050919050565b60006020820190508181036000830152611319816112dd565b9050919050565b7f4576656e7420686173206e6f74206265656e20617070726f7665640000000000600082015250565b6000611356601b83611166565b915061136182611320565b602082019050919050565b6000602082019050818103600083015261138581611349565b9050919050565b7f496e76616c69642077616c6c6574206164647265737300000000000000000000600082015250565b60006113c2601683611166565b91506113cd8261138c565b602082019050919050565b600060208201905081810360008301526113f1816113b5565b9050919050565b7f496e73756666696369656e742062616c616e6365000000000000000000000000600082015250565b600061142e601483611166565b9150611439826113f8565b602082019050919050565b6000602082019050818103600083015261145d81611421565b9050919050565b600061146f82610faf565b915061147a83610faf565b9250828201905080821115611492576114916111e3565b5b92915050565b7f596f75206861766520616c726561647920766f7465642e000000000000000000600082015250565b60006114ce601783611166565b91506114d982611498565b602082019050919050565b600060208201905081810360008301526114fd816114c1565b9050919050565b60008151905061151381610fb9565b92915050565b60006020828403121561152f5761152e610eab565b5b600061153d84828501611504565b91505092915050565b7f496e73756666696369656e742062616c616e636520746f20766f74652e000000600082015250565b600061157c601d83611166565b915061158782611546565b602082019050919050565b600060208201905081810360008301526115ab8161156f565b9050919050565b60006060820190506115c7600083018661113c565b6115d4602083018561113c565b6115e160408301846110db565b949350505050565b6115f281610f3b565b81146115fd57600080fd5b50565b60008151905061160f816115e9565b92915050565b60006020828403121561162b5761162a610eab565b5b600061163984828501611600565b91505092915050565b600061164d82610faf565b91507fffffffffffffffffffffffffffffffffffffffffffffffffffffffffffffffff820361167f5761167e6111e3565b5b60018201905091905056fea2646970667358221220a6b773322fe22fa46c78ee47bd035cb4519ba4c0d2b68c9c6a98dab7fce0e50164736f6c63430008180033",
  "linkReferences": {},
  "deployedLinkReferences": {}
}