{"contracts/Maintenance.sol":{"Maintenance":{"abi":[{"inputs":[],"stateMutability":"nonpayable","type":"constructor"},{"inputs":[],"name":"NotOwner","type":"error"},{"stateMutability":"payable","type":"fallback"},{"inputs":[{"internalType":"string","name":"_name","type":"string"},{"internalType":"uint256","name":"_apartment","type":"uint256"},{"internalType":"address","name":"_residentWallet","type":"address"},{"internalType":"string","name":"_description","type":"string"},{"internalType":"uint256","name":"_costInUsd","type":"uint256"}],"name":"addRequest","outputs":[],"stateMutability":"nonpayable","type":"function"},{"inputs":[{"internalType":"address","name":"","type":"address"}],"name":"addressToAmountPayed","outputs":[{"internalType":"uint256","name":"","type":"uint256"}],"stateMutability":"view","type":"function"},{"inputs":[{"internalType":"address","name":"_wallet","type":"address"}],"name":"getMaintenanceCostByAddress","outputs":[{"internalType":"uint256","name":"","type":"uint256"}],"stateMutability":"view","type":"function"},{"inputs":[{"internalType":"address","name":"","type":"address"}],"name":"hasPaid","outputs":[{"internalType":"bool","name":"","type":"bool"}],"stateMutability":"view","type":"function"},{"inputs":[],"name":"i_owner","outputs":[{"internalType":"address","name":"","type":"address"}],"stateMutability":"view","type":"function"},{"inputs":[{"internalType":"uint256","name":"","type":"uint256"}],"name":"maintenanceRequest","outputs":[{"internalType":"string","name":"name","type":"string"},{"internalType":"uint256","name":"apartment","type":"uint256"},{"internalType":"address","name":"residentWallet","type":"address"},{"internalType":"string","name":"description","type":"string"},{"internalType":"uint256","name":"costInUsd","type":"uint256"},{"internalType":"bool","name":"paid","type":"bool"}],"stateMutability":"view","type":"function"},{"inputs":[],"name":"pay","outputs":[],"stateMutability":"payable","type":"function"},{"inputs":[],"name":"withdraw","outputs":[],"stateMutability":"nonpayable","type":"function"},{"stateMutability":"payable","type":"receive"}],"evm":{"bytecode":{"linkReferences":{},"object":"60a060405234801561001057600080fd5b503373ffffffffffffffffffffffffffffffffffffffff1660808173ffffffffffffffffffffffffffffffffffffffff1681525050608051611efa61006e60003960008181610835015281816108c30152610c0d0152611efa6000f3fe60806040526004361061007f5760003560e01c806371c18fd81161004e57806371c18fd814610124578063c3b753ed14610161578063dba6335f1461019e578063fbf47a9a146101c95761008e565b806317315266146100985780631b9265b8146100da578063204d398e146100e45780633ccfd60b1461010d5761008e565b3661008e5761008c610206565b005b610096610206565b005b3480156100a457600080fd5b506100bf60048036038101906100ba919061100a565b6103d6565b6040516100d196959493929190611132565b60405180910390f35b6100e2610206565b005b3480156100f057600080fd5b5061010b60048036038101906101069190611302565b61055f565b005b34801561011957600080fd5b50610122610833565b005b34801561013057600080fd5b5061014b600480360381019061014691906113b5565b610aea565b60405161015891906113e2565b60405180910390f35b34801561016d57600080fd5b50610188600480360381019061018391906113b5565b610bf3565b60405161019591906113e2565b60405180910390f35b3480156101aa57600080fd5b506101b3610c0b565b6040516101c091906113fd565b60405180910390f35b3480156101d557600080fd5b506101f060048036038101906101eb91906113b5565b610c2f565b6040516101fd9190611418565b60405180910390f35b600061021133610aea565b90508061021d34610c4f565b101561025e576040517f08c379a00000000000000000000000000000000000000000000000000000000081526004016102559061147f565b60405180910390fd5b34600160003373ffffffffffffffffffffffffffffffffffffffff1673ffffffffffffffffffffffffffffffffffffffff168152602001908152602001600020819055506000600260003373ffffffffffffffffffffffffffffffffffffffff1673ffffffffffffffffffffffffffffffffffffffff16815260200190815260200160002060006101000a81548160ff02191690831515021790555060005b6000805490508110156103d2573373ffffffffffffffffffffffffffffffffffffffff16600082815481106103355761033461149f565b5b906000526020600020906006020160020160009054906101000a900473ffffffffffffffffffffffffffffffffffffffff1673ffffffffffffffffffffffffffffffffffffffff16036103c5576001600082815481106103985761039761149f565b5b906000526020600020906006020160050160006101000a81548160ff0219169083151502179055506103d2565b80806001019150506102fd565b5050565b600081815481106103e657600080fd5b9060005260206000209060060201600091509050806000018054610409906114fd565b80601f0160208091040260200160405190810160405280929190818152602001828054610435906114fd565b80156104825780601f1061045757610100808354040283529160200191610482565b820191906000526020600020905b81548152906001019060200180831161046557829003601f168201915b5050505050908060010154908060020160009054906101000a900473ffffffffffffffffffffffffffffffffffffffff16908060030180546104c3906114fd565b80601f01602080910402602001604051908101604052809291908181526020018280546104ef906114fd565b801561053c5780601f106105115761010080835404028352916020019161053c565b820191906000526020600020905b81548152906001019060200180831161051f57829003601f168201915b5050505050908060040154908060050160009054906101000a900460ff16905086565b6000805b6000805490508110156106b2578473ffffffffffffffffffffffffffffffffffffffff166000828154811061059b5761059a61149f565b5b906000526020600020906006020160020160009054906101000a900473ffffffffffffffffffffffffffffffffffffffff1673ffffffffffffffffffffffffffffffffffffffff16036106a55782600082815481106105fd576105fc61149f565b5b9060005260206000209060060201600401600082825461061d919061155d565b92505081905550600081815481106106385761063761149f565b5b90600052602060002090600602016003018460405160200161065b9291906116b1565b6040516020818303038152906040526000828154811061067e5761067d61149f565b5b9060005260206000209060060201600301908161069b9190611877565b50600191506106b2565b8080600101915050610563565b508061082b5760006040518060c001604052808881526020018781526020018673ffffffffffffffffffffffffffffffffffffffff168152602001858152602001848152602001600015158152509080600181540180825580915050600190039060005260206000209060060201600090919091909150600082015181600001908161073e9190611877565b506020820151816001015560408201518160020160006101000a81548173ffffffffffffffffffffffffffffffffffffffff021916908373ffffffffffffffffffffffffffffffffffffffff16021790555060608201518160030190816107a59190611877565b506080820151816004015560a08201518160050160006101000a81548160ff02191690831515021790555050506000600260008673ffffffffffffffffffffffffffffffffffffffff1673ffffffffffffffffffffffffffffffffffffffff16815260200190815260200160002060006101000a81548160ff0219169083151502179055505b505050505050565b7f000000000000000000000000000000000000000000000000000000000000000073ffffffffffffffffffffffffffffffffffffffff163373ffffffffffffffffffffffffffffffffffffffff16146108c1576040517f08c379a00000000000000000000000000000000000000000000000000000000081526004016108b890611995565b60405180910390fd5b7f000000000000000000000000000000000000000000000000000000000000000073ffffffffffffffffffffffffffffffffffffffff163373ffffffffffffffffffffffffffffffffffffffff1614610946576040517f30cd747100000000000000000000000000000000000000000000000000000000815260040160405180910390fd5b60005b600080549050811015610a3257600115156000828154811061096e5761096d61149f565b5b906000526020600020906006020160050160009054906101000a900460ff16151503610a2557600081815481106109a8576109a761149f565b5b9060005260206000209060060201600080820160006109c79190610f63565b60018201600090556002820160006101000a81549073ffffffffffffffffffffffffffffffffffffffff0219169055600382016000610a069190610f63565b60048201600090556005820160006101000a81549060ff021916905550505b8080600101915050610949565b50610a3b610c89565b60003373ffffffffffffffffffffffffffffffffffffffff1647604051610a61906119e6565b60006040518083038185875af1925050503d8060008114610a9e576040519150601f19603f3d011682016040523d82523d6000602084013e610aa3565b606091505b5050905080610ae7576040517f08c379a0000000000000000000000000000000000000000000000000000000008152600401610ade90611a47565b60405180910390fd5b50565b600080600090505b600080549050811015610bb2578273ffffffffffffffffffffffffffffffffffffffff1660008281548110610b2a57610b2961149f565b5b906000526020600020906006020160020160009054906101000a900473ffffffffffffffffffffffffffffffffffffffff1673ffffffffffffffffffffffffffffffffffffffff1603610ba55760008181548110610b8b57610b8a61149f565b5b906000526020600020906006020160040154915050610bee565b8080600101915050610af2565b506040517f08c379a0000000000000000000000000000000000000000000000000000000008152600401610be590611ad9565b60405180910390fd5b919050565b60016020528060005260406000206000915090505481565b7f000000000000000000000000000000000000000000000000000000000000000081565b60026020528060005260406000206000915054906101000a900460ff1681565b600080610c5a610eba565b90506000670de0b6b3a76400008483610c739190611af9565b610c7d9190611b6a565b90508092505050919050565b60005b600080549050811015610eb7576000808281548110610cae57610cad61149f565b5b90600052602060002090600602016004015403610ea3576001600080549050610cd79190611b9b565b8114610e085760006001600080549050610cf19190611b9b565b81548110610d0257610d0161149f565b5b906000526020600020906006020160008281548110610d2457610d2361149f565b5b906000526020600020906006020160008201816000019081610d469190611be5565b50600182015481600101556002820160009054906101000a900473ffffffffffffffffffffffffffffffffffffffff168160020160006101000a81548173ffffffffffffffffffffffffffffffffffffffff021916908373ffffffffffffffffffffffffffffffffffffffff16021790555060038201816003019081610dcc9190611be5565b50600482015481600401556005820160009054906101000a900460ff168160050160006101000a81548160ff0219169083151502179055509050505b6000805480610e1a57610e19611ccd565b5b600190038181906000526020600020906006020160008082016000610e3f9190610f63565b60018201600090556002820160006101000a81549073ffffffffffffffffffffffffffffffffffffffff0219169055600382016000610e7e9190610f63565b60048201600090556005820160006101000a81549060ff021916905550509055610eb2565b8080610eae90611cfc565b9150505b610c8c565b50565b60008073ec852b2a009f49e4ee4ffeddedcf81a1ad1bbd6d905060008173ffffffffffffffffffffffffffffffffffffffff1663feaf968c6040518163ffffffff1660e01b815260040160a060405180830381865afa158015610f21573d6000803e3d6000fd5b505050506040513d601f19601f82011682018060405250810190610f459190611dd1565b5050509150506402540be40081610f5c9190611e4c565b9250505090565b508054610f6f906114fd565b6000825580601f10610f815750610fa0565b601f016020900490600052602060002090810190610f9f9190610fa3565b5b50565b5b80821115610fbc576000816000905550600101610fa4565b5090565b6000604051905090565b600080fd5b600080fd5b6000819050919050565b610fe781610fd4565b8114610ff257600080fd5b50565b60008135905061100481610fde565b92915050565b6000602082840312156110205761101f610fca565b5b600061102e84828501610ff5565b91505092915050565b600081519050919050565b600082825260208201905092915050565b60005b83811015611071578082015181840152602081019050611056565b60008484015250505050565b6000601f19601f8301169050919050565b600061109982611037565b6110a38185611042565b93506110b3818560208601611053565b6110bc8161107d565b840191505092915050565b6110d081610fd4565b82525050565b600073ffffffffffffffffffffffffffffffffffffffff82169050919050565b6000611101826110d6565b9050919050565b611111816110f6565b82525050565b60008115159050919050565b61112c81611117565b82525050565b600060c082019050818103600083015261114c818961108e565b905061115b60208301886110c7565b6111686040830187611108565b818103606083015261117a818661108e565b905061118960808301856110c7565b61119660a0830184611123565b979650505050505050565b600080fd5b600080fd5b7f4e487b7100000000000000000000000000000000000000000000000000000000600052604160045260246000fd5b6111e38261107d565b810181811067ffffffffffffffff82111715611202576112016111ab565b5b80604052505050565b6000611215610fc0565b905061122182826111da565b919050565b600067ffffffffffffffff821115611241576112406111ab565b5b61124a8261107d565b9050602081019050919050565b82818337600083830152505050565b600061127961127484611226565b61120b565b905082815260208101848484011115611295576112946111a6565b5b6112a0848285611257565b509392505050565b600082601f8301126112bd576112bc6111a1565b5b81356112cd848260208601611266565b91505092915050565b6112df816110f6565b81146112ea57600080fd5b50565b6000813590506112fc816112d6565b92915050565b600080600080600060a0868803121561131e5761131d610fca565b5b600086013567ffffffffffffffff81111561133c5761133b610fcf565b5b611348888289016112a8565b955050602061135988828901610ff5565b945050604061136a888289016112ed565b935050606086013567ffffffffffffffff81111561138b5761138a610fcf565b5b611397888289016112a8565b92505060806113a888828901610ff5565b9150509295509295909350565b6000602082840312156113cb576113ca610fca565b5b60006113d9848285016112ed565b91505092915050565b60006020820190506113f760008301846110c7565b92915050565b60006020820190506114126000830184611108565b92915050565b600060208201905061142d6000830184611123565b92915050565b7f4469646e27742073656e6420656e6f7567682100000000000000000000000000600082015250565b6000611469601383611042565b915061147482611433565b602082019050919050565b600060208201905081810360008301526114988161145c565b9050919050565b7f4e487b7100000000000000000000000000000000000000000000000000000000600052603260045260246000fd5b7f4e487b7100000000000000000000000000000000000000000000000000000000600052602260045260246000fd5b6000600282049050600182168061151557607f821691505b602082108103611528576115276114ce565b5b50919050565b7f4e487b7100000000000000000000000000000000000000000000000000000000600052601160045260246000fd5b600061156882610fd4565b915061157383610fd4565b925082820190508082111561158b5761158a61152e565b5b92915050565b600081905092915050565b60008190508160005260206000209050919050565b600081546115be816114fd565b6115c88186611591565b945060018216600081146115e357600181146115f85761162b565b60ff198316865281151582028601935061162b565b6116018561159c565b60005b8381101561162357815481890152600182019150602081019050611604565b838801955050505b50505092915050565b7f2c20000000000000000000000000000000000000000000000000000000000000600082015250565b600061166a600283611591565b915061167582611634565b600282019050919050565b600061168b82611037565b6116958185611591565b93506116a5818560208601611053565b80840191505092915050565b60006116bd82856115b1565b91506116c88261165d565b91506116d48284611680565b91508190509392505050565b60006020601f8301049050919050565b600082821b905092915050565b60006008830261172d7fffffffffffffffffffffffffffffffffffffffffffffffffffffffffffffffff826116f0565b61173786836116f0565b95508019841693508086168417925050509392505050565b6000819050919050565b600061177461176f61176a84610fd4565b61174f565b610fd4565b9050919050565b6000819050919050565b61178e83611759565b6117a261179a8261177b565b8484546116fd565b825550505050565b600090565b6117b76117aa565b6117c2818484611785565b505050565b5b818110156117e6576117db6000826117af565b6001810190506117c8565b5050565b601f82111561182b576117fc8161159c565b611805846116e0565b81016020851015611814578190505b611828611820856116e0565b8301826117c7565b50505b505050565b600082821c905092915050565b600061184e60001984600802611830565b1980831691505092915050565b6000611867838361183d565b9150826002028217905092915050565b61188082611037565b67ffffffffffffffff811115611899576118986111ab565b5b6118a382546114fd565b6118ae8282856117ea565b600060209050601f8311600181146118e157600084156118cf578287015190505b6118d9858261185b565b865550611941565b601f1984166118ef8661159c565b60005b82811015611917578489015182556001820191506020850194506020810190506118f2565b868310156119345784890151611930601f89168261183d565b8355505b6001600288020188555050505b505050505050565b7f53656e646572206973206e6f74206f776e657221000000000000000000000000600082015250565b600061197f601483611042565b915061198a82611949565b602082019050919050565b600060208201905081810360008301526119ae81611972565b9050919050565b600081905092915050565b50565b60006119d06000836119b5565b91506119db826119c0565b600082019050919050565b60006119f1826119c3565b9150819050919050565b7f43616c6c206661696c6564210000000000000000000000000000000000000000600082015250565b6000611a31600c83611042565b9150611a3c826119fb565b602082019050919050565b60006020820190508181036000830152611a6081611a24565b9050919050565b7f4d61696e74656e616e63652072657175657374206e6f7420726567697374657260008201527f6564210000000000000000000000000000000000000000000000000000000000602082015250565b6000611ac3602383611042565b9150611ace82611a67565b604082019050919050565b60006020820190508181036000830152611af281611ab6565b9050919050565b6000611b0482610fd4565b9150611b0f83610fd4565b9250828202611b1d81610fd4565b91508282048414831517611b3457611b3361152e565b5b5092915050565b7f4e487b7100000000000000000000000000000000000000000000000000000000600052601260045260246000fd5b6000611b7582610fd4565b9150611b8083610fd4565b925082611b9057611b8f611b3b565b5b828204905092915050565b6000611ba682610fd4565b9150611bb183610fd4565b9250828203905081811115611bc957611bc861152e565b5b92915050565b600081549050611bde816114fd565b9050919050565b818103611bf3575050611ccb565b611bfc82611bcf565b67ffffffffffffffff811115611c1557611c146111ab565b5b611c1f82546114fd565b611c2a8282856117ea565b6000601f831160018114611c595760008415611c47578287015490505b611c51858261185b565b865550611cc4565b601f198416611c678761159c565b9650611c728661159c565b60005b82811015611c9a57848901548255600182019150600185019450602081019050611c75565b86831015611cb75784890154611cb3601f89168261183d565b8355505b6001600288020188555050505b5050505050505b565b7f4e487b7100000000000000000000000000000000000000000000000000000000600052603160045260246000fd5b6000611d0782610fd4565b91507fffffffffffffffffffffffffffffffffffffffffffffffffffffffffffffffff8203611d3957611d3861152e565b5b600182019050919050565b600069ffffffffffffffffffff82169050919050565b611d6381611d44565b8114611d6e57600080fd5b50565b600081519050611d8081611d5a565b92915050565b6000819050919050565b611d9981611d86565b8114611da457600080fd5b50565b600081519050611db681611d90565b92915050565b600081519050611dcb81610fde565b92915050565b600080600080600060a08688031215611ded57611dec610fca565b5b6000611dfb88828901611d71565b9550506020611e0c88828901611da7565b9450506040611e1d88828901611dbc565b9350506060611e2e88828901611dbc565b9250506080611e3f88828901611d71565b9150509295509295909350565b6000611e5782611d86565b9150611e6283611d86565b9250828202611e7081611d86565b91507f80000000000000000000000000000000000000000000000000000000000000008414600084121615611ea857611ea761152e565b5b8282058414831517611ebd57611ebc61152e565b5b509291505056fea2646970667358221220d39db3a19d7db8caf7a28b20fa7775fc836a883d22bd76083951e5725336340964736f6c63430008180033","opcodes":"PUSH1 0xA0 PUSH1 0x40 MSTORE CALLVALUE DUP1 ISZERO PUSH2 0x10 JUMPI PUSH1 0x0 DUP1 REVERT JUMPDEST POP CALLER PUSH20 0xFFFFFFFFFFFFFFFFFFFFFFFFFFFFFFFFFFFFFFFF AND PUSH1 0x80 DUP2 PUSH20 0xFFFFFFFFFFFFFFFFFFFFFFFFFFFFFFFFFFFFFFFF AND DUP2 MSTORE POP POP PUSH1 0x80 MLOAD PUSH2 0x1EFA PUSH2 0x6E PUSH1 0x0 CODECOPY PUSH1 0x0 DUP2 DUP2 PUSH2 0x835 ADD MSTORE DUP2 DUP2 PUSH2 0x8C3 ADD MSTORE PUSH2 0xC0D ADD MSTORE PUSH2 0x1EFA PUSH1 0x0 RETURN INVALID PUSH1 0x80 PUSH1 0x40 MSTORE PUSH1 0x4 CALLDATASIZE LT PUSH2 0x7F JUMPI PUSH1 0x0 CALLDATALOAD PUSH1 0xE0 SHR DUP1 PUSH4 0x71C18FD8 GT PUSH2 0x4E JUMPI DUP1 PUSH4 0x71C18FD8 EQ PUSH2 0x124 JUMPI DUP1 PUSH4 0xC3B753ED EQ PUSH2 0x161 JUMPI DUP1 PUSH4 0xDBA6335F EQ PUSH2 0x19E JUMPI DUP1 PUSH4 0xFBF47A9A EQ PUSH2 0x1C9 JUMPI PUSH2 0x8E JUMP JUMPDEST DUP1 PUSH4 0x17315266 EQ PUSH2 0x98 JUMPI DUP1 PUSH4 0x1B9265B8 EQ PUSH2 0xDA JUMPI DUP1 PUSH4 0x204D398E EQ PUSH2 0xE4 JUMPI DUP1 PUSH4 0x3CCFD60B EQ PUSH2 0x10D JUMPI PUSH2 0x8E JUMP JUMPDEST CALLDATASIZE PUSH2 0x8E JUMPI PUSH2 0x8C PUSH2 0x206 JUMP JUMPDEST STOP JUMPDEST PUSH2 0x96 PUSH2 0x206 JUMP JUMPDEST STOP JUMPDEST CALLVALUE DUP1 ISZERO PUSH2 0xA4 JUMPI PUSH1 0x0 DUP1 REVERT JUMPDEST POP PUSH2 0xBF PUSH1 0x4 DUP1 CALLDATASIZE SUB DUP2 ADD SWAP1 PUSH2 0xBA SWAP2 SWAP1 PUSH2 0x100A JUMP JUMPDEST PUSH2 0x3D6 JUMP JUMPDEST PUSH1 0x40 MLOAD PUSH2 0xD1 SWAP7 SWAP6 SWAP5 SWAP4 SWAP3 SWAP2 SWAP1 PUSH2 0x1132 JUMP JUMPDEST PUSH1 0x40 MLOAD DUP1 SWAP2 SUB SWAP1 RETURN JUMPDEST PUSH2 0xE2 PUSH2 0x206 JUMP JUMPDEST STOP JUMPDEST CALLVALUE DUP1 ISZERO PUSH2 0xF0 JUMPI PUSH1 0x0 DUP1 REVERT JUMPDEST POP PUSH2 0x10B PUSH1 0x4 DUP1 CALLDATASIZE SUB DUP2 ADD SWAP1 PUSH2 0x106 SWAP2 SWAP1 PUSH2 0x1302 JUMP JUMPDEST PUSH2 0x55F JUMP JUMPDEST STOP JUMPDEST CALLVALUE DUP1 ISZERO PUSH2 0x119 JUMPI PUSH1 0x0 DUP1 REVERT JUMPDEST POP PUSH2 0x122 PUSH2 0x833 JUMP JUMPDEST STOP JUMPDEST CALLVALUE DUP1 ISZERO PUSH2 0x130 JUMPI PUSH1 0x0 DUP1 REVERT JUMPDEST POP PUSH2 0x14B PUSH1 0x4 DUP1 CALLDATASIZE SUB DUP2 ADD SWAP1 PUSH2 0x146 SWAP2 SWAP1 PUSH2 0x13B5 JUMP JUMPDEST PUSH2 0xAEA JUMP JUMPDEST PUSH1 0x40 MLOAD PUSH2 0x158 SWAP2 SWAP1 PUSH2 0x13E2 JUMP JUMPDEST PUSH1 0x40 MLOAD DUP1 SWAP2 SUB SWAP1 RETURN JUMPDEST CALLVALUE DUP1 ISZERO PUSH2 0x16D JUMPI PUSH1 0x0 DUP1 REVERT JUMPDEST POP PUSH2 0x188 PUSH1 0x4 DUP1 CALLDATASIZE SUB DUP2 ADD SWAP1 PUSH2 0x183 SWAP2 SWAP1 PUSH2 0x13B5 JUMP JUMPDEST PUSH2 0xBF3 JUMP JUMPDEST PUSH1 0x40 MLOAD PUSH2 0x195 SWAP2 SWAP1 PUSH2 0x13E2 JUMP JUMPDEST PUSH1 0x40 MLOAD DUP1 SWAP2 SUB SWAP1 RETURN JUMPDEST CALLVALUE DUP1 ISZERO PUSH2 0x1AA JUMPI PUSH1 0x0 DUP1 REVERT JUMPDEST POP PUSH2 0x1B3 PUSH2 0xC0B JUMP JUMPDEST PUSH1 0x40 MLOAD PUSH2 0x1C0 SWAP2 SWAP1 PUSH2 0x13FD JUMP JUMPDEST PUSH1 0x40 MLOAD DUP1 SWAP2 SUB SWAP1 RETURN JUMPDEST CALLVALUE DUP1 ISZERO PUSH2 0x1D5 JUMPI PUSH1 0x0 DUP1 REVERT JUMPDEST POP PUSH2 0x1F0 PUSH1 0x4 DUP1 CALLDATASIZE SUB DUP2 ADD SWAP1 PUSH2 0x1EB SWAP2 SWAP1 PUSH2 0x13B5 JUMP JUMPDEST PUSH2 0xC2F JUMP JUMPDEST PUSH1 0x40 MLOAD PUSH2 0x1FD SWAP2 SWAP1 PUSH2 0x1418 JUMP JUMPDEST PUSH1 0x40 MLOAD DUP1 SWAP2 SUB SWAP1 RETURN JUMPDEST PUSH1 0x0 PUSH2 0x211 CALLER PUSH2 0xAEA JUMP JUMPDEST SWAP1 POP DUP1 PUSH2 0x21D CALLVALUE PUSH2 0xC4F JUMP JUMPDEST LT ISZERO PUSH2 0x25E JUMPI PUSH1 0x40 MLOAD PUSH32 0x8C379A000000000000000000000000000000000000000000000000000000000 DUP2 MSTORE PUSH1 0x4 ADD PUSH2 0x255 SWAP1 PUSH2 0x147F JUMP JUMPDEST PUSH1 0x40 MLOAD DUP1 SWAP2 SUB SWAP1 REVERT JUMPDEST CALLVALUE PUSH1 0x1 PUSH1 0x0 CALLER PUSH20 0xFFFFFFFFFFFFFFFFFFFFFFFFFFFFFFFFFFFFFFFF AND PUSH20 0xFFFFFFFFFFFFFFFFFFFFFFFFFFFFFFFFFFFFFFFF AND DUP2 MSTORE PUSH1 0x20 ADD SWAP1 DUP2 MSTORE PUSH1 0x20 ADD PUSH1 0x0 KECCAK256 DUP2 SWAP1 SSTORE POP PUSH1 0x0 PUSH1 0x2 PUSH1 0x0 CALLER PUSH20 0xFFFFFFFFFFFFFFFFFFFFFFFFFFFFFFFFFFFFFFFF AND PUSH20 0xFFFFFFFFFFFFFFFFFFFFFFFFFFFFFFFFFFFFFFFF AND DUP2 MSTORE PUSH1 0x20 ADD SWAP1 DUP2 MSTORE PUSH1 0x20 ADD PUSH1 0x0 KECCAK256 PUSH1 0x0 PUSH2 0x100 EXP DUP2 SLOAD DUP2 PUSH1 0xFF MUL NOT AND SWAP1 DUP4 ISZERO ISZERO MUL OR SWAP1 SSTORE POP PUSH1 0x0 JUMPDEST PUSH1 0x0 DUP1 SLOAD SWAP1 POP DUP2 LT ISZERO PUSH2 0x3D2 JUMPI CALLER PUSH20 0xFFFFFFFFFFFFFFFFFFFFFFFFFFFFFFFFFFFFFFFF AND PUSH1 0x0 DUP3 DUP2 SLOAD DUP2 LT PUSH2 0x335 JUMPI PUSH2 0x334 PUSH2 0x149F JUMP JUMPDEST JUMPDEST SWAP1 PUSH1 0x0 MSTORE PUSH1 0x20 PUSH1 0x0 KECCAK256 SWAP1 PUSH1 0x6 MUL ADD PUSH1 0x2 ADD PUSH1 0x0 SWAP1 SLOAD SWAP1 PUSH2 0x100 EXP SWAP1 DIV PUSH20 0xFFFFFFFFFFFFFFFFFFFFFFFFFFFFFFFFFFFFFFFF AND PUSH20 0xFFFFFFFFFFFFFFFFFFFFFFFFFFFFFFFFFFFFFFFF AND SUB PUSH2 0x3C5 JUMPI PUSH1 0x1 PUSH1 0x0 DUP3 DUP2 SLOAD DUP2 LT PUSH2 0x398 JUMPI PUSH2 0x397 PUSH2 0x149F JUMP JUMPDEST JUMPDEST SWAP1 PUSH1 0x0 MSTORE PUSH1 0x20 PUSH1 0x0 KECCAK256 SWAP1 PUSH1 0x6 MUL ADD PUSH1 0x5 ADD PUSH1 0x0 PUSH2 0x100 EXP DUP2 SLOAD DUP2 PUSH1 0xFF MUL NOT AND SWAP1 DUP4 ISZERO ISZERO MUL OR SWAP1 SSTORE POP PUSH2 0x3D2 JUMP JUMPDEST DUP1 DUP1 PUSH1 0x1 ADD SWAP2 POP POP PUSH2 0x2FD JUMP JUMPDEST POP POP JUMP JUMPDEST PUSH1 0x0 DUP2 DUP2 SLOAD DUP2 LT PUSH2 0x3E6 JUMPI PUSH1 0x0 DUP1 REVERT JUMPDEST SWAP1 PUSH1 0x0 MSTORE PUSH1 0x20 PUSH1 0x0 KECCAK256 SWAP1 PUSH1 0x6 MUL ADD PUSH1 0x0 SWAP2 POP SWAP1 POP DUP1 PUSH1 0x0 ADD DUP1 SLOAD PUSH2 0x409 SWAP1 PUSH2 0x14FD JUMP JUMPDEST DUP1 PUSH1 0x1F ADD PUSH1 0x20 DUP1 SWAP2 DIV MUL PUSH1 0x20 ADD PUSH1 0x40 MLOAD SWAP1 DUP2 ADD PUSH1 0x40 MSTORE DUP1 SWAP3 SWAP2 SWAP1 DUP2 DUP2 MSTORE PUSH1 0x20 ADD DUP3 DUP1 SLOAD PUSH2 0x435 SWAP1 PUSH2 0x14FD JUMP JUMPDEST DUP1 ISZERO PUSH2 0x482 JUMPI DUP1 PUSH1 0x1F LT PUSH2 0x457 JUMPI PUSH2 0x100 DUP1 DUP4 SLOAD DIV MUL DUP4 MSTORE SWAP2 PUSH1 0x20 ADD SWAP2 PUSH2 0x482 JUMP JUMPDEST DUP3 ADD SWAP2 SWAP1 PUSH1 0x0 MSTORE PUSH1 0x20 PUSH1 0x0 KECCAK256 SWAP1 JUMPDEST DUP2 SLOAD DUP2 MSTORE SWAP1 PUSH1 0x1 ADD SWAP1 PUSH1 0x20 ADD DUP1 DUP4 GT PUSH2 0x465 JUMPI DUP3 SWAP1 SUB PUSH1 0x1F AND DUP3 ADD SWAP2 JUMPDEST POP POP POP POP POP SWAP1 DUP1 PUSH1 0x1 ADD SLOAD SWAP1 DUP1 PUSH1 0x2 ADD PUSH1 0x0 SWAP1 SLOAD SWAP1 PUSH2 0x100 EXP SWAP1 DIV PUSH20 0xFFFFFFFFFFFFFFFFFFFFFFFFFFFFFFFFFFFFFFFF AND SWAP1 DUP1 PUSH1 0x3 ADD DUP1 SLOAD PUSH2 0x4C3 SWAP1 PUSH2 0x14FD JUMP JUMPDEST DUP1 PUSH1 0x1F ADD PUSH1 0x20 DUP1 SWAP2 DIV MUL PUSH1 0x20 ADD PUSH1 0x40 MLOAD SWAP1 DUP2 ADD PUSH1 0x40 MSTORE DUP1 SWAP3 SWAP2 SWAP1 DUP2 DUP2 MSTORE PUSH1 0x20 ADD DUP3 DUP1 SLOAD PUSH2 0x4EF SWAP1 PUSH2 0x14FD JUMP JUMPDEST DUP1 ISZERO PUSH2 0x53C JUMPI DUP1 PUSH1 0x1F LT PUSH2 0x511 JUMPI PUSH2 0x100 DUP1 DUP4 SLOAD DIV MUL DUP4 MSTORE SWAP2 PUSH1 0x20 ADD SWAP2 PUSH2 0x53C JUMP JUMPDEST DUP3 ADD SWAP2 SWAP1 PUSH1 0x0 MSTORE PUSH1 0x20 PUSH1 0x0 KECCAK256 SWAP1 JUMPDEST DUP2 SLOAD DUP2 MSTORE SWAP1 PUSH1 0x1 ADD SWAP1 PUSH1 0x20 ADD DUP1 DUP4 GT PUSH2 0x51F JUMPI DUP3 SWAP1 SUB PUSH1 0x1F AND DUP3 ADD SWAP2 JUMPDEST POP POP POP POP POP SWAP1 DUP1 PUSH1 0x4 ADD SLOAD SWAP1 DUP1 PUSH1 0x5 ADD PUSH1 0x0 SWAP1 SLOAD SWAP1 PUSH2 0x100 EXP SWAP1 DIV PUSH1 0xFF AND SWAP1 POP DUP7 JUMP JUMPDEST PUSH1 0x0 DUP1 JUMPDEST PUSH1 0x0 DUP1 SLOAD SWAP1 POP DUP2 LT ISZERO PUSH2 0x6B2 JUMPI DUP5 PUSH20 0xFFFFFFFFFFFFFFFFFFFFFFFFFFFFFFFFFFFFFFFF AND PUSH1 0x0 DUP3 DUP2 SLOAD DUP2 LT PUSH2 0x59B JUMPI PUSH2 0x59A PUSH2 0x149F JUMP JUMPDEST JUMPDEST SWAP1 PUSH1 0x0 MSTORE PUSH1 0x20 PUSH1 0x0 KECCAK256 SWAP1 PUSH1 0x6 MUL ADD PUSH1 0x2 ADD PUSH1 0x0 SWAP1 SLOAD SWAP1 PUSH2 0x100 EXP SWAP1 DIV PUSH20 0xFFFFFFFFFFFFFFFFFFFFFFFFFFFFFFFFFFFFFFFF AND PUSH20 0xFFFFFFFFFFFFFFFFFFFFFFFFFFFFFFFFFFFFFFFF AND SUB PUSH2 0x6A5 JUMPI DUP3 PUSH1 0x0 DUP3 DUP2 SLOAD DUP2 LT PUSH2 0x5FD JUMPI PUSH2 0x5FC PUSH2 0x149F JUMP JUMPDEST JUMPDEST SWAP1 PUSH1 0x0 MSTORE PUSH1 0x20 PUSH1 0x0 KECCAK256 SWAP1 PUSH1 0x6 MUL ADD PUSH1 0x4 ADD PUSH1 0x0 DUP3 DUP3 SLOAD PUSH2 0x61D SWAP2 SWAP1 PUSH2 0x155D JUMP JUMPDEST SWAP3 POP POP DUP2 SWAP1 SSTORE POP PUSH1 0x0 DUP2 DUP2 SLOAD DUP2 LT PUSH2 0x638 JUMPI PUSH2 0x637 PUSH2 0x149F JUMP JUMPDEST JUMPDEST SWAP1 PUSH1 0x0 MSTORE PUSH1 0x20 PUSH1 0x0 KECCAK256 SWAP1 PUSH1 0x6 MUL ADD PUSH1 0x3 ADD DUP5 PUSH1 0x40 MLOAD PUSH1 0x20 ADD PUSH2 0x65B SWAP3 SWAP2 SWAP1 PUSH2 0x16B1 JUMP JUMPDEST PUSH1 0x40 MLOAD PUSH1 0x20 DUP2 DUP4 SUB SUB DUP2 MSTORE SWAP1 PUSH1 0x40 MSTORE PUSH1 0x0 DUP3 DUP2 SLOAD DUP2 LT PUSH2 0x67E JUMPI PUSH2 0x67D PUSH2 0x149F JUMP JUMPDEST JUMPDEST SWAP1 PUSH1 0x0 MSTORE PUSH1 0x20 PUSH1 0x0 KECCAK256 SWAP1 PUSH1 0x6 MUL ADD PUSH1 0x3 ADD SWAP1 DUP2 PUSH2 0x69B SWAP2 SWAP1 PUSH2 0x1877 JUMP JUMPDEST POP PUSH1 0x1 SWAP2 POP PUSH2 0x6B2 JUMP JUMPDEST DUP1 DUP1 PUSH1 0x1 ADD SWAP2 POP POP PUSH2 0x563 JUMP JUMPDEST POP DUP1 PUSH2 0x82B JUMPI PUSH1 0x0 PUSH1 0x40 MLOAD DUP1 PUSH1 0xC0 ADD PUSH1 0x40 MSTORE DUP1 DUP9 DUP2 MSTORE PUSH1 0x20 ADD DUP8 DUP2 MSTORE PUSH1 0x20 ADD DUP7 PUSH20 0xFFFFFFFFFFFFFFFFFFFFFFFFFFFFFFFFFFFFFFFF AND DUP2 MSTORE PUSH1 0x20 ADD DUP6 DUP2 MSTORE PUSH1 0x20 ADD DUP5 DUP2 MSTORE PUSH1 0x20 ADD PUSH1 0x0 ISZERO ISZERO DUP2 MSTORE POP SWAP1 DUP1 PUSH1 0x1 DUP2 SLOAD ADD DUP1 DUP3 SSTORE DUP1 SWAP2 POP POP PUSH1 0x1 SWAP1 SUB SWAP1 PUSH1 0x0 MSTORE PUSH1 0x20 PUSH1 0x0 KECCAK256 SWAP1 PUSH1 0x6 MUL ADD PUSH1 0x0 SWAP1 SWAP2 SWAP1 SWAP2 SWAP1 SWAP2 POP PUSH1 0x0 DUP3 ADD MLOAD DUP2 PUSH1 0x0 ADD SWAP1 DUP2 PUSH2 0x73E SWAP2 SWAP1 PUSH2 0x1877 JUMP JUMPDEST POP PUSH1 0x20 DUP3 ADD MLOAD DUP2 PUSH1 0x1 ADD SSTORE PUSH1 0x40 DUP3 ADD MLOAD DUP2 PUSH1 0x2 ADD PUSH1 0x0 PUSH2 0x100 EXP DUP2 SLOAD DUP2 PUSH20 0xFFFFFFFFFFFFFFFFFFFFFFFFFFFFFFFFFFFFFFFF MUL NOT AND SWAP1 DUP4 PUSH20 0xFFFFFFFFFFFFFFFFFFFFFFFFFFFFFFFFFFFFFFFF AND MUL OR SWAP1 SSTORE POP PUSH1 0x60 DUP3 ADD MLOAD DUP2 PUSH1 0x3 ADD SWAP1 DUP2 PUSH2 0x7A5 SWAP2 SWAP1 PUSH2 0x1877 JUMP JUMPDEST POP PUSH1 0x80 DUP3 ADD MLOAD DUP2 PUSH1 0x4 ADD SSTORE PUSH1 0xA0 DUP3 ADD MLOAD DUP2 PUSH1 0x5 ADD PUSH1 0x0 PUSH2 0x100 EXP DUP2 SLOAD DUP2 PUSH1 0xFF MUL NOT AND SWAP1 DUP4 ISZERO ISZERO MUL OR SWAP1 SSTORE POP POP POP PUSH1 0x0 PUSH1 0x2 PUSH1 0x0 DUP7 PUSH20 0xFFFFFFFFFFFFFFFFFFFFFFFFFFFFFFFFFFFFFFFF AND PUSH20 0xFFFFFFFFFFFFFFFFFFFFFFFFFFFFFFFFFFFFFFFF AND DUP2 MSTORE PUSH1 0x20 ADD SWAP1 DUP2 MSTORE PUSH1 0x20 ADD PUSH1 0x0 KECCAK256 PUSH1 0x0 PUSH2 0x100 EXP DUP2 SLOAD DUP2 PUSH1 0xFF MUL NOT AND SWAP1 DUP4 ISZERO ISZERO MUL OR SWAP1 SSTORE POP JUMPDEST POP POP POP POP POP POP JUMP JUMPDEST PUSH32 0x0 PUSH20 0xFFFFFFFFFFFFFFFFFFFFFFFFFFFFFFFFFFFFFFFF AND CALLER PUSH20 0xFFFFFFFFFFFFFFFFFFFFFFFFFFFFFFFFFFFFFFFF AND EQ PUSH2 0x8C1 JUMPI PUSH1 0x40 MLOAD PUSH32 0x8C379A000000000000000000000000000000000000000000000000000000000 DUP2 MSTORE PUSH1 0x4 ADD PUSH2 0x8B8 SWAP1 PUSH2 0x1995 JUMP JUMPDEST PUSH1 0x40 MLOAD DUP1 SWAP2 SUB SWAP1 REVERT JUMPDEST PUSH32 0x0 PUSH20 0xFFFFFFFFFFFFFFFFFFFFFFFFFFFFFFFFFFFFFFFF AND CALLER PUSH20 0xFFFFFFFFFFFFFFFFFFFFFFFFFFFFFFFFFFFFFFFF AND EQ PUSH2 0x946 JUMPI PUSH1 0x40 MLOAD PUSH32 0x30CD747100000000000000000000000000000000000000000000000000000000 DUP2 MSTORE PUSH1 0x4 ADD PUSH1 0x40 MLOAD DUP1 SWAP2 SUB SWAP1 REVERT JUMPDEST PUSH1 0x0 JUMPDEST PUSH1 0x0 DUP1 SLOAD SWAP1 POP DUP2 LT ISZERO PUSH2 0xA32 JUMPI PUSH1 0x1 ISZERO ISZERO PUSH1 0x0 DUP3 DUP2 SLOAD DUP2 LT PUSH2 0x96E JUMPI PUSH2 0x96D PUSH2 0x149F JUMP JUMPDEST JUMPDEST SWAP1 PUSH1 0x0 MSTORE PUSH1 0x20 PUSH1 0x0 KECCAK256 SWAP1 PUSH1 0x6 MUL ADD PUSH1 0x5 ADD PUSH1 0x0 SWAP1 SLOAD SWAP1 PUSH2 0x100 EXP SWAP1 DIV PUSH1 0xFF AND ISZERO ISZERO SUB PUSH2 0xA25 JUMPI PUSH1 0x0 DUP2 DUP2 SLOAD DUP2 LT PUSH2 0x9A8 JUMPI PUSH2 0x9A7 PUSH2 0x149F JUMP JUMPDEST JUMPDEST SWAP1 PUSH1 0x0 MSTORE PUSH1 0x20 PUSH1 0x0 KECCAK256 SWAP1 PUSH1 0x6 MUL ADD PUSH1 0x0 DUP1 DUP3 ADD PUSH1 0x0 PUSH2 0x9C7 SWAP2 SWAP1 PUSH2 0xF63 JUMP JUMPDEST PUSH1 0x1 DUP3 ADD PUSH1 0x0 SWAP1 SSTORE PUSH1 0x2 DUP3 ADD PUSH1 0x0 PUSH2 0x100 EXP DUP2 SLOAD SWAP1 PUSH20 0xFFFFFFFFFFFFFFFFFFFFFFFFFFFFFFFFFFFFFFFF MUL NOT AND SWAP1 SSTORE PUSH1 0x3 DUP3 ADD PUSH1 0x0 PUSH2 0xA06 SWAP2 SWAP1 PUSH2 0xF63 JUMP JUMPDEST PUSH1 0x4 DUP3 ADD PUSH1 0x0 SWAP1 SSTORE PUSH1 0x5 DUP3 ADD PUSH1 0x0 PUSH2 0x100 EXP DUP2 SLOAD SWAP1 PUSH1 0xFF MUL NOT AND SWAP1 SSTORE POP POP JUMPDEST DUP1 DUP1 PUSH1 0x1 ADD SWAP2 POP POP PUSH2 0x949 JUMP JUMPDEST POP PUSH2 0xA3B PUSH2 0xC89 JUMP JUMPDEST PUSH1 0x0 CALLER PUSH20 0xFFFFFFFFFFFFFFFFFFFFFFFFFFFFFFFFFFFFFFFF AND SELFBALANCE PUSH1 0x40 MLOAD PUSH2 0xA61 SWAP1 PUSH2 0x19E6 JUMP JUMPDEST PUSH1 0x0 PUSH1 0x40 MLOAD DUP1 DUP4 SUB DUP2 DUP6 DUP8 GAS CALL SWAP3 POP POP POP RETURNDATASIZE DUP1 PUSH1 0x0 DUP2 EQ PUSH2 0xA9E JUMPI PUSH1 0x40 MLOAD SWAP2 POP PUSH1 0x1F NOT PUSH1 0x3F RETURNDATASIZE ADD AND DUP3 ADD PUSH1 0x40 MSTORE RETURNDATASIZE DUP3 MSTORE RETURNDATASIZE PUSH1 0x0 PUSH1 0x20 DUP5 ADD RETURNDATACOPY PUSH2 0xAA3 JUMP JUMPDEST PUSH1 0x60 SWAP2 POP JUMPDEST POP POP SWAP1 POP DUP1 PUSH2 0xAE7 JUMPI PUSH1 0x40 MLOAD PUSH32 0x8C379A000000000000000000000000000000000000000000000000000000000 DUP2 MSTORE PUSH1 0x4 ADD PUSH2 0xADE SWAP1 PUSH2 0x1A47 JUMP JUMPDEST PUSH1 0x40 MLOAD DUP1 SWAP2 SUB SWAP1 REVERT JUMPDEST POP JUMP JUMPDEST PUSH1 0x0 DUP1 PUSH1 0x0 SWAP1 POP JUMPDEST PUSH1 0x0 DUP1 SLOAD SWAP1 POP DUP2 LT ISZERO PUSH2 0xBB2 JUMPI DUP3 PUSH20 0xFFFFFFFFFFFFFFFFFFFFFFFFFFFFFFFFFFFFFFFF AND PUSH1 0x0 DUP3 DUP2 SLOAD DUP2 LT PUSH2 0xB2A JUMPI PUSH2 0xB29 PUSH2 0x149F JUMP JUMPDEST JUMPDEST SWAP1 PUSH1 0x0 MSTORE PUSH1 0x20 PUSH1 0x0 KECCAK256 SWAP1 PUSH1 0x6 MUL ADD PUSH1 0x2 ADD PUSH1 0x0 SWAP1 SLOAD SWAP1 PUSH2 0x100 EXP SWAP1 DIV PUSH20 0xFFFFFFFFFFFFFFFFFFFFFFFFFFFFFFFFFFFFFFFF AND PUSH20 0xFFFFFFFFFFFFFFFFFFFFFFFFFFFFFFFFFFFFFFFF AND SUB PUSH2 0xBA5 JUMPI PUSH1 0x0 DUP2 DUP2 SLOAD DUP2 LT PUSH2 0xB8B JUMPI PUSH2 0xB8A PUSH2 0x149F JUMP JUMPDEST JUMPDEST SWAP1 PUSH1 0x0 MSTORE PUSH1 0x20 PUSH1 0x0 KECCAK256 SWAP1 PUSH1 0x6 MUL ADD PUSH1 0x4 ADD SLOAD SWAP2 POP POP PUSH2 0xBEE JUMP JUMPDEST DUP1 DUP1 PUSH1 0x1 ADD SWAP2 POP POP PUSH2 0xAF2 JUMP JUMPDEST POP PUSH1 0x40 MLOAD PUSH32 0x8C379A000000000000000000000000000000000000000000000000000000000 DUP2 MSTORE PUSH1 0x4 ADD PUSH2 0xBE5 SWAP1 PUSH2 0x1AD9 JUMP JUMPDEST PUSH1 0x40 MLOAD DUP1 SWAP2 SUB SWAP1 REVERT JUMPDEST SWAP2 SWAP1 POP JUMP JUMPDEST PUSH1 0x1 PUSH1 0x20 MSTORE DUP1 PUSH1 0x0 MSTORE PUSH1 0x40 PUSH1 0x0 KECCAK256 PUSH1 0x0 SWAP2 POP SWAP1 POP SLOAD DUP2 JUMP JUMPDEST PUSH32 0x0 DUP2 JUMP JUMPDEST PUSH1 0x2 PUSH1 0x20 MSTORE DUP1 PUSH1 0x0 MSTORE PUSH1 0x40 PUSH1 0x0 KECCAK256 PUSH1 0x0 SWAP2 POP SLOAD SWAP1 PUSH2 0x100 EXP SWAP1 DIV PUSH1 0xFF AND DUP2 JUMP JUMPDEST PUSH1 0x0 DUP1 PUSH2 0xC5A PUSH2 0xEBA JUMP JUMPDEST SWAP1 POP PUSH1 0x0 PUSH8 0xDE0B6B3A7640000 DUP5 DUP4 PUSH2 0xC73 SWAP2 SWAP1 PUSH2 0x1AF9 JUMP JUMPDEST PUSH2 0xC7D SWAP2 SWAP1 PUSH2 0x1B6A JUMP JUMPDEST SWAP1 POP DUP1 SWAP3 POP POP POP SWAP2 SWAP1 POP JUMP JUMPDEST PUSH1 0x0 JUMPDEST PUSH1 0x0 DUP1 SLOAD SWAP1 POP DUP2 LT ISZERO PUSH2 0xEB7 JUMPI PUSH1 0x0 DUP1 DUP3 DUP2 SLOAD DUP2 LT PUSH2 0xCAE JUMPI PUSH2 0xCAD PUSH2 0x149F JUMP JUMPDEST JUMPDEST SWAP1 PUSH1 0x0 MSTORE PUSH1 0x20 PUSH1 0x0 KECCAK256 SWAP1 PUSH1 0x6 MUL ADD PUSH1 0x4 ADD SLOAD SUB PUSH2 0xEA3 JUMPI PUSH1 0x1 PUSH1 0x0 DUP1 SLOAD SWAP1 POP PUSH2 0xCD7 SWAP2 SWAP1 PUSH2 0x1B9B JUMP JUMPDEST DUP2 EQ PUSH2 0xE08 JUMPI PUSH1 0x0 PUSH1 0x1 PUSH1 0x0 DUP1 SLOAD SWAP1 POP PUSH2 0xCF1 SWAP2 SWAP1 PUSH2 0x1B9B JUMP JUMPDEST DUP2 SLOAD DUP2 LT PUSH2 0xD02 JUMPI PUSH2 0xD01 PUSH2 0x149F JUMP JUMPDEST JUMPDEST SWAP1 PUSH1 0x0 MSTORE PUSH1 0x20 PUSH1 0x0 KECCAK256 SWAP1 PUSH1 0x6 MUL ADD PUSH1 0x0 DUP3 DUP2 SLOAD DUP2 LT PUSH2 0xD24 JUMPI PUSH2 0xD23 PUSH2 0x149F JUMP JUMPDEST JUMPDEST SWAP1 PUSH1 0x0 MSTORE PUSH1 0x20 PUSH1 0x0 KECCAK256 SWAP1 PUSH1 0x6 MUL ADD PUSH1 0x0 DUP3 ADD DUP2 PUSH1 0x0 ADD SWAP1 DUP2 PUSH2 0xD46 SWAP2 SWAP1 PUSH2 0x1BE5 JUMP JUMPDEST POP PUSH1 0x1 DUP3 ADD SLOAD DUP2 PUSH1 0x1 ADD SSTORE PUSH1 0x2 DUP3 ADD PUSH1 0x0 SWAP1 SLOAD SWAP1 PUSH2 0x100 EXP SWAP1 DIV PUSH20 0xFFFFFFFFFFFFFFFFFFFFFFFFFFFFFFFFFFFFFFFF AND DUP2 PUSH1 0x2 ADD PUSH1 0x0 PUSH2 0x100 EXP DUP2 SLOAD DUP2 PUSH20 0xFFFFFFFFFFFFFFFFFFFFFFFFFFFFFFFFFFFFFFFF MUL NOT AND SWAP1 DUP4 PUSH20 0xFFFFFFFFFFFFFFFFFFFFFFFFFFFFFFFFFFFFFFFF AND MUL OR SWAP1 SSTORE POP PUSH1 0x3 DUP3 ADD DUP2 PUSH1 0x3 ADD SWAP1 DUP2 PUSH2 0xDCC SWAP2 SWAP1 PUSH2 0x1BE5 JUMP JUMPDEST POP PUSH1 0x4 DUP3 ADD SLOAD DUP2 PUSH1 0x4 ADD SSTORE PUSH1 0x5 DUP3 ADD PUSH1 0x0 SWAP1 SLOAD SWAP1 PUSH2 0x100 EXP SWAP1 DIV PUSH1 0xFF AND DUP2 PUSH1 0x5 ADD PUSH1 0x0 PUSH2 0x100 EXP DUP2 SLOAD DUP2 PUSH1 0xFF MUL NOT AND SWAP1 DUP4 ISZERO ISZERO MUL OR SWAP1 SSTORE POP SWAP1 POP POP JUMPDEST PUSH1 0x0 DUP1 SLOAD DUP1 PUSH2 0xE1A JUMPI PUSH2 0xE19 PUSH2 0x1CCD JUMP JUMPDEST JUMPDEST PUSH1 0x1 SWAP1 SUB DUP2 DUP2 SWAP1 PUSH1 0x0 MSTORE PUSH1 0x20 PUSH1 0x0 KECCAK256 SWAP1 PUSH1 0x6 MUL ADD PUSH1 0x0 DUP1 DUP3 ADD PUSH1 0x0 PUSH2 0xE3F SWAP2 SWAP1 PUSH2 0xF63 JUMP JUMPDEST PUSH1 0x1 DUP3 ADD PUSH1 0x0 SWAP1 SSTORE PUSH1 0x2 DUP3 ADD PUSH1 0x0 PUSH2 0x100 EXP DUP2 SLOAD SWAP1 PUSH20 0xFFFFFFFFFFFFFFFFFFFFFFFFFFFFFFFFFFFFFFFF MUL NOT AND SWAP1 SSTORE PUSH1 0x3 DUP3 ADD PUSH1 0x0 PUSH2 0xE7E SWAP2 SWAP1 PUSH2 0xF63 JUMP JUMPDEST PUSH1 0x4 DUP3 ADD PUSH1 0x0 SWAP1 SSTORE PUSH1 0x5 DUP3 ADD PUSH1 0x0 PUSH2 0x100 EXP DUP2 SLOAD SWAP1 PUSH1 0xFF MUL NOT AND SWAP1 SSTORE POP POP SWAP1 SSTORE PUSH2 0xEB2 JUMP JUMPDEST DUP1 DUP1 PUSH2 0xEAE SWAP1 PUSH2 0x1CFC JUMP JUMPDEST SWAP2 POP POP JUMPDEST PUSH2 0xC8C JUMP JUMPDEST POP JUMP JUMPDEST PUSH1 0x0 DUP1 PUSH20 0xEC852B2A009F49E4EE4FFEDDEDCF81A1AD1BBD6D SWAP1 POP PUSH1 0x0 DUP2 PUSH20 0xFFFFFFFFFFFFFFFFFFFFFFFFFFFFFFFFFFFFFFFF AND PUSH4 0xFEAF968C PUSH1 0x40 MLOAD DUP2 PUSH4 0xFFFFFFFF AND PUSH1 0xE0 SHL DUP2 MSTORE PUSH1 0x4 ADD PUSH1 0xA0 PUSH1 0x40 MLOAD DUP1 DUP4 SUB DUP2 DUP7 GAS STATICCALL ISZERO DUP1 ISZERO PUSH2 0xF21 JUMPI RETURNDATASIZE PUSH1 0x0 DUP1 RETURNDATACOPY RETURNDATASIZE PUSH1 0x0 REVERT JUMPDEST POP POP POP POP PUSH1 0x40 MLOAD RETURNDATASIZE PUSH1 0x1F NOT PUSH1 0x1F DUP3 ADD AND DUP3 ADD DUP1 PUSH1 0x40 MSTORE POP DUP2 ADD SWAP1 PUSH2 0xF45 SWAP2 SWAP1 PUSH2 0x1DD1 JUMP JUMPDEST POP POP POP SWAP2 POP POP PUSH5 0x2540BE400 DUP2 PUSH2 0xF5C SWAP2 SWAP1 PUSH2 0x1E4C JUMP JUMPDEST SWAP3 POP POP POP SWAP1 JUMP JUMPDEST POP DUP1 SLOAD PUSH2 0xF6F SWAP1 PUSH2 0x14FD JUMP JUMPDEST PUSH1 0x0 DUP3 SSTORE DUP1 PUSH1 0x1F LT PUSH2 0xF81 JUMPI POP PUSH2 0xFA0 JUMP JUMPDEST PUSH1 0x1F ADD PUSH1 0x20 SWAP1 DIV SWAP1 PUSH1 0x0 MSTORE PUSH1 0x20 PUSH1 0x0 KECCAK256 SWAP1 DUP2 ADD SWAP1 PUSH2 0xF9F SWAP2 SWAP1 PUSH2 0xFA3 JUMP JUMPDEST JUMPDEST POP JUMP JUMPDEST JUMPDEST DUP1 DUP3 GT ISZERO PUSH2 0xFBC JUMPI PUSH1 0x0 DUP2 PUSH1 0x0 SWAP1 SSTORE POP PUSH1 0x1 ADD PUSH2 0xFA4 JUMP JUMPDEST POP SWAP1 JUMP JUMPDEST PUSH1 0x0 PUSH1 0x40 MLOAD SWAP1 POP SWAP1 JUMP JUMPDEST PUSH1 0x0 DUP1 REVERT JUMPDEST PUSH1 0x0 DUP1 REVERT JUMPDEST PUSH1 0x0 DUP2 SWAP1 POP SWAP2 SWAP1 POP JUMP JUMPDEST PUSH2 0xFE7 DUP2 PUSH2 0xFD4 JUMP JUMPDEST DUP2 EQ PUSH2 0xFF2 JUMPI PUSH1 0x0 DUP1 REVERT JUMPDEST POP JUMP JUMPDEST PUSH1 0x0 DUP2 CALLDATALOAD SWAP1 POP PUSH2 0x1004 DUP2 PUSH2 0xFDE JUMP JUMPDEST SWAP3 SWAP2 POP POP JUMP JUMPDEST PUSH1 0x0 PUSH1 0x20 DUP3 DUP5 SUB SLT ISZERO PUSH2 0x1020 JUMPI PUSH2 0x101F PUSH2 0xFCA JUMP JUMPDEST JUMPDEST PUSH1 0x0 PUSH2 0x102E DUP5 DUP3 DUP6 ADD PUSH2 0xFF5 JUMP JUMPDEST SWAP2 POP POP SWAP3 SWAP2 POP POP JUMP JUMPDEST PUSH1 0x0 DUP2 MLOAD SWAP1 POP SWAP2 SWAP1 POP JUMP JUMPDEST PUSH1 0x0 DUP3 DUP3 MSTORE PUSH1 0x20 DUP3 ADD SWAP1 POP SWAP3 SWAP2 POP POP JUMP JUMPDEST PUSH1 0x0 JUMPDEST DUP4 DUP2 LT ISZERO PUSH2 0x1071 JUMPI DUP1 DUP3 ADD MLOAD DUP2 DUP5 ADD MSTORE PUSH1 0x20 DUP2 ADD SWAP1 POP PUSH2 0x1056 JUMP JUMPDEST PUSH1 0x0 DUP5 DUP5 ADD MSTORE POP POP POP POP JUMP JUMPDEST PUSH1 0x0 PUSH1 0x1F NOT PUSH1 0x1F DUP4 ADD AND SWAP1 POP SWAP2 SWAP1 POP JUMP JUMPDEST PUSH1 0x0 PUSH2 0x1099 DUP3 PUSH2 0x1037 JUMP JUMPDEST PUSH2 0x10A3 DUP2 DUP6 PUSH2 0x1042 JUMP JUMPDEST SWAP4 POP PUSH2 0x10B3 DUP2 DUP6 PUSH1 0x20 DUP7 ADD PUSH2 0x1053 JUMP JUMPDEST PUSH2 0x10BC DUP2 PUSH2 0x107D JUMP JUMPDEST DUP5 ADD SWAP2 POP POP SWAP3 SWAP2 POP POP JUMP JUMPDEST PUSH2 0x10D0 DUP2 PUSH2 0xFD4 JUMP JUMPDEST DUP3 MSTORE POP POP JUMP JUMPDEST PUSH1 0x0 PUSH20 0xFFFFFFFFFFFFFFFFFFFFFFFFFFFFFFFFFFFFFFFF DUP3 AND SWAP1 POP SWAP2 SWAP1 POP JUMP JUMPDEST PUSH1 0x0 PUSH2 0x1101 DUP3 PUSH2 0x10D6 JUMP JUMPDEST SWAP1 POP SWAP2 SWAP1 POP JUMP JUMPDEST PUSH2 0x1111 DUP2 PUSH2 0x10F6 JUMP JUMPDEST DUP3 MSTORE POP POP JUMP JUMPDEST PUSH1 0x0 DUP2 ISZERO ISZERO SWAP1 POP SWAP2 SWAP1 POP JUMP JUMPDEST PUSH2 0x112C DUP2 PUSH2 0x1117 JUMP JUMPDEST DUP3 MSTORE POP POP JUMP JUMPDEST PUSH1 0x0 PUSH1 0xC0 DUP3 ADD SWAP1 POP DUP2 DUP2 SUB PUSH1 0x0 DUP4 ADD MSTORE PUSH2 0x114C DUP2 DUP10 PUSH2 0x108E JUMP JUMPDEST SWAP1 POP PUSH2 0x115B PUSH1 0x20 DUP4 ADD DUP9 PUSH2 0x10C7 JUMP JUMPDEST PUSH2 0x1168 PUSH1 0x40 DUP4 ADD DUP8 PUSH2 0x1108 JUMP JUMPDEST DUP2 DUP2 SUB PUSH1 0x60 DUP4 ADD MSTORE PUSH2 0x117A DUP2 DUP7 PUSH2 0x108E JUMP JUMPDEST SWAP1 POP PUSH2 0x1189 PUSH1 0x80 DUP4 ADD DUP6 PUSH2 0x10C7 JUMP JUMPDEST PUSH2 0x1196 PUSH1 0xA0 DUP4 ADD DUP5 PUSH2 0x1123 JUMP JUMPDEST SWAP8 SWAP7 POP POP POP POP POP POP POP JUMP JUMPDEST PUSH1 0x0 DUP1 REVERT JUMPDEST PUSH1 0x0 DUP1 REVERT JUMPDEST PUSH32 0x4E487B7100000000000000000000000000000000000000000000000000000000 PUSH1 0x0 MSTORE PUSH1 0x41 PUSH1 0x4 MSTORE PUSH1 0x24 PUSH1 0x0 REVERT JUMPDEST PUSH2 0x11E3 DUP3 PUSH2 0x107D JUMP JUMPDEST DUP2 ADD DUP2 DUP2 LT PUSH8 0xFFFFFFFFFFFFFFFF DUP3 GT OR ISZERO PUSH2 0x1202 JUMPI PUSH2 0x1201 PUSH2 0x11AB JUMP JUMPDEST JUMPDEST DUP1 PUSH1 0x40 MSTORE POP POP POP JUMP JUMPDEST PUSH1 0x0 PUSH2 0x1215 PUSH2 0xFC0 JUMP JUMPDEST SWAP1 POP PUSH2 0x1221 DUP3 DUP3 PUSH2 0x11DA JUMP JUMPDEST SWAP2 SWAP1 POP JUMP JUMPDEST PUSH1 0x0 PUSH8 0xFFFFFFFFFFFFFFFF DUP3 GT ISZERO PUSH2 0x1241 JUMPI PUSH2 0x1240 PUSH2 0x11AB JUMP JUMPDEST JUMPDEST PUSH2 0x124A DUP3 PUSH2 0x107D JUMP JUMPDEST SWAP1 POP PUSH1 0x20 DUP2 ADD SWAP1 POP SWAP2 SWAP1 POP JUMP JUMPDEST DUP3 DUP2 DUP4 CALLDATACOPY PUSH1 0x0 DUP4 DUP4 ADD MSTORE POP POP POP JUMP JUMPDEST PUSH1 0x0 PUSH2 0x1279 PUSH2 0x1274 DUP5 PUSH2 0x1226 JUMP JUMPDEST PUSH2 0x120B JUMP JUMPDEST SWAP1 POP DUP3 DUP2 MSTORE PUSH1 0x20 DUP2 ADD DUP5 DUP5 DUP5 ADD GT ISZERO PUSH2 0x1295 JUMPI PUSH2 0x1294 PUSH2 0x11A6 JUMP JUMPDEST JUMPDEST PUSH2 0x12A0 DUP5 DUP3 DUP6 PUSH2 0x1257 JUMP JUMPDEST POP SWAP4 SWAP3 POP POP POP JUMP JUMPDEST PUSH1 0x0 DUP3 PUSH1 0x1F DUP4 ADD SLT PUSH2 0x12BD JUMPI PUSH2 0x12BC PUSH2 0x11A1 JUMP JUMPDEST JUMPDEST DUP2 CALLDATALOAD PUSH2 0x12CD DUP5 DUP3 PUSH1 0x20 DUP7 ADD PUSH2 0x1266 JUMP JUMPDEST SWAP2 POP POP SWAP3 SWAP2 POP POP JUMP JUMPDEST PUSH2 0x12DF DUP2 PUSH2 0x10F6 JUMP JUMPDEST DUP2 EQ PUSH2 0x12EA JUMPI PUSH1 0x0 DUP1 REVERT JUMPDEST POP JUMP JUMPDEST PUSH1 0x0 DUP2 CALLDATALOAD SWAP1 POP PUSH2 0x12FC DUP2 PUSH2 0x12D6 JUMP JUMPDEST SWAP3 SWAP2 POP POP JUMP JUMPDEST PUSH1 0x0 DUP1 PUSH1 0x0 DUP1 PUSH1 0x0 PUSH1 0xA0 DUP7 DUP9 SUB SLT ISZERO PUSH2 0x131E JUMPI PUSH2 0x131D PUSH2 0xFCA JUMP JUMPDEST JUMPDEST PUSH1 0x0 DUP7 ADD CALLDATALOAD PUSH8 0xFFFFFFFFFFFFFFFF DUP2 GT ISZERO PUSH2 0x133C JUMPI PUSH2 0x133B PUSH2 0xFCF JUMP JUMPDEST JUMPDEST PUSH2 0x1348 DUP9 DUP3 DUP10 ADD PUSH2 0x12A8 JUMP JUMPDEST SWAP6 POP POP PUSH1 0x20 PUSH2 0x1359 DUP9 DUP3 DUP10 ADD PUSH2 0xFF5 JUMP JUMPDEST SWAP5 POP POP PUSH1 0x40 PUSH2 0x136A DUP9 DUP3 DUP10 ADD PUSH2 0x12ED JUMP JUMPDEST SWAP4 POP POP PUSH1 0x60 DUP7 ADD CALLDATALOAD PUSH8 0xFFFFFFFFFFFFFFFF DUP2 GT ISZERO PUSH2 0x138B JUMPI PUSH2 0x138A PUSH2 0xFCF JUMP JUMPDEST JUMPDEST PUSH2 0x1397 DUP9 DUP3 DUP10 ADD PUSH2 0x12A8 JUMP JUMPDEST SWAP3 POP POP PUSH1 0x80 PUSH2 0x13A8 DUP9 DUP3 DUP10 ADD PUSH2 0xFF5 JUMP JUMPDEST SWAP2 POP POP SWAP3 SWAP6 POP SWAP3 SWAP6 SWAP1 SWAP4 POP JUMP JUMPDEST PUSH1 0x0 PUSH1 0x20 DUP3 DUP5 SUB SLT ISZERO PUSH2 0x13CB JUMPI PUSH2 0x13CA PUSH2 0xFCA JUMP JUMPDEST JUMPDEST PUSH1 0x0 PUSH2 0x13D9 DUP5 DUP3 DUP6 ADD PUSH2 0x12ED JUMP JUMPDEST SWAP2 POP POP SWAP3 SWAP2 POP POP JUMP JUMPDEST PUSH1 0x0 PUSH1 0x20 DUP3 ADD SWAP1 POP PUSH2 0x13F7 PUSH1 0x0 DUP4 ADD DUP5 PUSH2 0x10C7 JUMP JUMPDEST SWAP3 SWAP2 POP POP JUMP JUMPDEST PUSH1 0x0 PUSH1 0x20 DUP3 ADD SWAP1 POP PUSH2 0x1412 PUSH1 0x0 DUP4 ADD DUP5 PUSH2 0x1108 JUMP JUMPDEST SWAP3 SWAP2 POP POP JUMP JUMPDEST PUSH1 0x0 PUSH1 0x20 DUP3 ADD SWAP1 POP PUSH2 0x142D PUSH1 0x0 DUP4 ADD DUP5 PUSH2 0x1123 JUMP JUMPDEST SWAP3 SWAP2 POP POP JUMP JUMPDEST PUSH32 0x4469646E27742073656E6420656E6F7567682100000000000000000000000000 PUSH1 0x0 DUP3 ADD MSTORE POP JUMP JUMPDEST PUSH1 0x0 PUSH2 0x1469 PUSH1 0x13 DUP4 PUSH2 0x1042 JUMP JUMPDEST SWAP2 POP PUSH2 0x1474 DUP3 PUSH2 0x1433 JUMP JUMPDEST PUSH1 0x20 DUP3 ADD SWAP1 POP SWAP2 SWAP1 POP JUMP JUMPDEST PUSH1 0x0 PUSH1 0x20 DUP3 ADD SWAP1 POP DUP2 DUP2 SUB PUSH1 0x0 DUP4 ADD MSTORE PUSH2 0x1498 DUP2 PUSH2 0x145C JUMP JUMPDEST SWAP1 POP SWAP2 SWAP1 POP JUMP JUMPDEST PUSH32 0x4E487B7100000000000000000000000000000000000000000000000000000000 PUSH1 0x0 MSTORE PUSH1 0x32 PUSH1 0x4 MSTORE PUSH1 0x24 PUSH1 0x0 REVERT JUMPDEST PUSH32 0x4E487B7100000000000000000000000000000000000000000000000000000000 PUSH1 0x0 MSTORE PUSH1 0x22 PUSH1 0x4 MSTORE PUSH1 0x24 PUSH1 0x0 REVERT JUMPDEST PUSH1 0x0 PUSH1 0x2 DUP3 DIV SWAP1 POP PUSH1 0x1 DUP3 AND DUP1 PUSH2 0x1515 JUMPI PUSH1 0x7F DUP3 AND SWAP2 POP JUMPDEST PUSH1 0x20 DUP3 LT DUP2 SUB PUSH2 0x1528 JUMPI PUSH2 0x1527 PUSH2 0x14CE JUMP JUMPDEST JUMPDEST POP SWAP2 SWAP1 POP JUMP JUMPDEST PUSH32 0x4E487B7100000000000000000000000000000000000000000000000000000000 PUSH1 0x0 MSTORE PUSH1 0x11 PUSH1 0x4 MSTORE PUSH1 0x24 PUSH1 0x0 REVERT JUMPDEST PUSH1 0x0 PUSH2 0x1568 DUP3 PUSH2 0xFD4 JUMP JUMPDEST SWAP2 POP PUSH2 0x1573 DUP4 PUSH2 0xFD4 JUMP JUMPDEST SWAP3 POP DUP3 DUP3 ADD SWAP1 POP DUP1 DUP3 GT ISZERO PUSH2 0x158B JUMPI PUSH2 0x158A PUSH2 0x152E JUMP JUMPDEST JUMPDEST SWAP3 SWAP2 POP POP JUMP JUMPDEST PUSH1 0x0 DUP2 SWAP1 POP SWAP3 SWAP2 POP POP JUMP JUMPDEST PUSH1 0x0 DUP2 SWAP1 POP DUP2 PUSH1 0x0 MSTORE PUSH1 0x20 PUSH1 0x0 KECCAK256 SWAP1 POP SWAP2 SWAP1 POP JUMP JUMPDEST PUSH1 0x0 DUP2 SLOAD PUSH2 0x15BE DUP2 PUSH2 0x14FD JUMP JUMPDEST PUSH2 0x15C8 DUP2 DUP7 PUSH2 0x1591 JUMP JUMPDEST SWAP5 POP PUSH1 0x1 DUP3 AND PUSH1 0x0 DUP2 EQ PUSH2 0x15E3 JUMPI PUSH1 0x1 DUP2 EQ PUSH2 0x15F8 JUMPI PUSH2 0x162B JUMP JUMPDEST PUSH1 0xFF NOT DUP4 AND DUP7 MSTORE DUP2 ISZERO ISZERO DUP3 MUL DUP7 ADD SWAP4 POP PUSH2 0x162B JUMP JUMPDEST PUSH2 0x1601 DUP6 PUSH2 0x159C JUMP JUMPDEST PUSH1 0x0 JUMPDEST DUP4 DUP2 LT ISZERO PUSH2 0x1623 JUMPI DUP2 SLOAD DUP2 DUP10 ADD MSTORE PUSH1 0x1 DUP3 ADD SWAP2 POP PUSH1 0x20 DUP2 ADD SWAP1 POP PUSH2 0x1604 JUMP JUMPDEST DUP4 DUP9 ADD SWAP6 POP POP POP JUMPDEST POP POP POP SWAP3 SWAP2 POP POP JUMP JUMPDEST PUSH32 0x2C20000000000000000000000000000000000000000000000000000000000000 PUSH1 0x0 DUP3 ADD MSTORE POP JUMP JUMPDEST PUSH1 0x0 PUSH2 0x166A PUSH1 0x2 DUP4 PUSH2 0x1591 JUMP JUMPDEST SWAP2 POP PUSH2 0x1675 DUP3 PUSH2 0x1634 JUMP JUMPDEST PUSH1 0x2 DUP3 ADD SWAP1 POP SWAP2 SWAP1 POP JUMP JUMPDEST PUSH1 0x0 PUSH2 0x168B DUP3 PUSH2 0x1037 JUMP JUMPDEST PUSH2 0x1695 DUP2 DUP6 PUSH2 0x1591 JUMP JUMPDEST SWAP4 POP PUSH2 0x16A5 DUP2 DUP6 PUSH1 0x20 DUP7 ADD PUSH2 0x1053 JUMP JUMPDEST DUP1 DUP5 ADD SWAP2 POP POP SWAP3 SWAP2 POP POP JUMP JUMPDEST PUSH1 0x0 PUSH2 0x16BD DUP3 DUP6 PUSH2 0x15B1 JUMP JUMPDEST SWAP2 POP PUSH2 0x16C8 DUP3 PUSH2 0x165D JUMP JUMPDEST SWAP2 POP PUSH2 0x16D4 DUP3 DUP5 PUSH2 0x1680 JUMP JUMPDEST SWAP2 POP DUP2 SWAP1 POP SWAP4 SWAP3 POP POP POP JUMP JUMPDEST PUSH1 0x0 PUSH1 0x20 PUSH1 0x1F DUP4 ADD DIV SWAP1 POP SWAP2 SWAP1 POP JUMP JUMPDEST PUSH1 0x0 DUP3 DUP3 SHL SWAP1 POP SWAP3 SWAP2 POP POP JUMP JUMPDEST PUSH1 0x0 PUSH1 0x8 DUP4 MUL PUSH2 0x172D PUSH32 0xFFFFFFFFFFFFFFFFFFFFFFFFFFFFFFFFFFFFFFFFFFFFFFFFFFFFFFFFFFFFFFFF DUP3 PUSH2 0x16F0 JUMP JUMPDEST PUSH2 0x1737 DUP7 DUP4 PUSH2 0x16F0 JUMP JUMPDEST SWAP6 POP DUP1 NOT DUP5 AND SWAP4 POP DUP1 DUP7 AND DUP5 OR SWAP3 POP POP POP SWAP4 SWAP3 POP POP POP JUMP JUMPDEST PUSH1 0x0 DUP2 SWAP1 POP SWAP2 SWAP1 POP JUMP JUMPDEST PUSH1 0x0 PUSH2 0x1774 PUSH2 0x176F PUSH2 0x176A DUP5 PUSH2 0xFD4 JUMP JUMPDEST PUSH2 0x174F JUMP JUMPDEST PUSH2 0xFD4 JUMP JUMPDEST SWAP1 POP SWAP2 SWAP1 POP JUMP JUMPDEST PUSH1 0x0 DUP2 SWAP1 POP SWAP2 SWAP1 POP JUMP JUMPDEST PUSH2 0x178E DUP4 PUSH2 0x1759 JUMP JUMPDEST PUSH2 0x17A2 PUSH2 0x179A DUP3 PUSH2 0x177B JUMP JUMPDEST DUP5 DUP5 SLOAD PUSH2 0x16FD JUMP JUMPDEST DUP3 SSTORE POP POP POP POP JUMP JUMPDEST PUSH1 0x0 SWAP1 JUMP JUMPDEST PUSH2 0x17B7 PUSH2 0x17AA JUMP JUMPDEST PUSH2 0x17C2 DUP2 DUP5 DUP5 PUSH2 0x1785 JUMP JUMPDEST POP POP POP JUMP JUMPDEST JUMPDEST DUP2 DUP2 LT ISZERO PUSH2 0x17E6 JUMPI PUSH2 0x17DB PUSH1 0x0 DUP3 PUSH2 0x17AF JUMP JUMPDEST PUSH1 0x1 DUP2 ADD SWAP1 POP PUSH2 0x17C8 JUMP JUMPDEST POP POP JUMP JUMPDEST PUSH1 0x1F DUP3 GT ISZERO PUSH2 0x182B JUMPI PUSH2 0x17FC DUP2 PUSH2 0x159C JUMP JUMPDEST PUSH2 0x1805 DUP5 PUSH2 0x16E0 JUMP JUMPDEST DUP2 ADD PUSH1 0x20 DUP6 LT ISZERO PUSH2 0x1814 JUMPI DUP2 SWAP1 POP JUMPDEST PUSH2 0x1828 PUSH2 0x1820 DUP6 PUSH2 0x16E0 JUMP JUMPDEST DUP4 ADD DUP3 PUSH2 0x17C7 JUMP JUMPDEST POP POP JUMPDEST POP POP POP JUMP JUMPDEST PUSH1 0x0 DUP3 DUP3 SHR SWAP1 POP SWAP3 SWAP2 POP POP JUMP JUMPDEST PUSH1 0x0 PUSH2 0x184E PUSH1 0x0 NOT DUP5 PUSH1 0x8 MUL PUSH2 0x1830 JUMP JUMPDEST NOT DUP1 DUP4 AND SWAP2 POP POP SWAP3 SWAP2 POP POP JUMP JUMPDEST PUSH1 0x0 PUSH2 0x1867 DUP4 DUP4 PUSH2 0x183D JUMP JUMPDEST SWAP2 POP DUP3 PUSH1 0x2 MUL DUP3 OR SWAP1 POP SWAP3 SWAP2 POP POP JUMP JUMPDEST PUSH2 0x1880 DUP3 PUSH2 0x1037 JUMP JUMPDEST PUSH8 0xFFFFFFFFFFFFFFFF DUP2 GT ISZERO PUSH2 0x1899 JUMPI PUSH2 0x1898 PUSH2 0x11AB JUMP JUMPDEST JUMPDEST PUSH2 0x18A3 DUP3 SLOAD PUSH2 0x14FD JUMP JUMPDEST PUSH2 0x18AE DUP3 DUP3 DUP6 PUSH2 0x17EA JUMP JUMPDEST PUSH1 0x0 PUSH1 0x20 SWAP1 POP PUSH1 0x1F DUP4 GT PUSH1 0x1 DUP2 EQ PUSH2 0x18E1 JUMPI PUSH1 0x0 DUP5 ISZERO PUSH2 0x18CF JUMPI DUP3 DUP8 ADD MLOAD SWAP1 POP JUMPDEST PUSH2 0x18D9 DUP6 DUP3 PUSH2 0x185B JUMP JUMPDEST DUP7 SSTORE POP PUSH2 0x1941 JUMP JUMPDEST PUSH1 0x1F NOT DUP5 AND PUSH2 0x18EF DUP7 PUSH2 0x159C JUMP JUMPDEST PUSH1 0x0 JUMPDEST DUP3 DUP2 LT ISZERO PUSH2 0x1917 JUMPI DUP5 DUP10 ADD MLOAD DUP3 SSTORE PUSH1 0x1 DUP3 ADD SWAP2 POP PUSH1 0x20 DUP6 ADD SWAP5 POP PUSH1 0x20 DUP2 ADD SWAP1 POP PUSH2 0x18F2 JUMP JUMPDEST DUP7 DUP4 LT ISZERO PUSH2 0x1934 JUMPI DUP5 DUP10 ADD MLOAD PUSH2 0x1930 PUSH1 0x1F DUP10 AND DUP3 PUSH2 0x183D JUMP JUMPDEST DUP4 SSTORE POP JUMPDEST PUSH1 0x1 PUSH1 0x2 DUP9 MUL ADD DUP9 SSTORE POP POP POP JUMPDEST POP POP POP POP POP POP JUMP JUMPDEST PUSH32 0x53656E646572206973206E6F74206F776E657221000000000000000000000000 PUSH1 0x0 DUP3 ADD MSTORE POP JUMP JUMPDEST PUSH1 0x0 PUSH2 0x197F PUSH1 0x14 DUP4 PUSH2 0x1042 JUMP JUMPDEST SWAP2 POP PUSH2 0x198A DUP3 PUSH2 0x1949 JUMP JUMPDEST PUSH1 0x20 DUP3 ADD SWAP1 POP SWAP2 SWAP1 POP JUMP JUMPDEST PUSH1 0x0 PUSH1 0x20 DUP3 ADD SWAP1 POP DUP2 DUP2 SUB PUSH1 0x0 DUP4 ADD MSTORE PUSH2 0x19AE DUP2 PUSH2 0x1972 JUMP JUMPDEST SWAP1 POP SWAP2 SWAP1 POP JUMP JUMPDEST PUSH1 0x0 DUP2 SWAP1 POP SWAP3 SWAP2 POP POP JUMP JUMPDEST POP JUMP JUMPDEST PUSH1 0x0 PUSH2 0x19D0 PUSH1 0x0 DUP4 PUSH2 0x19B5 JUMP JUMPDEST SWAP2 POP PUSH2 0x19DB DUP3 PUSH2 0x19C0 JUMP JUMPDEST PUSH1 0x0 DUP3 ADD SWAP1 POP SWAP2 SWAP1 POP JUMP JUMPDEST PUSH1 0x0 PUSH2 0x19F1 DUP3 PUSH2 0x19C3 JUMP JUMPDEST SWAP2 POP DUP2 SWAP1 POP SWAP2 SWAP1 POP JUMP JUMPDEST PUSH32 0x43616C6C206661696C6564210000000000000000000000000000000000000000 PUSH1 0x0 DUP3 ADD MSTORE POP JUMP JUMPDEST PUSH1 0x0 PUSH2 0x1A31 PUSH1 0xC DUP4 PUSH2 0x1042 JUMP JUMPDEST SWAP2 POP PUSH2 0x1A3C DUP3 PUSH2 0x19FB JUMP JUMPDEST PUSH1 0x20 DUP3 ADD SWAP1 POP SWAP2 SWAP1 POP JUMP JUMPDEST PUSH1 0x0 PUSH1 0x20 DUP3 ADD SWAP1 POP DUP2 DUP2 SUB PUSH1 0x0 DUP4 ADD MSTORE PUSH2 0x1A60 DUP2 PUSH2 0x1A24 JUMP JUMPDEST SWAP1 POP SWAP2 SWAP1 POP JUMP JUMPDEST PUSH32 0x4D61696E74656E616E63652072657175657374206E6F74207265676973746572 PUSH1 0x0 DUP3 ADD MSTORE PUSH32 0x6564210000000000000000000000000000000000000000000000000000000000 PUSH1 0x20 DUP3 ADD MSTORE POP JUMP JUMPDEST PUSH1 0x0 PUSH2 0x1AC3 PUSH1 0x23 DUP4 PUSH2 0x1042 JUMP JUMPDEST SWAP2 POP PUSH2 0x1ACE DUP3 PUSH2 0x1A67 JUMP JUMPDEST PUSH1 0x40 DUP3 ADD SWAP1 POP SWAP2 SWAP1 POP JUMP JUMPDEST PUSH1 0x0 PUSH1 0x20 DUP3 ADD SWAP1 POP DUP2 DUP2 SUB PUSH1 0x0 DUP4 ADD MSTORE PUSH2 0x1AF2 DUP2 PUSH2 0x1AB6 JUMP JUMPDEST SWAP1 POP SWAP2 SWAP1 POP JUMP JUMPDEST PUSH1 0x0 PUSH2 0x1B04 DUP3 PUSH2 0xFD4 JUMP JUMPDEST SWAP2 POP PUSH2 0x1B0F DUP4 PUSH2 0xFD4 JUMP JUMPDEST SWAP3 POP DUP3 DUP3 MUL PUSH2 0x1B1D DUP2 PUSH2 0xFD4 JUMP JUMPDEST SWAP2 POP DUP3 DUP3 DIV DUP5 EQ DUP4 ISZERO OR PUSH2 0x1B34 JUMPI PUSH2 0x1B33 PUSH2 0x152E JUMP JUMPDEST JUMPDEST POP SWAP3 SWAP2 POP POP JUMP JUMPDEST PUSH32 0x4E487B7100000000000000000000000000000000000000000000000000000000 PUSH1 0x0 MSTORE PUSH1 0x12 PUSH1 0x4 MSTORE PUSH1 0x24 PUSH1 0x0 REVERT JUMPDEST PUSH1 0x0 PUSH2 0x1B75 DUP3 PUSH2 0xFD4 JUMP JUMPDEST SWAP2 POP PUSH2 0x1B80 DUP4 PUSH2 0xFD4 JUMP JUMPDEST SWAP3 POP DUP3 PUSH2 0x1B90 JUMPI PUSH2 0x1B8F PUSH2 0x1B3B JUMP JUMPDEST JUMPDEST DUP3 DUP3 DIV SWAP1 POP SWAP3 SWAP2 POP POP JUMP JUMPDEST PUSH1 0x0 PUSH2 0x1BA6 DUP3 PUSH2 0xFD4 JUMP JUMPDEST SWAP2 POP PUSH2 0x1BB1 DUP4 PUSH2 0xFD4 JUMP JUMPDEST SWAP3 POP DUP3 DUP3 SUB SWAP1 POP DUP2 DUP2 GT ISZERO PUSH2 0x1BC9 JUMPI PUSH2 0x1BC8 PUSH2 0x152E JUMP JUMPDEST JUMPDEST SWAP3 SWAP2 POP POP JUMP JUMPDEST PUSH1 0x0 DUP2 SLOAD SWAP1 POP PUSH2 0x1BDE DUP2 PUSH2 0x14FD JUMP JUMPDEST SWAP1 POP SWAP2 SWAP1 POP JUMP JUMPDEST DUP2 DUP2 SUB PUSH2 0x1BF3 JUMPI POP POP PUSH2 0x1CCB JUMP JUMPDEST PUSH2 0x1BFC DUP3 PUSH2 0x1BCF JUMP JUMPDEST PUSH8 0xFFFFFFFFFFFFFFFF DUP2 GT ISZERO PUSH2 0x1C15 JUMPI PUSH2 0x1C14 PUSH2 0x11AB JUMP JUMPDEST JUMPDEST PUSH2 0x1C1F DUP3 SLOAD PUSH2 0x14FD JUMP JUMPDEST PUSH2 0x1C2A DUP3 DUP3 DUP6 PUSH2 0x17EA JUMP JUMPDEST PUSH1 0x0 PUSH1 0x1F DUP4 GT PUSH1 0x1 DUP2 EQ PUSH2 0x1C59 JUMPI PUSH1 0x0 DUP5 ISZERO PUSH2 0x1C47 JUMPI DUP3 DUP8 ADD SLOAD SWAP1 POP JUMPDEST PUSH2 0x1C51 DUP6 DUP3 PUSH2 0x185B JUMP JUMPDEST DUP7 SSTORE POP PUSH2 0x1CC4 JUMP JUMPDEST PUSH1 0x1F NOT DUP5 AND PUSH2 0x1C67 DUP8 PUSH2 0x159C JUMP JUMPDEST SWAP7 POP PUSH2 0x1C72 DUP7 PUSH2 0x159C JUMP JUMPDEST PUSH1 0x0 JUMPDEST DUP3 DUP2 LT ISZERO PUSH2 0x1C9A JUMPI DUP5 DUP10 ADD SLOAD DUP3 SSTORE PUSH1 0x1 DUP3 ADD SWAP2 POP PUSH1 0x1 DUP6 ADD SWAP5 POP PUSH1 0x20 DUP2 ADD SWAP1 POP PUSH2 0x1C75 JUMP JUMPDEST DUP7 DUP4 LT ISZERO PUSH2 0x1CB7 JUMPI DUP5 DUP10 ADD SLOAD PUSH2 0x1CB3 PUSH1 0x1F DUP10 AND DUP3 PUSH2 0x183D JUMP JUMPDEST DUP4 SSTORE POP JUMPDEST PUSH1 0x1 PUSH1 0x2 DUP9 MUL ADD DUP9 SSTORE POP POP POP JUMPDEST POP POP POP POP POP POP JUMPDEST JUMP JUMPDEST PUSH32 0x4E487B7100000000000000000000000000000000000000000000000000000000 PUSH1 0x0 MSTORE PUSH1 0x31 PUSH1 0x4 MSTORE PUSH1 0x24 PUSH1 0x0 REVERT JUMPDEST PUSH1 0x0 PUSH2 0x1D07 DUP3 PUSH2 0xFD4 JUMP JUMPDEST SWAP2 POP PUSH32 0xFFFFFFFFFFFFFFFFFFFFFFFFFFFFFFFFFFFFFFFFFFFFFFFFFFFFFFFFFFFFFFFF DUP3 SUB PUSH2 0x1D39 JUMPI PUSH2 0x1D38 PUSH2 0x152E JUMP JUMPDEST JUMPDEST PUSH1 0x1 DUP3 ADD SWAP1 POP SWAP2 SWAP1 POP JUMP JUMPDEST PUSH1 0x0 PUSH10 0xFFFFFFFFFFFFFFFFFFFF DUP3 AND SWAP1 POP SWAP2 SWAP1 POP JUMP JUMPDEST PUSH2 0x1D63 DUP2 PUSH2 0x1D44 JUMP JUMPDEST DUP2 EQ PUSH2 0x1D6E JUMPI PUSH1 0x0 DUP1 REVERT JUMPDEST POP JUMP JUMPDEST PUSH1 0x0 DUP2 MLOAD SWAP1 POP PUSH2 0x1D80 DUP2 PUSH2 0x1D5A JUMP JUMPDEST SWAP3 SWAP2 POP POP JUMP JUMPDEST PUSH1 0x0 DUP2 SWAP1 POP SWAP2 SWAP1 POP JUMP JUMPDEST PUSH2 0x1D99 DUP2 PUSH2 0x1D86 JUMP JUMPDEST DUP2 EQ PUSH2 0x1DA4 JUMPI PUSH1 0x0 DUP1 REVERT JUMPDEST POP JUMP JUMPDEST PUSH1 0x0 DUP2 MLOAD SWAP1 POP PUSH2 0x1DB6 DUP2 PUSH2 0x1D90 JUMP JUMPDEST SWAP3 SWAP2 POP POP JUMP JUMPDEST PUSH1 0x0 DUP2 MLOAD SWAP1 POP PUSH2 0x1DCB DUP2 PUSH2 0xFDE JUMP JUMPDEST SWAP3 SWAP2 POP POP JUMP JUMPDEST PUSH1 0x0 DUP1 PUSH1 0x0 DUP1 PUSH1 0x0 PUSH1 0xA0 DUP7 DUP9 SUB SLT ISZERO PUSH2 0x1DED JUMPI PUSH2 0x1DEC PUSH2 0xFCA JUMP JUMPDEST JUMPDEST PUSH1 0x0 PUSH2 0x1DFB DUP9 DUP3 DUP10 ADD PUSH2 0x1D71 JUMP JUMPDEST SWAP6 POP POP PUSH1 0x20 PUSH2 0x1E0C DUP9 DUP3 DUP10 ADD PUSH2 0x1DA7 JUMP JUMPDEST SWAP5 POP POP PUSH1 0x40 PUSH2 0x1E1D DUP9 DUP3 DUP10 ADD PUSH2 0x1DBC JUMP JUMPDEST SWAP4 POP POP PUSH1 0x60 PUSH2 0x1E2E DUP9 DUP3 DUP10 ADD PUSH2 0x1DBC JUMP JUMPDEST SWAP3 POP POP PUSH1 0x80 PUSH2 0x1E3F DUP9 DUP3 DUP10 ADD PUSH2 0x1D71 JUMP JUMPDEST SWAP2 POP POP SWAP3 SWAP6 POP SWAP3 SWAP6 SWAP1 SWAP4 POP JUMP JUMPDEST PUSH1 0x0 PUSH2 0x1E57 DUP3 PUSH2 0x1D86 JUMP JUMPDEST SWAP2 POP PUSH2 0x1E62 DUP4 PUSH2 0x1D86 JUMP JUMPDEST SWAP3 POP DUP3 DUP3 MUL PUSH2 0x1E70 DUP2 PUSH2 0x1D86 JUMP JUMPDEST SWAP2 POP PUSH32 0x8000000000000000000000000000000000000000000000000000000000000000 DUP5 EQ PUSH1 0x0 DUP5 SLT AND ISZERO PUSH2 0x1EA8 JUMPI PUSH2 0x1EA7 PUSH2 0x152E JUMP JUMPDEST JUMPDEST DUP3 DUP3 SDIV DUP5 EQ DUP4 ISZERO OR PUSH2 0x1EBD JUMPI PUSH2 0x1EBC PUSH2 0x152E JUMP JUMPDEST JUMPDEST POP SWAP3 SWAP2 POP POP JUMP INVALID LOG2 PUSH5 0x6970667358 0x22 SLT KECCAK256 0xD3 SWAP14 0xB3 LOG1 SWAP14 PUSH30 0xB8CAF7A28B20FA7775FC836A883D22BD76083951E5725336340964736F6C PUSH4 0x43000818 STOP CALLER "},"methodIdentifiers":{"addRequest(string,uint256,address,string,uint256)":"204d398e","addressToAmountPayed(address)":"c3b753ed","getMaintenanceCostByAddress(address)":"71c18fd8","hasPaid(address)":"fbf47a9a","i_owner()":"dba6335f","maintenanceRequest(uint256)":"17315266","pay()":"1b9265b8","withdraw()":"3ccfd60b"}}}}}