{"contracts/Events.sol":{"Events":{"abi":[{"inputs":[{"internalType":"address","name":"_tokenContractAddress","type":"address"},{"internalType":"address","name":"_rentContractAddress","type":"address"}],"stateMutability":"nonpayable","type":"constructor"},{"inputs":[],"name":"NotOwner","type":"error"},{"anonymous":false,"inputs":[{"indexed":true,"internalType":"address","name":"sender","type":"address"},{"indexed":false,"internalType":"uint256","name":"value","type":"uint256"}],"name":"DepositReceived","type":"event"},{"anonymous":false,"inputs":[{"indexed":true,"internalType":"address","name":"recipient","type":"address"},{"indexed":false,"internalType":"uint256","name":"value","type":"uint256"}],"name":"PaymentSent","type":"event"},{"inputs":[],"name":"contractBalance","outputs":[{"internalType":"uint256","name":"","type":"uint256"}],"stateMutability":"view","type":"function"},{"inputs":[],"name":"depositForEvents","outputs":[],"stateMutability":"payable","type":"function"},{"inputs":[],"name":"getTotalResidents","outputs":[{"internalType":"uint256","name":"","type":"uint256"}],"stateMutability":"view","type":"function"},{"inputs":[{"internalType":"address","name":"","type":"address"}],"name":"hasVoted","outputs":[{"internalType":"bool","name":"","type":"bool"}],"stateMutability":"view","type":"function"},{"inputs":[],"name":"i_owner","outputs":[{"internalType":"address","name":"","type":"address"}],"stateMutability":"view","type":"function"},{"inputs":[],"name":"isApproved","outputs":[{"internalType":"bool","name":"","type":"bool"}],"stateMutability":"view","type":"function"},{"inputs":[{"internalType":"address","name":"","type":"address"}],"name":"paymentsSent","outputs":[{"internalType":"uint256","name":"","type":"uint256"}],"stateMutability":"view","type":"function"},{"inputs":[],"name":"rentContract","outputs":[{"internalType":"contract RentInterface","name":"","type":"address"}],"stateMutability":"view","type":"function"},{"inputs":[],"name":"tokenContract","outputs":[{"internalType":"contract ERC20Token","name":"","type":"address"}],"stateMutability":"view","type":"function"},{"inputs":[],"name":"totalVoters","outputs":[{"internalType":"uint256","name":"","type":"uint256"}],"stateMutability":"view","type":"function"},{"inputs":[{"internalType":"address payable","name":"_recipient","type":"address"},{"internalType":"uint256","name":"_value","type":"uint256"}],"name":"transferForEventFunds","outputs":[],"stateMutability":"nonpayable","type":"function"},{"inputs":[],"name":"voteCount","outputs":[{"internalType":"uint256","name":"totalVoters","type":"uint256"},{"internalType":"uint256","name":"votedYes","type":"uint256"},{"internalType":"uint256","name":"votedNo","type":"uint256"}],"stateMutability":"view","type":"function"},{"inputs":[],"name":"voteNo","outputs":[],"stateMutability":"nonpayable","type":"function"},{"inputs":[],"name":"voteYes","outputs":[],"stateMutability":"nonpayable","type":"function"}],"evm":{"bytecode":{"linkReferences":{},"object":"60a06040523480156200001157600080fd5b506040516200189d3803806200189d83398181016040528101906200003791906200015e565b80600160006101000a81548173ffffffffffffffffffffffffffffffffffffffff021916908373ffffffffffffffffffffffffffffffffffffffff160217905550816000806101000a81548173ffffffffffffffffffffffffffffffffffffffff021916908373ffffffffffffffffffffffffffffffffffffffff1602179055503373ffffffffffffffffffffffffffffffffffffffff1660808173ffffffffffffffffffffffffffffffffffffffff16815250505050620001a5565b600080fd5b600073ffffffffffffffffffffffffffffffffffffffff82169050919050565b60006200012682620000f9565b9050919050565b620001388162000119565b81146200014457600080fd5b50565b60008151905062000158816200012d565b92915050565b60008060408385031215620001785762000177620000f4565b5b6000620001888582860162000147565b92505060206200019b8582860162000147565b9150509250929050565b6080516116c0620001dd600039600081816103ba0152818161044801528181610d0e01528181610d9c0152610e8901526116c06000f3fe6080604052600436106100dd5760003560e01c80638b7afe2e1161007f578063c638407111610059578063c638407114610278578063c9dc70dd146102a5578063d0fefcd6146102af578063dba6335f146102ec576100dd565b80638b7afe2e1461020b57806390cf581c14610236578063b6df18b71461024d576100dd565b80633a488eaa116100bb5780633a488eaa1461017357806341c12a701461019e57806355a373d6146101b55780635f5300ff146101e0576100dd565b806309eef43e146100e257806328f371aa1461011f57806337d5d81d1461014a575b600080fd5b3480156100ee57600080fd5b5061010960048036038101906101049190610f0e565b610317565b6040516101169190610f56565b60405180910390f35b34801561012b57600080fd5b50610134610337565b6040516101419190610f56565b60405180910390f35b34801561015657600080fd5b50610171600480360381019061016c9190610fe5565b6103b8565b005b34801561017f57600080fd5b506101886106b3565b6040516101959190611084565b60405180910390f35b3480156101aa57600080fd5b506101b36106d9565b005b3480156101c157600080fd5b506101ca61097a565b6040516101d791906110c0565b60405180910390f35b3480156101ec57600080fd5b506101f561099e565b60405161020291906110ea565b60405180910390f35b34801561021757600080fd5b506102206109ab565b60405161022d91906110ea565b60405180910390f35b34801561024257600080fd5b5061024b6109b3565b005b34801561025957600080fd5b50610262610c5c565b60405161026f91906110ea565b60405180910390f35b34801561028457600080fd5b5061028d610cf4565b60405161029c93929190611105565b60405180910390f35b6102ad610d0c565b005b3480156102bb57600080fd5b506102d660048036038101906102d19190610f0e565b610e6f565b6040516102e391906110ea565b60405180910390f35b3480156102f857600080fd5b50610301610e87565b60405161030e919061114b565b60405180910390f35b60026020528060005260406000206000915054906101000a900460ff1681565b600080610342610c5c565b61034a61099e565b1461038a576040517f08c379a0000000000000000000000000000000000000000000000000000000008152600401610381906111c3565b60405180910390fd5b60046000015460646004600101546103a29190611212565b6103ac9190611283565b90506032811191505090565b7f000000000000000000000000000000000000000000000000000000000000000073ffffffffffffffffffffffffffffffffffffffff163373ffffffffffffffffffffffffffffffffffffffff1614610446576040517f08c379a000000000000000000000000000000000000000000000000000000000815260040161043d90611300565b60405180910390fd5b7f000000000000000000000000000000000000000000000000000000000000000073ffffffffffffffffffffffffffffffffffffffff163373ffffffffffffffffffffffffffffffffffffffff16146104cb576040517f30cd747100000000000000000000000000000000000000000000000000000000815260040160405180910390fd5b6104d3610337565b610512576040517f08c379a00000000000000000000000000000000000000000000000000000000081526004016105099061136c565b60405180910390fd5b600073ffffffffffffffffffffffffffffffffffffffff168273ffffffffffffffffffffffffffffffffffffffff1603610581576040517f08c379a0000000000000000000000000000000000000000000000000000000008152600401610578906113d8565b60405180910390fd5b804710156105c4576040517f08c379a00000000000000000000000000000000000000000000000000000000081526004016105bb90611444565b60405180910390fd5b8173ffffffffffffffffffffffffffffffffffffffff166108fc829081150290604051600060405180830381858888f1935050505015801561060a573d6000803e3d6000fd5b5080600360008473ffffffffffffffffffffffffffffffffffffffff1673ffffffffffffffffffffffffffffffffffffffff168152602001908152602001600020600082825461065a9190611464565b925050819055508173ffffffffffffffffffffffffffffffffffffffff167f47db2abce6d5fbcd80ffd9b4ba74dcde804a746ef732bc7f8a70fabfc912c590826040516106a791906110ea565b60405180910390a25050565b600160009054906101000a900473ffffffffffffffffffffffffffffffffffffffff1681565b600260003373ffffffffffffffffffffffffffffffffffffffff1673ffffffffffffffffffffffffffffffffffffffff16815260200190815260200160002060009054906101000a900460ff1615610766576040517f08c379a000000000000000000000000000000000000000000000000000000000815260040161075d906114e4565b60405180910390fd5b6000600190508060008054906101000a900473ffffffffffffffffffffffffffffffffffffffff1673ffffffffffffffffffffffffffffffffffffffff166370a08231336040518263ffffffff1660e01b81526004016107c6919061114b565b602060405180830381865afa1580156107e3573d6000803e3d6000fd5b505050506040513d601f19601f820116820180604052508101906108079190611519565b1015610848576040517f08c379a000000000000000000000000000000000000000000000000000000000815260040161083f90611592565b60405180910390fd5b60008054906101000a900473ffffffffffffffffffffffffffffffffffffffff1673ffffffffffffffffffffffffffffffffffffffff1663beabacc83330846040518463ffffffff1660e01b81526004016108a5939291906115b2565b6020604051808303816000875af11580156108c4573d6000803e3d6000fd5b505050506040513d601f19601f820116820180604052508101906108e89190611615565b506001600260003373ffffffffffffffffffffffffffffffffffffffff1673ffffffffffffffffffffffffffffffffffffffff16815260200190815260200160002060006101000a81548160ff0219169083151502179055506004600001600081548092919061095790611642565b91905055506004600201600081548092919061097290611642565b919050555050565b60008054906101000a900473ffffffffffffffffffffffffffffffffffffffff1681565b6000600460000154905090565b600047905090565b600260003373ffffffffffffffffffffffffffffffffffffffff1673ffffffffffffffffffffffffffffffffffffffff16815260200190815260200160002060009054906101000a900460ff1615610a40576040517f08c379a0000000000000000000000000000000000000000000000000000000008152600401610a37906114e4565b60405180910390fd5b6000600190508060008054906101000a900473ffffffffffffffffffffffffffffffffffffffff1673ffffffffffffffffffffffffffffffffffffffff166370a08231336040518263ffffffff1660e01b8152600401610aa0919061114b565b602060405180830381865afa158015610abd573d6000803e3d6000fd5b505050506040513d601f19601f82011682018060405250810190610ae19190611519565b1015610b22576040517f08c379a0000000000000000000000000000000000000000000000000000000008152600401610b1990611592565b60405180910390fd5b60008054906101000a900473ffffffffffffffffffffffffffffffffffffffff1673ffffffffffffffffffffffffffffffffffffffff1663beabacc83330846040518463ffffffff1660e01b8152600401610b7f939291906115b2565b6020604051808303816000875af1158015610b9e573d6000803e3d6000fd5b505050506040513d601f19601f82011682018060405250810190610bc29190611615565b610bcb57600080fd5b6001600260003373ffffffffffffffffffffffffffffffffffffffff1673ffffffffffffffffffffffffffffffffffffffff16815260200190815260200160002060006101000a81548160ff02191690831515021790555060046000016000815480929190610c3990611642565b919050555060046001016000815480929190610c5490611642565b919050555050565b6000600160009054906101000a900473ffffffffffffffffffffffffffffffffffffffff1673ffffffffffffffffffffffffffffffffffffffff1663b6df18b76040518163ffffffff1660e01b8152600401602060405180830381865afa158015610ccb573d6000803e3d6000fd5b505050506040513d601f19601f82011682018060405250810190610cef9190611519565b905090565b60048060000154908060010154908060020154905083565b7f000000000000000000000000000000000000000000000000000000000000000073ffffffffffffffffffffffffffffffffffffffff163373ffffffffffffffffffffffffffffffffffffffff1614610d9a576040517f08c379a0000000000000000000000000000000000000000000000000000000008152600401610d9190611300565b60405180910390fd5b7f000000000000000000000000000000000000000000000000000000000000000073ffffffffffffffffffffffffffffffffffffffff163373ffffffffffffffffffffffffffffffffffffffff1614610e1f576040517f30cd747100000000000000000000000000000000000000000000000000000000815260040160405180910390fd5b3373ffffffffffffffffffffffffffffffffffffffff167f9936746a4565f9766fa768f88f56a7487c78780ac179562773d1c75c5269537e34604051610e6591906110ea565b60405180910390a2565b60036020528060005260406000206000915090505481565b7f000000000000000000000000000000000000000000000000000000000000000081565b600080fd5b600073ffffffffffffffffffffffffffffffffffffffff82169050919050565b6000610edb82610eb0565b9050919050565b610eeb81610ed0565b8114610ef657600080fd5b50565b600081359050610f0881610ee2565b92915050565b600060208284031215610f2457610f23610eab565b5b6000610f3284828501610ef9565b91505092915050565b60008115159050919050565b610f5081610f3b565b82525050565b6000602082019050610f6b6000830184610f47565b92915050565b6000610f7c82610eb0565b9050919050565b610f8c81610f71565b8114610f9757600080fd5b50565b600081359050610fa981610f83565b92915050565b6000819050919050565b610fc281610faf565b8114610fcd57600080fd5b50565b600081359050610fdf81610fb9565b92915050565b60008060408385031215610ffc57610ffb610eab565b5b600061100a85828601610f9a565b925050602061101b85828601610fd0565b9150509250929050565b6000819050919050565b600061104a61104561104084610eb0565b611025565b610eb0565b9050919050565b600061105c8261102f565b9050919050565b600061106e82611051565b9050919050565b61107e81611063565b82525050565b60006020820190506110996000830184611075565b92915050565b60006110aa82611051565b9050919050565b6110ba8161109f565b82525050565b60006020820190506110d560008301846110b1565b92915050565b6110e481610faf565b82525050565b60006020820190506110ff60008301846110db565b92915050565b600060608201905061111a60008301866110db565b61112760208301856110db565b61113460408301846110db565b949350505050565b61114581610ed0565b82525050565b6000602082019050611160600083018461113c565b92915050565b600082825260208201905092915050565b7f4e6f742065766572796f6e652068617320766f74656400000000000000000000600082015250565b60006111ad601683611166565b91506111b882611177565b602082019050919050565b600060208201905081810360008301526111dc816111a0565b9050919050565b7f4e487b7100000000000000000000000000000000000000000000000000000000600052601160045260246000fd5b600061121d82610faf565b915061122883610faf565b925082820261123681610faf565b9150828204841483151761124d5761124c6111e3565b5b5092915050565b7f4e487b7100000000000000000000000000000000000000000000000000000000600052601260045260246000fd5b600061128e82610faf565b915061129983610faf565b9250826112a9576112a8611254565b5b828204905092915050565b7f53656e646572206973206e6f74206f776e657221000000000000000000000000600082015250565b60006112ea601483611166565b91506112f5826112b4565b602082019050919050565b60006020820190508181036000830152611319816112dd565b9050919050565b7f4576656e7420686173206e6f74206265656e20617070726f7665640000000000600082015250565b6000611356601b83611166565b915061136182611320565b602082019050919050565b6000602082019050818103600083015261138581611349565b9050919050565b7f496e76616c69642077616c6c6574206164647265737300000000000000000000600082015250565b60006113c2601683611166565b91506113cd8261138c565b602082019050919050565b600060208201905081810360008301526113f1816113b5565b9050919050565b7f496e73756666696369656e742062616c616e6365000000000000000000000000600082015250565b600061142e601483611166565b9150611439826113f8565b602082019050919050565b6000602082019050818103600083015261145d81611421565b9050919050565b600061146f82610faf565b915061147a83610faf565b9250828201905080821115611492576114916111e3565b5b92915050565b7f596f75206861766520616c726561647920766f7465642e000000000000000000600082015250565b60006114ce601783611166565b91506114d982611498565b602082019050919050565b600060208201905081810360008301526114fd816114c1565b9050919050565b60008151905061151381610fb9565b92915050565b60006020828403121561152f5761152e610eab565b5b600061153d84828501611504565b91505092915050565b7f496e73756666696369656e742062616c616e636520746f20766f74652e000000600082015250565b600061157c601d83611166565b915061158782611546565b602082019050919050565b600060208201905081810360008301526115ab8161156f565b9050919050565b60006060820190506115c7600083018661113c565b6115d4602083018561113c565b6115e160408301846110db565b949350505050565b6115f281610f3b565b81146115fd57600080fd5b50565b60008151905061160f816115e9565b92915050565b60006020828403121561162b5761162a610eab565b5b600061163984828501611600565b91505092915050565b600061164d82610faf565b91507fffffffffffffffffffffffffffffffffffffffffffffffffffffffffffffffff820361167f5761167e6111e3565b5b60018201905091905056fea2646970667358221220a6b773322fe22fa46c78ee47bd035cb4519ba4c0d2b68c9c6a98dab7fce0e50164736f6c63430008180033","opcodes":"PUSH1 0xA0 PUSH1 0x40 MSTORE CALLVALUE DUP1 ISZERO PUSH3 0x11 JUMPI PUSH1 0x0 DUP1 REVERT JUMPDEST POP PUSH1 0x40 MLOAD PUSH3 0x189D CODESIZE SUB DUP1 PUSH3 0x189D DUP4 CODECOPY DUP2 DUP2 ADD PUSH1 0x40 MSTORE DUP2 ADD SWAP1 PUSH3 0x37 SWAP2 SWAP1 PUSH3 0x15E JUMP JUMPDEST DUP1 PUSH1 0x1 PUSH1 0x0 PUSH2 0x100 EXP DUP2 SLOAD DUP2 PUSH20 0xFFFFFFFFFFFFFFFFFFFFFFFFFFFFFFFFFFFFFFFF MUL NOT AND SWAP1 DUP4 PUSH20 0xFFFFFFFFFFFFFFFFFFFFFFFFFFFFFFFFFFFFFFFF AND MUL OR SWAP1 SSTORE POP DUP2 PUSH1 0x0 DUP1 PUSH2 0x100 EXP DUP2 SLOAD DUP2 PUSH20 0xFFFFFFFFFFFFFFFFFFFFFFFFFFFFFFFFFFFFFFFF MUL NOT AND SWAP1 DUP4 PUSH20 0xFFFFFFFFFFFFFFFFFFFFFFFFFFFFFFFFFFFFFFFF AND MUL OR SWAP1 SSTORE POP CALLER PUSH20 0xFFFFFFFFFFFFFFFFFFFFFFFFFFFFFFFFFFFFFFFF AND PUSH1 0x80 DUP2 PUSH20 0xFFFFFFFFFFFFFFFFFFFFFFFFFFFFFFFFFFFFFFFF AND DUP2 MSTORE POP POP POP POP PUSH3 0x1A5 JUMP JUMPDEST PUSH1 0x0 DUP1 REVERT JUMPDEST PUSH1 0x0 PUSH20 0xFFFFFFFFFFFFFFFFFFFFFFFFFFFFFFFFFFFFFFFF DUP3 AND SWAP1 POP SWAP2 SWAP1 POP JUMP JUMPDEST PUSH1 0x0 PUSH3 0x126 DUP3 PUSH3 0xF9 JUMP JUMPDEST SWAP1 POP SWAP2 SWAP1 POP JUMP JUMPDEST PUSH3 0x138 DUP2 PUSH3 0x119 JUMP JUMPDEST DUP2 EQ PUSH3 0x144 JUMPI PUSH1 0x0 DUP1 REVERT JUMPDEST POP JUMP JUMPDEST PUSH1 0x0 DUP2 MLOAD SWAP1 POP PUSH3 0x158 DUP2 PUSH3 0x12D JUMP JUMPDEST SWAP3 SWAP2 POP POP JUMP JUMPDEST PUSH1 0x0 DUP1 PUSH1 0x40 DUP4 DUP6 SUB SLT ISZERO PUSH3 0x178 JUMPI PUSH3 0x177 PUSH3 0xF4 JUMP JUMPDEST JUMPDEST PUSH1 0x0 PUSH3 0x188 DUP6 DUP3 DUP7 ADD PUSH3 0x147 JUMP JUMPDEST SWAP3 POP POP PUSH1 0x20 PUSH3 0x19B DUP6 DUP3 DUP7 ADD PUSH3 0x147 JUMP JUMPDEST SWAP2 POP POP SWAP3 POP SWAP3 SWAP1 POP JUMP JUMPDEST PUSH1 0x80 MLOAD PUSH2 0x16C0 PUSH3 0x1DD PUSH1 0x0 CODECOPY PUSH1 0x0 DUP2 DUP2 PUSH2 0x3BA ADD MSTORE DUP2 DUP2 PUSH2 0x448 ADD MSTORE DUP2 DUP2 PUSH2 0xD0E ADD MSTORE DUP2 DUP2 PUSH2 0xD9C ADD MSTORE PUSH2 0xE89 ADD MSTORE PUSH2 0x16C0 PUSH1 0x0 RETURN INVALID PUSH1 0x80 PUSH1 0x40 MSTORE PUSH1 0x4 CALLDATASIZE LT PUSH2 0xDD JUMPI PUSH1 0x0 CALLDATALOAD PUSH1 0xE0 SHR DUP1 PUSH4 0x8B7AFE2E GT PUSH2 0x7F JUMPI DUP1 PUSH4 0xC6384071 GT PUSH2 0x59 JUMPI DUP1 PUSH4 0xC6384071 EQ PUSH2 0x278 JUMPI DUP1 PUSH4 0xC9DC70DD EQ PUSH2 0x2A5 JUMPI DUP1 PUSH4 0xD0FEFCD6 EQ PUSH2 0x2AF JUMPI DUP1 PUSH4 0xDBA6335F EQ PUSH2 0x2EC JUMPI PUSH2 0xDD JUMP JUMPDEST DUP1 PUSH4 0x8B7AFE2E EQ PUSH2 0x20B JUMPI DUP1 PUSH4 0x90CF581C EQ PUSH2 0x236 JUMPI DUP1 PUSH4 0xB6DF18B7 EQ PUSH2 0x24D JUMPI PUSH2 0xDD JUMP JUMPDEST DUP1 PUSH4 0x3A488EAA GT PUSH2 0xBB JUMPI DUP1 PUSH4 0x3A488EAA EQ PUSH2 0x173 JUMPI DUP1 PUSH4 0x41C12A70 EQ PUSH2 0x19E JUMPI DUP1 PUSH4 0x55A373D6 EQ PUSH2 0x1B5 JUMPI DUP1 PUSH4 0x5F5300FF EQ PUSH2 0x1E0 JUMPI PUSH2 0xDD JUMP JUMPDEST DUP1 PUSH4 0x9EEF43E EQ PUSH2 0xE2 JUMPI DUP1 PUSH4 0x28F371AA EQ PUSH2 0x11F JUMPI DUP1 PUSH4 0x37D5D81D EQ PUSH2 0x14A JUMPI JUMPDEST PUSH1 0x0 DUP1 REVERT JUMPDEST CALLVALUE DUP1 ISZERO PUSH2 0xEE JUMPI PUSH1 0x0 DUP1 REVERT JUMPDEST POP PUSH2 0x109 PUSH1 0x4 DUP1 CALLDATASIZE SUB DUP2 ADD SWAP1 PUSH2 0x104 SWAP2 SWAP1 PUSH2 0xF0E JUMP JUMPDEST PUSH2 0x317 JUMP JUMPDEST PUSH1 0x40 MLOAD PUSH2 0x116 SWAP2 SWAP1 PUSH2 0xF56 JUMP JUMPDEST PUSH1 0x40 MLOAD DUP1 SWAP2 SUB SWAP1 RETURN JUMPDEST CALLVALUE DUP1 ISZERO PUSH2 0x12B JUMPI PUSH1 0x0 DUP1 REVERT JUMPDEST POP PUSH2 0x134 PUSH2 0x337 JUMP JUMPDEST PUSH1 0x40 MLOAD PUSH2 0x141 SWAP2 SWAP1 PUSH2 0xF56 JUMP JUMPDEST PUSH1 0x40 MLOAD DUP1 SWAP2 SUB SWAP1 RETURN JUMPDEST CALLVALUE DUP1 ISZERO PUSH2 0x156 JUMPI PUSH1 0x0 DUP1 REVERT JUMPDEST POP PUSH2 0x171 PUSH1 0x4 DUP1 CALLDATASIZE SUB DUP2 ADD SWAP1 PUSH2 0x16C SWAP2 SWAP1 PUSH2 0xFE5 JUMP JUMPDEST PUSH2 0x3B8 JUMP JUMPDEST STOP JUMPDEST CALLVALUE DUP1 ISZERO PUSH2 0x17F JUMPI PUSH1 0x0 DUP1 REVERT JUMPDEST POP PUSH2 0x188 PUSH2 0x6B3 JUMP JUMPDEST PUSH1 0x40 MLOAD PUSH2 0x195 SWAP2 SWAP1 PUSH2 0x1084 JUMP JUMPDEST PUSH1 0x40 MLOAD DUP1 SWAP2 SUB SWAP1 RETURN JUMPDEST CALLVALUE DUP1 ISZERO PUSH2 0x1AA JUMPI PUSH1 0x0 DUP1 REVERT JUMPDEST POP PUSH2 0x1B3 PUSH2 0x6D9 JUMP JUMPDEST STOP JUMPDEST CALLVALUE DUP1 ISZERO PUSH2 0x1C1 JUMPI PUSH1 0x0 DUP1 REVERT JUMPDEST POP PUSH2 0x1CA PUSH2 0x97A JUMP JUMPDEST PUSH1 0x40 MLOAD PUSH2 0x1D7 SWAP2 SWAP1 PUSH2 0x10C0 JUMP JUMPDEST PUSH1 0x40 MLOAD DUP1 SWAP2 SUB SWAP1 RETURN JUMPDEST CALLVALUE DUP1 ISZERO PUSH2 0x1EC JUMPI PUSH1 0x0 DUP1 REVERT JUMPDEST POP PUSH2 0x1F5 PUSH2 0x99E JUMP JUMPDEST PUSH1 0x40 MLOAD PUSH2 0x202 SWAP2 SWAP1 PUSH2 0x10EA JUMP JUMPDEST PUSH1 0x40 MLOAD DUP1 SWAP2 SUB SWAP1 RETURN JUMPDEST CALLVALUE DUP1 ISZERO PUSH2 0x217 JUMPI PUSH1 0x0 DUP1 REVERT JUMPDEST POP PUSH2 0x220 PUSH2 0x9AB JUMP JUMPDEST PUSH1 0x40 MLOAD PUSH2 0x22D SWAP2 SWAP1 PUSH2 0x10EA JUMP JUMPDEST PUSH1 0x40 MLOAD DUP1 SWAP2 SUB SWAP1 RETURN JUMPDEST CALLVALUE DUP1 ISZERO PUSH2 0x242 JUMPI PUSH1 0x0 DUP1 REVERT JUMPDEST POP PUSH2 0x24B PUSH2 0x9B3 JUMP JUMPDEST STOP JUMPDEST CALLVALUE DUP1 ISZERO PUSH2 0x259 JUMPI PUSH1 0x0 DUP1 REVERT JUMPDEST POP PUSH2 0x262 PUSH2 0xC5C JUMP JUMPDEST PUSH1 0x40 MLOAD PUSH2 0x26F SWAP2 SWAP1 PUSH2 0x10EA JUMP JUMPDEST PUSH1 0x40 MLOAD DUP1 SWAP2 SUB SWAP1 RETURN JUMPDEST CALLVALUE DUP1 ISZERO PUSH2 0x284 JUMPI PUSH1 0x0 DUP1 REVERT JUMPDEST POP PUSH2 0x28D PUSH2 0xCF4 JUMP JUMPDEST PUSH1 0x40 MLOAD PUSH2 0x29C SWAP4 SWAP3 SWAP2 SWAP1 PUSH2 0x1105 JUMP JUMPDEST PUSH1 0x40 MLOAD DUP1 SWAP2 SUB SWAP1 RETURN JUMPDEST PUSH2 0x2AD PUSH2 0xD0C JUMP JUMPDEST STOP JUMPDEST CALLVALUE DUP1 ISZERO PUSH2 0x2BB JUMPI PUSH1 0x0 DUP1 REVERT JUMPDEST POP PUSH2 0x2D6 PUSH1 0x4 DUP1 CALLDATASIZE SUB DUP2 ADD SWAP1 PUSH2 0x2D1 SWAP2 SWAP1 PUSH2 0xF0E JUMP JUMPDEST PUSH2 0xE6F JUMP JUMPDEST PUSH1 0x40 MLOAD PUSH2 0x2E3 SWAP2 SWAP1 PUSH2 0x10EA JUMP JUMPDEST PUSH1 0x40 MLOAD DUP1 SWAP2 SUB SWAP1 RETURN JUMPDEST CALLVALUE DUP1 ISZERO PUSH2 0x2F8 JUMPI PUSH1 0x0 DUP1 REVERT JUMPDEST POP PUSH2 0x301 PUSH2 0xE87 JUMP JUMPDEST PUSH1 0x40 MLOAD PUSH2 0x30E SWAP2 SWAP1 PUSH2 0x114B JUMP JUMPDEST PUSH1 0x40 MLOAD DUP1 SWAP2 SUB SWAP1 RETURN JUMPDEST PUSH1 0x2 PUSH1 0x20 MSTORE DUP1 PUSH1 0x0 MSTORE PUSH1 0x40 PUSH1 0x0 KECCAK256 PUSH1 0x0 SWAP2 POP SLOAD SWAP1 PUSH2 0x100 EXP SWAP1 DIV PUSH1 0xFF AND DUP2 JUMP JUMPDEST PUSH1 0x0 DUP1 PUSH2 0x342 PUSH2 0xC5C JUMP JUMPDEST PUSH2 0x34A PUSH2 0x99E JUMP JUMPDEST EQ PUSH2 0x38A JUMPI PUSH1 0x40 MLOAD PUSH32 0x8C379A000000000000000000000000000000000000000000000000000000000 DUP2 MSTORE PUSH1 0x4 ADD PUSH2 0x381 SWAP1 PUSH2 0x11C3 JUMP JUMPDEST PUSH1 0x40 MLOAD DUP1 SWAP2 SUB SWAP1 REVERT JUMPDEST PUSH1 0x4 PUSH1 0x0 ADD SLOAD PUSH1 0x64 PUSH1 0x4 PUSH1 0x1 ADD SLOAD PUSH2 0x3A2 SWAP2 SWAP1 PUSH2 0x1212 JUMP JUMPDEST PUSH2 0x3AC SWAP2 SWAP1 PUSH2 0x1283 JUMP JUMPDEST SWAP1 POP PUSH1 0x32 DUP2 GT SWAP2 POP POP SWAP1 JUMP JUMPDEST PUSH32 0x0 PUSH20 0xFFFFFFFFFFFFFFFFFFFFFFFFFFFFFFFFFFFFFFFF AND CALLER PUSH20 0xFFFFFFFFFFFFFFFFFFFFFFFFFFFFFFFFFFFFFFFF AND EQ PUSH2 0x446 JUMPI PUSH1 0x40 MLOAD PUSH32 0x8C379A000000000000000000000000000000000000000000000000000000000 DUP2 MSTORE PUSH1 0x4 ADD PUSH2 0x43D SWAP1 PUSH2 0x1300 JUMP JUMPDEST PUSH1 0x40 MLOAD DUP1 SWAP2 SUB SWAP1 REVERT JUMPDEST PUSH32 0x0 PUSH20 0xFFFFFFFFFFFFFFFFFFFFFFFFFFFFFFFFFFFFFFFF AND CALLER PUSH20 0xFFFFFFFFFFFFFFFFFFFFFFFFFFFFFFFFFFFFFFFF AND EQ PUSH2 0x4CB JUMPI PUSH1 0x40 MLOAD PUSH32 0x30CD747100000000000000000000000000000000000000000000000000000000 DUP2 MSTORE PUSH1 0x4 ADD PUSH1 0x40 MLOAD DUP1 SWAP2 SUB SWAP1 REVERT JUMPDEST PUSH2 0x4D3 PUSH2 0x337 JUMP JUMPDEST PUSH2 0x512 JUMPI PUSH1 0x40 MLOAD PUSH32 0x8C379A000000000000000000000000000000000000000000000000000000000 DUP2 MSTORE PUSH1 0x4 ADD PUSH2 0x509 SWAP1 PUSH2 0x136C JUMP JUMPDEST PUSH1 0x40 MLOAD DUP1 SWAP2 SUB SWAP1 REVERT JUMPDEST PUSH1 0x0 PUSH20 0xFFFFFFFFFFFFFFFFFFFFFFFFFFFFFFFFFFFFFFFF AND DUP3 PUSH20 0xFFFFFFFFFFFFFFFFFFFFFFFFFFFFFFFFFFFFFFFF AND SUB PUSH2 0x581 JUMPI PUSH1 0x40 MLOAD PUSH32 0x8C379A000000000000000000000000000000000000000000000000000000000 DUP2 MSTORE PUSH1 0x4 ADD PUSH2 0x578 SWAP1 PUSH2 0x13D8 JUMP JUMPDEST PUSH1 0x40 MLOAD DUP1 SWAP2 SUB SWAP1 REVERT JUMPDEST DUP1 SELFBALANCE LT ISZERO PUSH2 0x5C4 JUMPI PUSH1 0x40 MLOAD PUSH32 0x8C379A000000000000000000000000000000000000000000000000000000000 DUP2 MSTORE PUSH1 0x4 ADD PUSH2 0x5BB SWAP1 PUSH2 0x1444 JUMP JUMPDEST PUSH1 0x40 MLOAD DUP1 SWAP2 SUB SWAP1 REVERT JUMPDEST DUP2 PUSH20 0xFFFFFFFFFFFFFFFFFFFFFFFFFFFFFFFFFFFFFFFF AND PUSH2 0x8FC DUP3 SWAP1 DUP2 ISZERO MUL SWAP1 PUSH1 0x40 MLOAD PUSH1 0x0 PUSH1 0x40 MLOAD DUP1 DUP4 SUB DUP2 DUP6 DUP9 DUP9 CALL SWAP4 POP POP POP POP ISZERO DUP1 ISZERO PUSH2 0x60A JUMPI RETURNDATASIZE PUSH1 0x0 DUP1 RETURNDATACOPY RETURNDATASIZE PUSH1 0x0 REVERT JUMPDEST POP DUP1 PUSH1 0x3 PUSH1 0x0 DUP5 PUSH20 0xFFFFFFFFFFFFFFFFFFFFFFFFFFFFFFFFFFFFFFFF AND PUSH20 0xFFFFFFFFFFFFFFFFFFFFFFFFFFFFFFFFFFFFFFFF AND DUP2 MSTORE PUSH1 0x20 ADD SWAP1 DUP2 MSTORE PUSH1 0x20 ADD PUSH1 0x0 KECCAK256 PUSH1 0x0 DUP3 DUP3 SLOAD PUSH2 0x65A SWAP2 SWAP1 PUSH2 0x1464 JUMP JUMPDEST SWAP3 POP POP DUP2 SWAP1 SSTORE POP DUP2 PUSH20 0xFFFFFFFFFFFFFFFFFFFFFFFFFFFFFFFFFFFFFFFF AND PUSH32 0x47DB2ABCE6D5FBCD80FFD9B4BA74DCDE804A746EF732BC7F8A70FABFC912C590 DUP3 PUSH1 0x40 MLOAD PUSH2 0x6A7 SWAP2 SWAP1 PUSH2 0x10EA JUMP JUMPDEST PUSH1 0x40 MLOAD DUP1 SWAP2 SUB SWAP1 LOG2 POP POP JUMP JUMPDEST PUSH1 0x1 PUSH1 0x0 SWAP1 SLOAD SWAP1 PUSH2 0x100 EXP SWAP1 DIV PUSH20 0xFFFFFFFFFFFFFFFFFFFFFFFFFFFFFFFFFFFFFFFF AND DUP2 JUMP JUMPDEST PUSH1 0x2 PUSH1 0x0 CALLER PUSH20 0xFFFFFFFFFFFFFFFFFFFFFFFFFFFFFFFFFFFFFFFF AND PUSH20 0xFFFFFFFFFFFFFFFFFFFFFFFFFFFFFFFFFFFFFFFF AND DUP2 MSTORE PUSH1 0x20 ADD SWAP1 DUP2 MSTORE PUSH1 0x20 ADD PUSH1 0x0 KECCAK256 PUSH1 0x0 SWAP1 SLOAD SWAP1 PUSH2 0x100 EXP SWAP1 DIV PUSH1 0xFF AND ISZERO PUSH2 0x766 JUMPI PUSH1 0x40 MLOAD PUSH32 0x8C379A000000000000000000000000000000000000000000000000000000000 DUP2 MSTORE PUSH1 0x4 ADD PUSH2 0x75D SWAP1 PUSH2 0x14E4 JUMP JUMPDEST PUSH1 0x40 MLOAD DUP1 SWAP2 SUB SWAP1 REVERT JUMPDEST PUSH1 0x0 PUSH1 0x1 SWAP1 POP DUP1 PUSH1 0x0 DUP1 SLOAD SWAP1 PUSH2 0x100 EXP SWAP1 DIV PUSH20 0xFFFFFFFFFFFFFFFFFFFFFFFFFFFFFFFFFFFFFFFF AND PUSH20 0xFFFFFFFFFFFFFFFFFFFFFFFFFFFFFFFFFFFFFFFF AND PUSH4 0x70A08231 CALLER PUSH1 0x40 MLOAD DUP3 PUSH4 0xFFFFFFFF AND PUSH1 0xE0 SHL DUP2 MSTORE PUSH1 0x4 ADD PUSH2 0x7C6 SWAP2 SWAP1 PUSH2 0x114B JUMP JUMPDEST PUSH1 0x20 PUSH1 0x40 MLOAD DUP1 DUP4 SUB DUP2 DUP7 GAS STATICCALL ISZERO DUP1 ISZERO PUSH2 0x7E3 JUMPI RETURNDATASIZE PUSH1 0x0 DUP1 RETURNDATACOPY RETURNDATASIZE PUSH1 0x0 REVERT JUMPDEST POP POP POP POP PUSH1 0x40 MLOAD RETURNDATASIZE PUSH1 0x1F NOT PUSH1 0x1F DUP3 ADD AND DUP3 ADD DUP1 PUSH1 0x40 MSTORE POP DUP2 ADD SWAP1 PUSH2 0x807 SWAP2 SWAP1 PUSH2 0x1519 JUMP JUMPDEST LT ISZERO PUSH2 0x848 JUMPI PUSH1 0x40 MLOAD PUSH32 0x8C379A000000000000000000000000000000000000000000000000000000000 DUP2 MSTORE PUSH1 0x4 ADD PUSH2 0x83F SWAP1 PUSH2 0x1592 JUMP JUMPDEST PUSH1 0x40 MLOAD DUP1 SWAP2 SUB SWAP1 REVERT JUMPDEST PUSH1 0x0 DUP1 SLOAD SWAP1 PUSH2 0x100 EXP SWAP1 DIV PUSH20 0xFFFFFFFFFFFFFFFFFFFFFFFFFFFFFFFFFFFFFFFF AND PUSH20 0xFFFFFFFFFFFFFFFFFFFFFFFFFFFFFFFFFFFFFFFF AND PUSH4 0xBEABACC8 CALLER ADDRESS DUP5 PUSH1 0x40 MLOAD DUP5 PUSH4 0xFFFFFFFF AND PUSH1 0xE0 SHL DUP2 MSTORE PUSH1 0x4 ADD PUSH2 0x8A5 SWAP4 SWAP3 SWAP2 SWAP1 PUSH2 0x15B2 JUMP JUMPDEST PUSH1 0x20 PUSH1 0x40 MLOAD DUP1 DUP4 SUB DUP2 PUSH1 0x0 DUP8 GAS CALL ISZERO DUP1 ISZERO PUSH2 0x8C4 JUMPI RETURNDATASIZE PUSH1 0x0 DUP1 RETURNDATACOPY RETURNDATASIZE PUSH1 0x0 REVERT JUMPDEST POP POP POP POP PUSH1 0x40 MLOAD RETURNDATASIZE PUSH1 0x1F NOT PUSH1 0x1F DUP3 ADD AND DUP3 ADD DUP1 PUSH1 0x40 MSTORE POP DUP2 ADD SWAP1 PUSH2 0x8E8 SWAP2 SWAP1 PUSH2 0x1615 JUMP JUMPDEST POP PUSH1 0x1 PUSH1 0x2 PUSH1 0x0 CALLER PUSH20 0xFFFFFFFFFFFFFFFFFFFFFFFFFFFFFFFFFFFFFFFF AND PUSH20 0xFFFFFFFFFFFFFFFFFFFFFFFFFFFFFFFFFFFFFFFF AND DUP2 MSTORE PUSH1 0x20 ADD SWAP1 DUP2 MSTORE PUSH1 0x20 ADD PUSH1 0x0 KECCAK256 PUSH1 0x0 PUSH2 0x100 EXP DUP2 SLOAD DUP2 PUSH1 0xFF MUL NOT AND SWAP1 DUP4 ISZERO ISZERO MUL OR SWAP1 SSTORE POP PUSH1 0x4 PUSH1 0x0 ADD PUSH1 0x0 DUP2 SLOAD DUP1 SWAP3 SWAP2 SWAP1 PUSH2 0x957 SWAP1 PUSH2 0x1642 JUMP JUMPDEST SWAP2 SWAP1 POP SSTORE POP PUSH1 0x4 PUSH1 0x2 ADD PUSH1 0x0 DUP2 SLOAD DUP1 SWAP3 SWAP2 SWAP1 PUSH2 0x972 SWAP1 PUSH2 0x1642 JUMP JUMPDEST SWAP2 SWAP1 POP SSTORE POP POP JUMP JUMPDEST PUSH1 0x0 DUP1 SLOAD SWAP1 PUSH2 0x100 EXP SWAP1 DIV PUSH20 0xFFFFFFFFFFFFFFFFFFFFFFFFFFFFFFFFFFFFFFFF AND DUP2 JUMP JUMPDEST PUSH1 0x0 PUSH1 0x4 PUSH1 0x0 ADD SLOAD SWAP1 POP SWAP1 JUMP JUMPDEST PUSH1 0x0 SELFBALANCE SWAP1 POP SWAP1 JUMP JUMPDEST PUSH1 0x2 PUSH1 0x0 CALLER PUSH20 0xFFFFFFFFFFFFFFFFFFFFFFFFFFFFFFFFFFFFFFFF AND PUSH20 0xFFFFFFFFFFFFFFFFFFFFFFFFFFFFFFFFFFFFFFFF AND DUP2 MSTORE PUSH1 0x20 ADD SWAP1 DUP2 MSTORE PUSH1 0x20 ADD PUSH1 0x0 KECCAK256 PUSH1 0x0 SWAP1 SLOAD SWAP1 PUSH2 0x100 EXP SWAP1 DIV PUSH1 0xFF AND ISZERO PUSH2 0xA40 JUMPI PUSH1 0x40 MLOAD PUSH32 0x8C379A000000000000000000000000000000000000000000000000000000000 DUP2 MSTORE PUSH1 0x4 ADD PUSH2 0xA37 SWAP1 PUSH2 0x14E4 JUMP JUMPDEST PUSH1 0x40 MLOAD DUP1 SWAP2 SUB SWAP1 REVERT JUMPDEST PUSH1 0x0 PUSH1 0x1 SWAP1 POP DUP1 PUSH1 0x0 DUP1 SLOAD SWAP1 PUSH2 0x100 EXP SWAP1 DIV PUSH20 0xFFFFFFFFFFFFFFFFFFFFFFFFFFFFFFFFFFFFFFFF AND PUSH20 0xFFFFFFFFFFFFFFFFFFFFFFFFFFFFFFFFFFFFFFFF AND PUSH4 0x70A08231 CALLER PUSH1 0x40 MLOAD DUP3 PUSH4 0xFFFFFFFF AND PUSH1 0xE0 SHL DUP2 MSTORE PUSH1 0x4 ADD PUSH2 0xAA0 SWAP2 SWAP1 PUSH2 0x114B JUMP JUMPDEST PUSH1 0x20 PUSH1 0x40 MLOAD DUP1 DUP4 SUB DUP2 DUP7 GAS STATICCALL ISZERO DUP1 ISZERO PUSH2 0xABD JUMPI RETURNDATASIZE PUSH1 0x0 DUP1 RETURNDATACOPY RETURNDATASIZE PUSH1 0x0 REVERT JUMPDEST POP POP POP POP PUSH1 0x40 MLOAD RETURNDATASIZE PUSH1 0x1F NOT PUSH1 0x1F DUP3 ADD AND DUP3 ADD DUP1 PUSH1 0x40 MSTORE POP DUP2 ADD SWAP1 PUSH2 0xAE1 SWAP2 SWAP1 PUSH2 0x1519 JUMP JUMPDEST LT ISZERO PUSH2 0xB22 JUMPI PUSH1 0x40 MLOAD PUSH32 0x8C379A000000000000000000000000000000000000000000000000000000000 DUP2 MSTORE PUSH1 0x4 ADD PUSH2 0xB19 SWAP1 PUSH2 0x1592 JUMP JUMPDEST PUSH1 0x40 MLOAD DUP1 SWAP2 SUB SWAP1 REVERT JUMPDEST PUSH1 0x0 DUP1 SLOAD SWAP1 PUSH2 0x100 EXP SWAP1 DIV PUSH20 0xFFFFFFFFFFFFFFFFFFFFFFFFFFFFFFFFFFFFFFFF AND PUSH20 0xFFFFFFFFFFFFFFFFFFFFFFFFFFFFFFFFFFFFFFFF AND PUSH4 0xBEABACC8 CALLER ADDRESS DUP5 PUSH1 0x40 MLOAD DUP5 PUSH4 0xFFFFFFFF AND PUSH1 0xE0 SHL DUP2 MSTORE PUSH1 0x4 ADD PUSH2 0xB7F SWAP4 SWAP3 SWAP2 SWAP1 PUSH2 0x15B2 JUMP JUMPDEST PUSH1 0x20 PUSH1 0x40 MLOAD DUP1 DUP4 SUB DUP2 PUSH1 0x0 DUP8 GAS CALL ISZERO DUP1 ISZERO PUSH2 0xB9E JUMPI RETURNDATASIZE PUSH1 0x0 DUP1 RETURNDATACOPY RETURNDATASIZE PUSH1 0x0 REVERT JUMPDEST POP POP POP POP PUSH1 0x40 MLOAD RETURNDATASIZE PUSH1 0x1F NOT PUSH1 0x1F DUP3 ADD AND DUP3 ADD DUP1 PUSH1 0x40 MSTORE POP DUP2 ADD SWAP1 PUSH2 0xBC2 SWAP2 SWAP1 PUSH2 0x1615 JUMP JUMPDEST PUSH2 0xBCB JUMPI PUSH1 0x0 DUP1 REVERT JUMPDEST PUSH1 0x1 PUSH1 0x2 PUSH1 0x0 CALLER PUSH20 0xFFFFFFFFFFFFFFFFFFFFFFFFFFFFFFFFFFFFFFFF AND PUSH20 0xFFFFFFFFFFFFFFFFFFFFFFFFFFFFFFFFFFFFFFFF AND DUP2 MSTORE PUSH1 0x20 ADD SWAP1 DUP2 MSTORE PUSH1 0x20 ADD PUSH1 0x0 KECCAK256 PUSH1 0x0 PUSH2 0x100 EXP DUP2 SLOAD DUP2 PUSH1 0xFF MUL NOT AND SWAP1 DUP4 ISZERO ISZERO MUL OR SWAP1 SSTORE POP PUSH1 0x4 PUSH1 0x0 ADD PUSH1 0x0 DUP2 SLOAD DUP1 SWAP3 SWAP2 SWAP1 PUSH2 0xC39 SWAP1 PUSH2 0x1642 JUMP JUMPDEST SWAP2 SWAP1 POP SSTORE POP PUSH1 0x4 PUSH1 0x1 ADD PUSH1 0x0 DUP2 SLOAD DUP1 SWAP3 SWAP2 SWAP1 PUSH2 0xC54 SWAP1 PUSH2 0x1642 JUMP JUMPDEST SWAP2 SWAP1 POP SSTORE POP POP JUMP JUMPDEST PUSH1 0x0 PUSH1 0x1 PUSH1 0x0 SWAP1 SLOAD SWAP1 PUSH2 0x100 EXP SWAP1 DIV PUSH20 0xFFFFFFFFFFFFFFFFFFFFFFFFFFFFFFFFFFFFFFFF AND PUSH20 0xFFFFFFFFFFFFFFFFFFFFFFFFFFFFFFFFFFFFFFFF AND PUSH4 0xB6DF18B7 PUSH1 0x40 MLOAD DUP2 PUSH4 0xFFFFFFFF AND PUSH1 0xE0 SHL DUP2 MSTORE PUSH1 0x4 ADD PUSH1 0x20 PUSH1 0x40 MLOAD DUP1 DUP4 SUB DUP2 DUP7 GAS STATICCALL ISZERO DUP1 ISZERO PUSH2 0xCCB JUMPI RETURNDATASIZE PUSH1 0x0 DUP1 RETURNDATACOPY RETURNDATASIZE PUSH1 0x0 REVERT JUMPDEST POP POP POP POP PUSH1 0x40 MLOAD RETURNDATASIZE PUSH1 0x1F NOT PUSH1 0x1F DUP3 ADD AND DUP3 ADD DUP1 PUSH1 0x40 MSTORE POP DUP2 ADD SWAP1 PUSH2 0xCEF SWAP2 SWAP1 PUSH2 0x1519 JUMP JUMPDEST SWAP1 POP SWAP1 JUMP JUMPDEST PUSH1 0x4 DUP1 PUSH1 0x0 ADD SLOAD SWAP1 DUP1 PUSH1 0x1 ADD SLOAD SWAP1 DUP1 PUSH1 0x2 ADD SLOAD SWAP1 POP DUP4 JUMP JUMPDEST PUSH32 0x0 PUSH20 0xFFFFFFFFFFFFFFFFFFFFFFFFFFFFFFFFFFFFFFFF AND CALLER PUSH20 0xFFFFFFFFFFFFFFFFFFFFFFFFFFFFFFFFFFFFFFFF AND EQ PUSH2 0xD9A JUMPI PUSH1 0x40 MLOAD PUSH32 0x8C379A000000000000000000000000000000000000000000000000000000000 DUP2 MSTORE PUSH1 0x4 ADD PUSH2 0xD91 SWAP1 PUSH2 0x1300 JUMP JUMPDEST PUSH1 0x40 MLOAD DUP1 SWAP2 SUB SWAP1 REVERT JUMPDEST PUSH32 0x0 PUSH20 0xFFFFFFFFFFFFFFFFFFFFFFFFFFFFFFFFFFFFFFFF AND CALLER PUSH20 0xFFFFFFFFFFFFFFFFFFFFFFFFFFFFFFFFFFFFFFFF AND EQ PUSH2 0xE1F JUMPI PUSH1 0x40 MLOAD PUSH32 0x30CD747100000000000000000000000000000000000000000000000000000000 DUP2 MSTORE PUSH1 0x4 ADD PUSH1 0x40 MLOAD DUP1 SWAP2 SUB SWAP1 REVERT JUMPDEST CALLER PUSH20 0xFFFFFFFFFFFFFFFFFFFFFFFFFFFFFFFFFFFFFFFF AND PUSH32 0x9936746A4565F9766FA768F88F56A7487C78780AC179562773D1C75C5269537E CALLVALUE PUSH1 0x40 MLOAD PUSH2 0xE65 SWAP2 SWAP1 PUSH2 0x10EA JUMP JUMPDEST PUSH1 0x40 MLOAD DUP1 SWAP2 SUB SWAP1 LOG2 JUMP JUMPDEST PUSH1 0x3 PUSH1 0x20 MSTORE DUP1 PUSH1 0x0 MSTORE PUSH1 0x40 PUSH1 0x0 KECCAK256 PUSH1 0x0 SWAP2 POP SWAP1 POP SLOAD DUP2 JUMP JUMPDEST PUSH32 0x0 DUP2 JUMP JUMPDEST PUSH1 0x0 DUP1 REVERT JUMPDEST PUSH1 0x0 PUSH20 0xFFFFFFFFFFFFFFFFFFFFFFFFFFFFFFFFFFFFFFFF DUP3 AND SWAP1 POP SWAP2 SWAP1 POP JUMP JUMPDEST PUSH1 0x0 PUSH2 0xEDB DUP3 PUSH2 0xEB0 JUMP JUMPDEST SWAP1 POP SWAP2 SWAP1 POP JUMP JUMPDEST PUSH2 0xEEB DUP2 PUSH2 0xED0 JUMP JUMPDEST DUP2 EQ PUSH2 0xEF6 JUMPI PUSH1 0x0 DUP1 REVERT JUMPDEST POP JUMP JUMPDEST PUSH1 0x0 DUP2 CALLDATALOAD SWAP1 POP PUSH2 0xF08 DUP2 PUSH2 0xEE2 JUMP JUMPDEST SWAP3 SWAP2 POP POP JUMP JUMPDEST PUSH1 0x0 PUSH1 0x20 DUP3 DUP5 SUB SLT ISZERO PUSH2 0xF24 JUMPI PUSH2 0xF23 PUSH2 0xEAB JUMP JUMPDEST JUMPDEST PUSH1 0x0 PUSH2 0xF32 DUP5 DUP3 DUP6 ADD PUSH2 0xEF9 JUMP JUMPDEST SWAP2 POP POP SWAP3 SWAP2 POP POP JUMP JUMPDEST PUSH1 0x0 DUP2 ISZERO ISZERO SWAP1 POP SWAP2 SWAP1 POP JUMP JUMPDEST PUSH2 0xF50 DUP2 PUSH2 0xF3B JUMP JUMPDEST DUP3 MSTORE POP POP JUMP JUMPDEST PUSH1 0x0 PUSH1 0x20 DUP3 ADD SWAP1 POP PUSH2 0xF6B PUSH1 0x0 DUP4 ADD DUP5 PUSH2 0xF47 JUMP JUMPDEST SWAP3 SWAP2 POP POP JUMP JUMPDEST PUSH1 0x0 PUSH2 0xF7C DUP3 PUSH2 0xEB0 JUMP JUMPDEST SWAP1 POP SWAP2 SWAP1 POP JUMP JUMPDEST PUSH2 0xF8C DUP2 PUSH2 0xF71 JUMP JUMPDEST DUP2 EQ PUSH2 0xF97 JUMPI PUSH1 0x0 DUP1 REVERT JUMPDEST POP JUMP JUMPDEST PUSH1 0x0 DUP2 CALLDATALOAD SWAP1 POP PUSH2 0xFA9 DUP2 PUSH2 0xF83 JUMP JUMPDEST SWAP3 SWAP2 POP POP JUMP JUMPDEST PUSH1 0x0 DUP2 SWAP1 POP SWAP2 SWAP1 POP JUMP JUMPDEST PUSH2 0xFC2 DUP2 PUSH2 0xFAF JUMP JUMPDEST DUP2 EQ PUSH2 0xFCD JUMPI PUSH1 0x0 DUP1 REVERT JUMPDEST POP JUMP JUMPDEST PUSH1 0x0 DUP2 CALLDATALOAD SWAP1 POP PUSH2 0xFDF DUP2 PUSH2 0xFB9 JUMP JUMPDEST SWAP3 SWAP2 POP POP JUMP JUMPDEST PUSH1 0x0 DUP1 PUSH1 0x40 DUP4 DUP6 SUB SLT ISZERO PUSH2 0xFFC JUMPI PUSH2 0xFFB PUSH2 0xEAB JUMP JUMPDEST JUMPDEST PUSH1 0x0 PUSH2 0x100A DUP6 DUP3 DUP7 ADD PUSH2 0xF9A JUMP JUMPDEST SWAP3 POP POP PUSH1 0x20 PUSH2 0x101B DUP6 DUP3 DUP7 ADD PUSH2 0xFD0 JUMP JUMPDEST SWAP2 POP POP SWAP3 POP SWAP3 SWAP1 POP JUMP JUMPDEST PUSH1 0x0 DUP2 SWAP1 POP SWAP2 SWAP1 POP JUMP JUMPDEST PUSH1 0x0 PUSH2 0x104A PUSH2 0x1045 PUSH2 0x1040 DUP5 PUSH2 0xEB0 JUMP JUMPDEST PUSH2 0x1025 JUMP JUMPDEST PUSH2 0xEB0 JUMP JUMPDEST SWAP1 POP SWAP2 SWAP1 POP JUMP JUMPDEST PUSH1 0x0 PUSH2 0x105C DUP3 PUSH2 0x102F JUMP JUMPDEST SWAP1 POP SWAP2 SWAP1 POP JUMP JUMPDEST PUSH1 0x0 PUSH2 0x106E DUP3 PUSH2 0x1051 JUMP JUMPDEST SWAP1 POP SWAP2 SWAP1 POP JUMP JUMPDEST PUSH2 0x107E DUP2 PUSH2 0x1063 JUMP JUMPDEST DUP3 MSTORE POP POP JUMP JUMPDEST PUSH1 0x0 PUSH1 0x20 DUP3 ADD SWAP1 POP PUSH2 0x1099 PUSH1 0x0 DUP4 ADD DUP5 PUSH2 0x1075 JUMP JUMPDEST SWAP3 SWAP2 POP POP JUMP JUMPDEST PUSH1 0x0 PUSH2 0x10AA DUP3 PUSH2 0x1051 JUMP JUMPDEST SWAP1 POP SWAP2 SWAP1 POP JUMP JUMPDEST PUSH2 0x10BA DUP2 PUSH2 0x109F JUMP JUMPDEST DUP3 MSTORE POP POP JUMP JUMPDEST PUSH1 0x0 PUSH1 0x20 DUP3 ADD SWAP1 POP PUSH2 0x10D5 PUSH1 0x0 DUP4 ADD DUP5 PUSH2 0x10B1 JUMP JUMPDEST SWAP3 SWAP2 POP POP JUMP JUMPDEST PUSH2 0x10E4 DUP2 PUSH2 0xFAF JUMP JUMPDEST DUP3 MSTORE POP POP JUMP JUMPDEST PUSH1 0x0 PUSH1 0x20 DUP3 ADD SWAP1 POP PUSH2 0x10FF PUSH1 0x0 DUP4 ADD DUP5 PUSH2 0x10DB JUMP JUMPDEST SWAP3 SWAP2 POP POP JUMP JUMPDEST PUSH1 0x0 PUSH1 0x60 DUP3 ADD SWAP1 POP PUSH2 0x111A PUSH1 0x0 DUP4 ADD DUP7 PUSH2 0x10DB JUMP JUMPDEST PUSH2 0x1127 PUSH1 0x20 DUP4 ADD DUP6 PUSH2 0x10DB JUMP JUMPDEST PUSH2 0x1134 PUSH1 0x40 DUP4 ADD DUP5 PUSH2 0x10DB JUMP JUMPDEST SWAP5 SWAP4 POP POP POP POP JUMP JUMPDEST PUSH2 0x1145 DUP2 PUSH2 0xED0 JUMP JUMPDEST DUP3 MSTORE POP POP JUMP JUMPDEST PUSH1 0x0 PUSH1 0x20 DUP3 ADD SWAP1 POP PUSH2 0x1160 PUSH1 0x0 DUP4 ADD DUP5 PUSH2 0x113C JUMP JUMPDEST SWAP3 SWAP2 POP POP JUMP JUMPDEST PUSH1 0x0 DUP3 DUP3 MSTORE PUSH1 0x20 DUP3 ADD SWAP1 POP SWAP3 SWAP2 POP POP JUMP JUMPDEST PUSH32 0x4E6F742065766572796F6E652068617320766F74656400000000000000000000 PUSH1 0x0 DUP3 ADD MSTORE POP JUMP JUMPDEST PUSH1 0x0 PUSH2 0x11AD PUSH1 0x16 DUP4 PUSH2 0x1166 JUMP JUMPDEST SWAP2 POP PUSH2 0x11B8 DUP3 PUSH2 0x1177 JUMP JUMPDEST PUSH1 0x20 DUP3 ADD SWAP1 POP SWAP2 SWAP1 POP JUMP JUMPDEST PUSH1 0x0 PUSH1 0x20 DUP3 ADD SWAP1 POP DUP2 DUP2 SUB PUSH1 0x0 DUP4 ADD MSTORE PUSH2 0x11DC DUP2 PUSH2 0x11A0 JUMP JUMPDEST SWAP1 POP SWAP2 SWAP1 POP JUMP JUMPDEST PUSH32 0x4E487B7100000000000000000000000000000000000000000000000000000000 PUSH1 0x0 MSTORE PUSH1 0x11 PUSH1 0x4 MSTORE PUSH1 0x24 PUSH1 0x0 REVERT JUMPDEST PUSH1 0x0 PUSH2 0x121D DUP3 PUSH2 0xFAF JUMP JUMPDEST SWAP2 POP PUSH2 0x1228 DUP4 PUSH2 0xFAF JUMP JUMPDEST SWAP3 POP DUP3 DUP3 MUL PUSH2 0x1236 DUP2 PUSH2 0xFAF JUMP JUMPDEST SWAP2 POP DUP3 DUP3 DIV DUP5 EQ DUP4 ISZERO OR PUSH2 0x124D JUMPI PUSH2 0x124C PUSH2 0x11E3 JUMP JUMPDEST JUMPDEST POP SWAP3 SWAP2 POP POP JUMP JUMPDEST PUSH32 0x4E487B7100000000000000000000000000000000000000000000000000000000 PUSH1 0x0 MSTORE PUSH1 0x12 PUSH1 0x4 MSTORE PUSH1 0x24 PUSH1 0x0 REVERT JUMPDEST PUSH1 0x0 PUSH2 0x128E DUP3 PUSH2 0xFAF JUMP JUMPDEST SWAP2 POP PUSH2 0x1299 DUP4 PUSH2 0xFAF JUMP JUMPDEST SWAP3 POP DUP3 PUSH2 0x12A9 JUMPI PUSH2 0x12A8 PUSH2 0x1254 JUMP JUMPDEST JUMPDEST DUP3 DUP3 DIV SWAP1 POP SWAP3 SWAP2 POP POP JUMP JUMPDEST PUSH32 0x53656E646572206973206E6F74206F776E657221000000000000000000000000 PUSH1 0x0 DUP3 ADD MSTORE POP JUMP JUMPDEST PUSH1 0x0 PUSH2 0x12EA PUSH1 0x14 DUP4 PUSH2 0x1166 JUMP JUMPDEST SWAP2 POP PUSH2 0x12F5 DUP3 PUSH2 0x12B4 JUMP JUMPDEST PUSH1 0x20 DUP3 ADD SWAP1 POP SWAP2 SWAP1 POP JUMP JUMPDEST PUSH1 0x0 PUSH1 0x20 DUP3 ADD SWAP1 POP DUP2 DUP2 SUB PUSH1 0x0 DUP4 ADD MSTORE PUSH2 0x1319 DUP2 PUSH2 0x12DD JUMP JUMPDEST SWAP1 POP SWAP2 SWAP1 POP JUMP JUMPDEST PUSH32 0x4576656E7420686173206E6F74206265656E20617070726F7665640000000000 PUSH1 0x0 DUP3 ADD MSTORE POP JUMP JUMPDEST PUSH1 0x0 PUSH2 0x1356 PUSH1 0x1B DUP4 PUSH2 0x1166 JUMP JUMPDEST SWAP2 POP PUSH2 0x1361 DUP3 PUSH2 0x1320 JUMP JUMPDEST PUSH1 0x20 DUP3 ADD SWAP1 POP SWAP2 SWAP1 POP JUMP JUMPDEST PUSH1 0x0 PUSH1 0x20 DUP3 ADD SWAP1 POP DUP2 DUP2 SUB PUSH1 0x0 DUP4 ADD MSTORE PUSH2 0x1385 DUP2 PUSH2 0x1349 JUMP JUMPDEST SWAP1 POP SWAP2 SWAP1 POP JUMP JUMPDEST PUSH32 0x496E76616C69642077616C6C6574206164647265737300000000000000000000 PUSH1 0x0 DUP3 ADD MSTORE POP JUMP JUMPDEST PUSH1 0x0 PUSH2 0x13C2 PUSH1 0x16 DUP4 PUSH2 0x1166 JUMP JUMPDEST SWAP2 POP PUSH2 0x13CD DUP3 PUSH2 0x138C JUMP JUMPDEST PUSH1 0x20 DUP3 ADD SWAP1 POP SWAP2 SWAP1 POP JUMP JUMPDEST PUSH1 0x0 PUSH1 0x20 DUP3 ADD SWAP1 POP DUP2 DUP2 SUB PUSH1 0x0 DUP4 ADD MSTORE PUSH2 0x13F1 DUP2 PUSH2 0x13B5 JUMP JUMPDEST SWAP1 POP SWAP2 SWAP1 POP JUMP JUMPDEST PUSH32 0x496E73756666696369656E742062616C616E6365000000000000000000000000 PUSH1 0x0 DUP3 ADD MSTORE POP JUMP JUMPDEST PUSH1 0x0 PUSH2 0x142E PUSH1 0x14 DUP4 PUSH2 0x1166 JUMP JUMPDEST SWAP2 POP PUSH2 0x1439 DUP3 PUSH2 0x13F8 JUMP JUMPDEST PUSH1 0x20 DUP3 ADD SWAP1 POP SWAP2 SWAP1 POP JUMP JUMPDEST PUSH1 0x0 PUSH1 0x20 DUP3 ADD SWAP1 POP DUP2 DUP2 SUB PUSH1 0x0 DUP4 ADD MSTORE PUSH2 0x145D DUP2 PUSH2 0x1421 JUMP JUMPDEST SWAP1 POP SWAP2 SWAP1 POP JUMP JUMPDEST PUSH1 0x0 PUSH2 0x146F DUP3 PUSH2 0xFAF JUMP JUMPDEST SWAP2 POP PUSH2 0x147A DUP4 PUSH2 0xFAF JUMP JUMPDEST SWAP3 POP DUP3 DUP3 ADD SWAP1 POP DUP1 DUP3 GT ISZERO PUSH2 0x1492 JUMPI PUSH2 0x1491 PUSH2 0x11E3 JUMP JUMPDEST JUMPDEST SWAP3 SWAP2 POP POP JUMP JUMPDEST PUSH32 0x596F75206861766520616C726561647920766F7465642E000000000000000000 PUSH1 0x0 DUP3 ADD MSTORE POP JUMP JUMPDEST PUSH1 0x0 PUSH2 0x14CE PUSH1 0x17 DUP4 PUSH2 0x1166 JUMP JUMPDEST SWAP2 POP PUSH2 0x14D9 DUP3 PUSH2 0x1498 JUMP JUMPDEST PUSH1 0x20 DUP3 ADD SWAP1 POP SWAP2 SWAP1 POP JUMP JUMPDEST PUSH1 0x0 PUSH1 0x20 DUP3 ADD SWAP1 POP DUP2 DUP2 SUB PUSH1 0x0 DUP4 ADD MSTORE PUSH2 0x14FD DUP2 PUSH2 0x14C1 JUMP JUMPDEST SWAP1 POP SWAP2 SWAP1 POP JUMP JUMPDEST PUSH1 0x0 DUP2 MLOAD SWAP1 POP PUSH2 0x1513 DUP2 PUSH2 0xFB9 JUMP JUMPDEST SWAP3 SWAP2 POP POP JUMP JUMPDEST PUSH1 0x0 PUSH1 0x20 DUP3 DUP5 SUB SLT ISZERO PUSH2 0x152F JUMPI PUSH2 0x152E PUSH2 0xEAB JUMP JUMPDEST JUMPDEST PUSH1 0x0 PUSH2 0x153D DUP5 DUP3 DUP6 ADD PUSH2 0x1504 JUMP JUMPDEST SWAP2 POP POP SWAP3 SWAP2 POP POP JUMP JUMPDEST PUSH32 0x496E73756666696369656E742062616C616E636520746F20766F74652E000000 PUSH1 0x0 DUP3 ADD MSTORE POP JUMP JUMPDEST PUSH1 0x0 PUSH2 0x157C PUSH1 0x1D DUP4 PUSH2 0x1166 JUMP JUMPDEST SWAP2 POP PUSH2 0x1587 DUP3 PUSH2 0x1546 JUMP JUMPDEST PUSH1 0x20 DUP3 ADD SWAP1 POP SWAP2 SWAP1 POP JUMP JUMPDEST PUSH1 0x0 PUSH1 0x20 DUP3 ADD SWAP1 POP DUP2 DUP2 SUB PUSH1 0x0 DUP4 ADD MSTORE PUSH2 0x15AB DUP2 PUSH2 0x156F JUMP JUMPDEST SWAP1 POP SWAP2 SWAP1 POP JUMP JUMPDEST PUSH1 0x0 PUSH1 0x60 DUP3 ADD SWAP1 POP PUSH2 0x15C7 PUSH1 0x0 DUP4 ADD DUP7 PUSH2 0x113C JUMP JUMPDEST PUSH2 0x15D4 PUSH1 0x20 DUP4 ADD DUP6 PUSH2 0x113C JUMP JUMPDEST PUSH2 0x15E1 PUSH1 0x40 DUP4 ADD DUP5 PUSH2 0x10DB JUMP JUMPDEST SWAP5 SWAP4 POP POP POP POP JUMP JUMPDEST PUSH2 0x15F2 DUP2 PUSH2 0xF3B JUMP JUMPDEST DUP2 EQ PUSH2 0x15FD JUMPI PUSH1 0x0 DUP1 REVERT JUMPDEST POP JUMP JUMPDEST PUSH1 0x0 DUP2 MLOAD SWAP1 POP PUSH2 0x160F DUP2 PUSH2 0x15E9 JUMP JUMPDEST SWAP3 SWAP2 POP POP JUMP JUMPDEST PUSH1 0x0 PUSH1 0x20 DUP3 DUP5 SUB SLT ISZERO PUSH2 0x162B JUMPI PUSH2 0x162A PUSH2 0xEAB JUMP JUMPDEST JUMPDEST PUSH1 0x0 PUSH2 0x1639 DUP5 DUP3 DUP6 ADD PUSH2 0x1600 JUMP JUMPDEST SWAP2 POP POP SWAP3 SWAP2 POP POP JUMP JUMPDEST PUSH1 0x0 PUSH2 0x164D DUP3 PUSH2 0xFAF JUMP JUMPDEST SWAP2 POP PUSH32 0xFFFFFFFFFFFFFFFFFFFFFFFFFFFFFFFFFFFFFFFFFFFFFFFFFFFFFFFFFFFFFFFF DUP3 SUB PUSH2 0x167F JUMPI PUSH2 0x167E PUSH2 0x11E3 JUMP JUMPDEST JUMPDEST PUSH1 0x1 DUP3 ADD SWAP1 POP SWAP2 SWAP1 POP JUMP INVALID LOG2 PUSH5 0x6970667358 0x22 SLT KECCAK256 0xA6 0xB7 PUSH20 0x322FE22FA46C78EE47BD035CB4519BA4C0D2B68C SWAP13 PUSH11 0x98DAB7FCE0E50164736F6C PUSH4 0x43000818 STOP CALLER "},"methodIdentifiers":{"contractBalance()":"8b7afe2e","depositForEvents()":"c9dc70dd","getTotalResidents()":"b6df18b7","hasVoted(address)":"09eef43e","i_owner()":"dba6335f","isApproved()":"28f371aa","paymentsSent(address)":"d0fefcd6","rentContract()":"3a488eaa","tokenContract()":"55a373d6","totalVoters()":"5f5300ff","transferForEventFunds(address,uint256)":"37d5d81d","voteCount()":"c6384071","voteNo()":"41c12a70","voteYes()":"90cf581c"}}}}}