{
  "_format": "hh-sol-artifact-1",
  "contractName": "Rent",
  "sourceName": "contracts/Rent.sol",
  "abi": [
    {
      "inputs": [
        {
          "internalType": "address",
          "name": "_tokenContract",
          "type": "address"
        },
        {
          "components": [
            {
              "internalType": "uint256",
              "name": "apartment",
              "type": "uint256"
            },
            {
              "internalType": "uint256",
              "name": "rentValueInUsd",
              "type": "uint256"
            },
            {
              "internalType": "address",
              "name": "residentWallet",
              "type": "address"
            },
            {
              "internalType": "bool",
              "name": "hasPaidRent",
              "type": "bool"
            }
          ],
          "internalType": "struct Rent.Residents[]",
          "name": "_residents",
          "type": "tuple[]"
        }
      ],
      "stateMutability": "nonpayable",
      "type": "constructor"
    },
    {
      "inputs": [],
      "name": "NotOwner",
      "type": "error"
    },
    {
      "stateMutability": "payable",
      "type": "fallback"
    },
    {
      "inputs": [
        {
          "internalType": "uint256",
          "name": "_apartment",
          "type": "uint256"
        },
        {
          "internalType": "uint256",
          "name": "_rentValueInUsd",
          "type": "uint256"
        },
        {
          "internalType": "address",
          "name": "_residentWallet",
          "type": "address"
        }
      ],
      "name": "addResident",
      "outputs": [],
      "stateMutability": "nonpayable",
      "type": "function"
    },
    {
      "inputs": [
        {
          "internalType": "address",
          "name": "",
          "type": "address"
        }
      ],
      "name": "addressToAmountPayed",
      "outputs": [
        {
          "internalType": "uint256",
          "name": "",
          "type": "uint256"
        }
      ],
      "stateMutability": "view",
      "type": "function"
    },
    {
      "inputs": [],
      "name": "checkInDebt",
      "outputs": [
        {
          "internalType": "bool",
          "name": "",
          "type": "bool"
        }
      ],
      "stateMutability": "view",
      "type": "function"
    },
    {
      "inputs": [],
      "name": "checkTokenBalance",
      "outputs": [
        {
          "internalType": "uint256",
          "name": "",
          "type": "uint256"
        }
      ],
      "stateMutability": "view",
      "type": "function"
    },
    {
      "inputs": [
        {
          "internalType": "address",
          "name": "_wallet",
          "type": "address"
        }
      ],
      "name": "getRentValueByAddress",
      "outputs": [
        {
          "internalType": "uint256",
          "name": "",
          "type": "uint256"
        }
      ],
      "stateMutability": "view",
      "type": "function"
    },
    {
      "inputs": [],
      "name": "getTotalResidents",
      "outputs": [
        {
          "internalType": "uint256",
          "name": "",
          "type": "uint256"
        }
      ],
      "stateMutability": "view",
      "type": "function"
    },
    {
      "inputs": [],
      "name": "i_owner",
      "outputs": [
        {
          "internalType": "address",
          "name": "",
          "type": "address"
        }
      ],
      "stateMutability": "view",
      "type": "function"
    },
    {
      "inputs": [
        {
          "internalType": "address",
          "name": "",
          "type": "address"
        }
      ],
      "name": "inDebt",
      "outputs": [
        {
          "internalType": "bool",
          "name": "",
          "type": "bool"
        }
      ],
      "stateMutability": "view",
      "type": "function"
    },
    {
      "inputs": [],
      "name": "rent",
      "outputs": [],
      "stateMutability": "payable",
      "type": "function"
    },
    {
      "inputs": [
        {
          "internalType": "uint256",
          "name": "",
          "type": "uint256"
        }
      ],
      "name": "residents",
      "outputs": [
        {
          "internalType": "uint256",
          "name": "apartment",
          "type": "uint256"
        },
        {
          "internalType": "uint256",
          "name": "rentValueInUsd",
          "type": "uint256"
        },
        {
          "internalType": "address",
          "name": "residentWallet",
          "type": "address"
        },
        {
          "internalType": "bool",
          "name": "hasPaidRent",
          "type": "bool"
        }
      ],
      "stateMutability": "view",
      "type": "function"
    },
    {
      "inputs": [],
      "name": "tokenContract",
      "outputs": [
        {
          "internalType": "contract ERC20Token",
          "name": "",
          "type": "address"
        }
      ],
      "stateMutability": "view",
      "type": "function"
    },
    {
      "inputs": [],
      "name": "withdraw",
      "outputs": [],
      "stateMutability": "nonpayable",
      "type": "function"
    },
    {
      "stateMutability": "payable",
      "type": "receive"
    }
  ],
  "bytecode": "0x60a06040523480156200001157600080fd5b5060405162001ace38038062001ace833981810160405281019062000037919062000485565b3373ffffffffffffffffffffffffffffffffffffffff1660808173ffffffffffffffffffffffffffffffffffffffff1681525050816000806101000a81548173ffffffffffffffffffffffffffffffffffffffff021916908373ffffffffffffffffffffffffffffffffffffffff16021790555060005b81518110156200018c576001828281518110620000d057620000cf620004eb565b5b60200260200101519080600181540180825580915050600190039060005260206000209060030201600090919091909150600082015181600001556020820151816001015560408201518160020160006101000a81548173ffffffffffffffffffffffffffffffffffffffff021916908373ffffffffffffffffffffffffffffffffffffffff16021790555060608201518160020160146101000a81548160ff02191690831515021790555050508080600101915050620000ae565b5050506200051a565b6000604051905090565b600080fd5b600080fd5b600073ffffffffffffffffffffffffffffffffffffffff82169050919050565b6000620001d682620001a9565b9050919050565b620001e881620001c9565b8114620001f457600080fd5b50565b6000815190506200020881620001dd565b92915050565b600080fd5b6000601f19601f8301169050919050565b7f4e487b7100000000000000000000000000000000000000000000000000000000600052604160045260246000fd5b6200025e8262000213565b810181811067ffffffffffffffff8211171562000280576200027f62000224565b5b80604052505050565b60006200029562000195565b9050620002a3828262000253565b919050565b600067ffffffffffffffff821115620002c657620002c562000224565b5b602082029050602081019050919050565b600080fd5b600080fd5b6000819050919050565b620002f681620002e1565b81146200030257600080fd5b50565b6000815190506200031681620002eb565b92915050565b60008115159050919050565b62000333816200031c565b81146200033f57600080fd5b50565b600081519050620003538162000328565b92915050565b600060808284031215620003725762000371620002dc565b5b6200037e608062000289565b90506000620003908482850162000305565b6000830152506020620003a68482850162000305565b6020830152506040620003bc84828501620001f7565b6040830152506060620003d28482850162000342565b60608301525092915050565b6000620003f5620003ef84620002a8565b62000289565b905080838252602082019050608084028301858111156200041b576200041a620002d7565b5b835b8181101562000448578062000433888262000359565b8452602084019350506080810190506200041d565b5050509392505050565b600082601f8301126200046a57620004696200020e565b5b81516200047c848260208601620003de565b91505092915050565b600080604083850312156200049f576200049e6200019f565b5b6000620004af85828601620001f7565b925050602083015167ffffffffffffffff811115620004d357620004d2620001a4565b5b620004e18582860162000452565b9150509250929050565b7f4e487b7100000000000000000000000000000000000000000000000000000000600052603260045260246000fd5b60805161158a6200054460003960008181610760015281816107ee0152610c09015261158a6000f3fe6080604052600436106100ab5760003560e01c806382996d9f1161006457806382996d9f146101c55780639b78118b146101cf578063b6df18b71461020c578063c3b753ed14610237578063dba6335f14610274578063ff1d239b1461029f576100ba565b80630d20d986146100c45780631283d0a0146100ef5780632f27e7b61461012f5780633ccfd60b146101585780634f7310871461016f57806355a373d61461019a576100ba565b366100ba576100b86102dc565b005b6100c26102dc565b005b3480156100d057600080fd5b506100d961055e565b6040516100e69190610d49565b60405180910390f35b3480156100fb57600080fd5b5061011660048036038101906101119190610d9f565b6105b2565b6040516101269493929190610e1c565b60405180910390f35b34801561013b57600080fd5b5061015660048036038101906101519190610e8d565b61061f565b005b34801561016457600080fd5b5061016d61075e565b005b34801561017b57600080fd5b50610184610a13565b6040516101919190610ee0565b60405180910390f35b3480156101a657600080fd5b506101af610ab5565b6040516101bc9190610f5a565b60405180910390f35b6101cd6102dc565b005b3480156101db57600080fd5b506101f660048036038101906101f19190610f75565b610ad9565b6040516102039190610ee0565b60405180910390f35b34801561021857600080fd5b50610221610be2565b60405161022e9190610ee0565b60405180910390f35b34801561024357600080fd5b5061025e60048036038101906102599190610f75565b610bef565b60405161026b9190610ee0565b60405180910390f35b34801561028057600080fd5b50610289610c07565b6040516102969190610fa2565b60405180910390f35b3480156102ab57600080fd5b506102c660048036038101906102c19190610f75565b610c2b565b6040516102d39190610d49565b60405180910390f35b60006102e733610ad9565b9050670de0b6b3a7640000816102fd9190610fec565b61030634610c4b565b1015610347576040517f08c379a000000000000000000000000000000000000000000000000000000000815260040161033e9061108b565b60405180910390fd5b34600260003373ffffffffffffffffffffffffffffffffffffffff1673ffffffffffffffffffffffffffffffffffffffff168152602001908152602001600020819055506000600360003373ffffffffffffffffffffffffffffffffffffffff1673ffffffffffffffffffffffffffffffffffffffff16815260200190815260200160002060006101000a81548160ff02191690831515021790555060008054906101000a900473ffffffffffffffffffffffffffffffffffffffff1673ffffffffffffffffffffffffffffffffffffffff16630f18ac073360056040518363ffffffff1660e01b815260040161043f9291906110e6565b6020604051808303816000875af115801561045e573d6000803e3d6000fd5b505050506040513d601f19601f82011682018060405250810190610482919061113b565b5060005b60018054905081101561055a573373ffffffffffffffffffffffffffffffffffffffff16600182815481106104be576104bd611168565b5b906000526020600020906003020160020160009054906101000a900473ffffffffffffffffffffffffffffffffffffffff1673ffffffffffffffffffffffffffffffffffffffff160361054d5760018082815481106105205761051f611168565b5b906000526020600020906003020160020160146101000a81548160ff02191690831515021790555061055a565b8080600101915050610486565b5050565b6000600360003373ffffffffffffffffffffffffffffffffffffffff1673ffffffffffffffffffffffffffffffffffffffff16815260200190815260200160002060009054906101000a900460ff16905090565b600181815481106105c257600080fd5b90600052602060002090600302016000915090508060000154908060010154908060020160009054906101000a900473ffffffffffffffffffffffffffffffffffffffff16908060020160149054906101000a900460ff16905084565b600160405180608001604052808581526020018481526020018373ffffffffffffffffffffffffffffffffffffffff168152602001600015158152509080600181540180825580915050600190039060005260206000209060030201600090919091909150600082015181600001556020820151816001015560408201518160020160006101000a81548173ffffffffffffffffffffffffffffffffffffffff021916908373ffffffffffffffffffffffffffffffffffffffff16021790555060608201518160020160146101000a81548160ff02191690831515021790555050506001600360008373ffffffffffffffffffffffffffffffffffffffff1673ffffffffffffffffffffffffffffffffffffffff16815260200190815260200160002060006101000a81548160ff021916908315150217905550505050565b7f000000000000000000000000000000000000000000000000000000000000000073ffffffffffffffffffffffffffffffffffffffff163373ffffffffffffffffffffffffffffffffffffffff16146107ec576040517f08c379a00000000000000000000000000000000000000000000000000000000081526004016107e3906111e3565b60405180910390fd5b7f000000000000000000000000000000000000000000000000000000000000000073ffffffffffffffffffffffffffffffffffffffff163373ffffffffffffffffffffffffffffffffffffffff1614610871576040517f30cd747100000000000000000000000000000000000000000000000000000000815260040160405180910390fd5b60005b600180549050811015610963576001818154811061089557610894611168565b5b906000526020600020906003020160020160149054906101000a900460ff1661095657600160036000600184815481106108d2576108d1611168565b5b906000526020600020906003020160020160009054906101000a900473ffffffffffffffffffffffffffffffffffffffff1673ffffffffffffffffffffffffffffffffffffffff1673ffffffffffffffffffffffffffffffffffffffff16815260200190815260200160002060006101000a81548160ff0219169083151502179055505b8080600101915050610874565b5060003373ffffffffffffffffffffffffffffffffffffffff164760405161098a90611234565b60006040518083038185875af1925050503d80600081146109c7576040519150601f19603f3d011682016040523d82523d6000602084013e6109cc565b606091505b5050905080610a10576040517f08c379a0000000000000000000000000000000000000000000000000000000008152600401610a0790611295565b60405180910390fd5b50565b60008060009054906101000a900473ffffffffffffffffffffffffffffffffffffffff1673ffffffffffffffffffffffffffffffffffffffff1663e3d670d7336040518263ffffffff1660e01b8152600401610a6f9190610fa2565b602060405180830381865afa158015610a8c573d6000803e3d6000fd5b505050506040513d601f19601f82011682018060405250810190610ab091906112ca565b905090565b60008054906101000a900473ffffffffffffffffffffffffffffffffffffffff1681565b600080600090505b600180549050811015610ba1578273ffffffffffffffffffffffffffffffffffffffff1660018281548110610b1957610b18611168565b5b906000526020600020906003020160020160009054906101000a900473ffffffffffffffffffffffffffffffffffffffff1673ffffffffffffffffffffffffffffffffffffffff1603610b945760018181548110610b7a57610b79611168565b5b906000526020600020906003020160010154915050610bdd565b8080600101915050610ae1565b506040517f08c379a0000000000000000000000000000000000000000000000000000000008152600401610bd490611369565b60405180910390fd5b919050565b6000600180549050905090565b60026020528060005260406000206000915090505481565b7f000000000000000000000000000000000000000000000000000000000000000081565b60036020528060005260406000206000915054906101000a900460ff1681565b600080610c56610c85565b90506000670de0b6b3a76400008483610c6f9190610fec565b610c7991906113b8565b90508092505050919050565b60008073ec852b2a009f49e4ee4ffeddedcf81a1ad1bbd6d905060008173ffffffffffffffffffffffffffffffffffffffff1663feaf968c6040518163ffffffff1660e01b815260040160a060405180830381865afa158015610cec573d6000803e3d6000fd5b505050506040513d601f19601f82011682018060405250810190610d109190611461565b5050509150506402540be40081610d2791906114dc565b9250505090565b60008115159050919050565b610d4381610d2e565b82525050565b6000602082019050610d5e6000830184610d3a565b92915050565b600080fd5b6000819050919050565b610d7c81610d69565b8114610d8757600080fd5b50565b600081359050610d9981610d73565b92915050565b600060208284031215610db557610db4610d64565b5b6000610dc384828501610d8a565b91505092915050565b610dd581610d69565b82525050565b600073ffffffffffffffffffffffffffffffffffffffff82169050919050565b6000610e0682610ddb565b9050919050565b610e1681610dfb565b82525050565b6000608082019050610e316000830187610dcc565b610e3e6020830186610dcc565b610e4b6040830185610e0d565b610e586060830184610d3a565b95945050505050565b610e6a81610dfb565b8114610e7557600080fd5b50565b600081359050610e8781610e61565b92915050565b600080600060608486031215610ea657610ea5610d64565b5b6000610eb486828701610d8a565b9350506020610ec586828701610d8a565b9250506040610ed686828701610e78565b9150509250925092565b6000602082019050610ef56000830184610dcc565b92915050565b6000819050919050565b6000610f20610f1b610f1684610ddb565b610efb565b610ddb565b9050919050565b6000610f3282610f05565b9050919050565b6000610f4482610f27565b9050919050565b610f5481610f39565b82525050565b6000602082019050610f6f6000830184610f4b565b92915050565b600060208284031215610f8b57610f8a610d64565b5b6000610f9984828501610e78565b91505092915050565b6000602082019050610fb76000830184610e0d565b92915050565b7f4e487b7100000000000000000000000000000000000000000000000000000000600052601160045260246000fd5b6000610ff782610d69565b915061100283610d69565b925082820261101081610d69565b9150828204841483151761102757611026610fbd565b5b5092915050565b600082825260208201905092915050565b7f446964206e6f742073656e6420656e6f75676821000000000000000000000000600082015250565b600061107560148361102e565b91506110808261103f565b602082019050919050565b600060208201905081810360008301526110a481611068565b9050919050565b6000819050919050565b60006110d06110cb6110c6846110ab565b610efb565b610d69565b9050919050565b6110e0816110b5565b82525050565b60006040820190506110fb6000830185610e0d565b61110860208301846110d7565b9392505050565b61111881610d2e565b811461112357600080fd5b50565b6000815190506111358161110f565b92915050565b60006020828403121561115157611150610d64565b5b600061115f84828501611126565b91505092915050565b7f4e487b7100000000000000000000000000000000000000000000000000000000600052603260045260246000fd5b7f53656e646572206973206e6f74206f776e657221000000000000000000000000600082015250565b60006111cd60148361102e565b91506111d882611197565b602082019050919050565b600060208201905081810360008301526111fc816111c0565b9050919050565b600081905092915050565b50565b600061121e600083611203565b91506112298261120e565b600082019050919050565b600061123f82611211565b9150819050919050565b7f43616c6c206661696c6564210000000000000000000000000000000000000000600082015250565b600061127f600c8361102e565b915061128a82611249565b602082019050919050565b600060208201905081810360008301526112ae81611272565b9050919050565b6000815190506112c481610d73565b92915050565b6000602082840312156112e0576112df610d64565b5b60006112ee848285016112b5565b91505092915050565b7f41646472657373206e6f7420726567697374657265642c20636f6e746163742060008201527f6d616e6167656d656e7421000000000000000000000000000000000000000000602082015250565b6000611353602b8361102e565b915061135e826112f7565b604082019050919050565b6000602082019050818103600083015261138281611346565b9050919050565b7f4e487b7100000000000000000000000000000000000000000000000000000000600052601260045260246000fd5b60006113c382610d69565b91506113ce83610d69565b9250826113de576113dd611389565b5b828204905092915050565b600069ffffffffffffffffffff82169050919050565b611408816113e9565b811461141357600080fd5b50565b600081519050611425816113ff565b92915050565b6000819050919050565b61143e8161142b565b811461144957600080fd5b50565b60008151905061145b81611435565b92915050565b600080600080600060a0868803121561147d5761147c610d64565b5b600061148b88828901611416565b955050602061149c8882890161144c565b94505060406114ad888289016112b5565b93505060606114be888289016112b5565b92505060806114cf88828901611416565b9150509295509295909350565b60006114e78261142b565b91506114f28361142b565b92508282026115008161142b565b91507f8000000000000000000000000000000000000000000000000000000000000000841460008412161561153857611537610fbd565b5b828205841483151761154d5761154c610fbd565b5b509291505056fea26469706673582212207e45f46eae299e27219361c1dffa0cce4f0f36c4780b5a7a33b1bc80c9fc70f264736f6c63430008180033",
  "linkReferences": {},
  "deployedLinkReferences": {}
}